:100000000010002005020000310200003102000053
:100010003102000031020000310200003102000014
:100020003102000031020000310200003102000004
:1000300031020000310200003102000031020000F4
:1000400031020000310200003102000031020000E4
:1000500031020000310200003102000031020000D4
:1000600031020000310200003102000031020000C4
:1000700031020000310200003102000031020000B4
:1000800031020000310200003102000030309FE5F3
:100090000020D3E5000052E31EFF2F1110402DE990
:1000A0000340A0E11C309FE5000053E318009F15BA
:1000B00000F020130130A0E30030C4E51040BDE89B
:1000C0001EFF2FE1F8060020000000001838000095
:1000D0001C309FE5000053E31EFF2F0110402DE967
:1000E00010109FE510009FE500F020E31040BDE8F0
:1000F0001EFF2FE100000000FC0600201838000061
:10010000E4309FE5000053E3D8309F0503D0A0E121
:1001100000200FE10F0012E31500000AD1F021E3E7
:1001200003D0A0E101AA4DE20A30A0E1D7F021E31B
:1001300003D0A0E1013A43E2DBF021E303D0A0E1E8
:10014000013A43E2D2F021E303D0A0E1023A43E2D4
:10015000D3F021E303D0A0E1023943E2FF30C3E34F
:10016000FF3CC3E3043003E5002053E9C02082E3F1
:1001700002F021E101A843E20010B0E301B0A0E1E8
:100180000170A0E16C009FE56C209FE5002052E02B
:10019000400C00EB54309FE5000053E30100000ADF
:1001A0000FE0A0E103F0A0E144309FE5000053E33D
:1001B0000100000A0FE0A0E103F0A0E10000B0E3BD
:1001C0000010B0E30040B0E10150B0E12C009FE529
:1001D0002A0C00EB2C0C00EB0400B0E10510B0E1A0
:1001E000320C00EB2E0C00EB000008000010002089
:1001F0000000000000000000F80600202C0900208C
:1002000089300000064880470649074A074B9B1A79
:1002100003DD043BC858D050FBDCFFF771FF000042
:100220000D1200002438000000000020F806002015
:10023000FEE7C04680B584B000AFF860B9607A6070
:10024000B968FA687B681000984703001800BD463B
:1002500004B080BD80B582B000AF7860074B1968EC
:100260007B685A6C1300DB009B189B005A587B6814
:100270001A6000231800BD4602B080BD8C05002026
:1002800090B583B000AF78600C4B19687B685A6CEE
:100290001300DB009B189B005C587B681868074BB9
:1002A00019687B685A6C20431300DB009B189B0085
:1002B000585000231800BD4603B090BD8C050020A7
:1002C00080B582B000AF7860084B19687B685A6CC3
:1002D0001300DB009B189B00CB1804331A687B6863
:1002E0005A6000231800BD4602B080BD8C05002076
:1002F00090B583B000AF78600E4B19687B685A6C7C
:100300001300DB009B189B00CB1804331C687B6830
:100310005968084B18687B685A6C21431300DB004E
:100320009B189B00C3180433196000231800BD46B6
:1003300003B090BD8C05002090B583B000AF78600D
:100340000F4B19687B685A6C1300DB009B189B00ED
:10035000CB18043319687B685B68DC43084B18686A
:100360007B685A6C21401300DB009B189B00C3186C
:100370000433196000231800BD4603B090BDC04689
:100380008C05002080B582B000AF7860084B1968FA
:100390007B685A6C1300DB009B189B00CB1808335A
:1003A0001A687B689A6000231800BD4602B080BDC1
:1003B0008C05002090B583B000AF78600E4B1968B3
:1003C0007B685A6C1300DB009B189B00CB1808332A
:1003D0001C687B689968084B18687B685A6C2143D5
:1003E0001300DB009B189B00C3180833196000231F
:1003F0001800BD4603B090BD8C05002090B583B0B9
:1004000000AF78600F4B19687B685A6C1300DB00F3
:100410009B189B00CB18083319687B689B68DC43EA
:10042000084B18687B685A6C21401300DB009B184E
:100430009B00C3180833196000231800BD4603B0A1
:1004400090BDC0468C05002080B582B000AF7860BA
:10045000084B19687B685A6C1300DB009B189B00E3
:10046000CB1820331A687B68DA6000231800BD4679
:1004700002B080BD8C05002090B583B000AF7860DD
:100480000E4B19687B685A6C1300DB009B189B00AD
:10049000CB1820331C687B68D968084B18687B68C8
:1004A0005A6C21431300DB009B189B00C3182033B8
:1004B000196000231800BD4603B090BD8C050020D4
:1004C00090B583B000AF78600F4B19687B685A6CA9
:1004D0001300DB009B189B00CB18203319687B6846
:1004E000DB68DC43084B18687B685A6C21401300BA
:1004F000DB009B189B00C3182033196000231800F1
:10050000BD4603B090BDC0468C05002080B582B0CA
:1005100000AF7860054B1A6880235B00D2587B6877
:100520001A6100231800BD4602B080BD8C05002072
:1005300080B582B000AF7860084B1A6880235B00FA
:10054000D0587B681969054B1A68014380235B000A
:10055000D15000231800BD4602B080BD8C0500209C
:1005600080B582B000AF7860094B1A6880235B00C9
:10057000D1587B681B69D843054B1A68014080231A
:100580005B00D15000231800BD4602B080BDC046BC
:100590008C05002080B582B000AF7860054B1A68EA
:1005A00080235B00D2587B685A6100231800BD4647
:1005B00002B080BD8C05002080B582B000AF7860AD
:1005C000084B1A6882235B00D0587B685969054B39
:1005D0001A68014382235B00D15000231800BD46F6
:1005E00002B080BD8C05002080B582B000AF78607D
:1005F000094B1A6882235B00D1587B685B69D8433A
:10060000054B1A68014082235B00D150002318007B
:10061000BD4602B080BDC0468C05002080B582B0CA
:1006200000AF7860054B1A6884235B00D2587B6862
:100630009A6100231800BD4602B080BD8C050020E1
:1006400080B582B000AF78600A4B1A6884235B00E3
:10065000D0587B689969074B1A68014384235B0073
:10066000D1507B68180000F04FF800231800BD46F9
:1006700002B080BD8C05002080B582B000AF7860EC
:10068000094B1A6884235B00D1587B689B69D84367
:10069000054B1A68014084235B00D15000231800E9
:1006A000BD4602B080BDC0468C05002080B582B03A
:1006B00000AF7860054B1A6884235B00D2587B68D2
:1006C000DA6100231800BD4602B080BD8C05002011
:1006D00080B582B000AF78600A4B1A6886235B0051
:1006E000D0587B68D969074B1A68014386235B00A1
:1006F000D1507B681800FFF7BFFF00231800BD46EC
:1007000002B080BD8C05002080B582B000AF78605B
:10071000094B1A6886235B00D1587B68DB69D84394
:10072000054B1A68014086235B00D1500023180056
:10073000BD4602B080BDC0468C05002080B582B0A9
:1007400000AF7860054B1A6888235B00D2587B683D
:100750001A6200231800BD4602B080BD8C0500203F
:1007600080B582B000AF7860084B1A6888235B00C0
:10077000D0587B68196A054B1A68014388235B00CF
:10078000D15000231800BD4602B080BD8C0500206A
:1007900080B582B000AF7860094B1A6888235B008F
:1007A000D1587B681B6AD843054B1A6801408823DF
:1007B0005B00D15000231800BD4602B080BDC0468A
:1007C0008C05002080B582B000AF7860054B1A68B8
:1007D0008A235B00D2587B685A6200231800BD460A
:1007E00002B080BD8C05002080B582B000AF78607B
:1007F000084B1A688C235B00D0587B68596A054BFC
:100800001A6801438C235B00D15000231800BD46B9
:1008100002B080BD8C05002080B582B000AF78604A
:10082000054B1A687B68596A8E235B00D150002300
:100830001800BD4602B080BD8C05002080B582B096
:1008400000AF7860054B1A6890235B00D2587B6834
:100850009A6200231800BD4602B080BD8C050020BE
:1008600080B582B000AF7860084B1A6890235B00B7
:10087000D0587B68996A054B1A68014390235B0046
:10088000D15000231800BD4602B080BD8C05002069
:1008900080B582B000AF7860094B1A6890235B0086
:1008A000D1587B689B6AD843054B1A680140902356
:1008B0005B00D15000231800BD4602B080BDC04689
:1008C0008C05002080B582B000AF7860054B1A68B7
:1008D00092235B00D2587B68DA6200231800BD4681
:1008E00002B080BD8C05002080B582B000AF78607A
:1008F000084B1A6892235B00D0587B68D96A054B75
:100900001A68014392235B00D15000231800BD46B2
:1009100002B080BD8C05002080B582B000AF786049
:10092000094B1A6892235B00D1587B68DB6AD84375
:10093000054B1A68014092235B00D1500023180038
:10094000BD4602B080BDC0468C05002080B582B097
:1009500000AF7860054B1A6894235B00D2587B681F
:100960001A6300231800BD4602B080BD8C0500202C
:1009700080B582B000AF7860054B1A687B68196B50
:1009800094235B00D15000231800BD4602B080BD07
:100990008C05002080B582B000AF78607B68196B51
:1009A000054B1A68C94394235B00D15000231800FB
:1009B000BD4602B080BDC0468C05002080B582B027
:1009C00000AF7860054B1A6896235B00D2587B68AD
:1009D0005A6300231800BD4602B080BD8C0500207C
:1009E00080B582B000AF7860084B1A6896235B0030
:1009F000D0587B68596B054B1A68014396235B00FE
:100A0000D15000231800BD4602B080BD8C050020E7
:100A100080B582B000AF7860084B1A6896235B00FF
:100A2000D1587B68586B054B1A68014096235B00D0
:100A3000D15000231800BD4602B080BD8C050020B7
:100A400080B582B000AF7860054B1A689A235B00CE
:100A5000D2587B689A6300231800BD4602B080BD5F
:100A60008C05002080B582B000AF7860084B1A6812
:100A70009A235B00D0587B68996B054B1A68014339
:100A80009A235B00D15000231800BD4602B080BD00
:100A90008C05002080B582B000AF7860084B1A68E2
:100AA0009A235B00D1587B68986B054B1A6801400C
:100AB0009A235B00D15000231800BD4602B080BDD0
:100AC0008C05002080B582B000AF7860054B1A68B5
:100AD0009C235B00D2587B68DA6300231800BD4674
:100AE00002B080BD8C05002080B582B000AF786078
:100AF000084B1A689C235B00D0587B68D96B054B68
:100B00001A6801439C235B00D15000231800BD46A6
:100B100002B080BD8C05002080B582B000AF786047
:100B2000084B1A689C235B00D1587B68D86B054B37
:100B30001A6801409C235B00D15000231800BD4679
:100B400002B080BD8C05002080B500AF044B1A6850
:100B500098235B000121D15000231800BD4680BDC1
:100B60008C05002080B582B000AF7860054B1A6814
:100B70009E235B00D2587B681A6400231800BD4690
:100B800002B080BD8C05002080B582B000AF7860D7
:100B9000084B19687B68DA681300DB009B189B0020
:100BA000CB181C331A687B689A6000231800BD4676
:100BB00002B080BD8C05002080B582B000AF7860A7
:100BC000084B18687B68DA687B6819681300DB00DB
:100BD0009B189B00C3181833196000231800BD46EA
:100BE00002B080BD8C05002080B582B000AF786077
:100BF000084B19687B68DA681300DB009B189B00C0
:100C0000CB180C331A687B685A6000231800BD4665
:100C100002B080BD8C05002090B583B000AF786035
:100C20000E4B19687B68DA681300DB009B189B0089
:100C3000CB180C331C687B685968084B18687B68B4
:100C4000DA6821431300DB009B189B00C3180C33A8
:100C5000196000231800BD4603B090BD8C0500202C
:100C600090B583B000AF78600F4B19687B68DA6885
:100C70001300DB009B189B00CB180C3319687B68B2
:100C80005B68DC43084B18687B68DA682140130016
:100C9000DB009B189B00C3180C331960002318005D
:100CA000BD4603B090BDC0468C05002080B584B021
:100CB00000AFF860B9607A607B689B00BA68D318AF
:100CC000FA6892681A60C046BD4604B080BD80B51F
:100CD00084B000AFF860B9607A607B689B00BA6846
:100CE000D3181A68FB685A60C046BD4604B080BD80
:100CF00080B58AB000AF786039607B683B623A6A41
:100D00008E235B00D358FB613A6A8A235B00D35879
:100D1000BB61FB69002B12D00023FB601D4B3A68BE
:100D20009200D358BB60FA69BB6810009847030073
:100D3000FB60FB68DA17D31ADB0FDBB225E0BB6977
:100D4000002B21D000237B6100237B6216E0124B35
:100D50007A6A9200D2583B689B00D3181B683B61AB
:100D6000BA693B691000984703007B617B69002BDF
:100D700001DD012309E07B6A01337B62064B7A6A5D
:100D80009200D358002BE2D100231800BD460AB0D0
:100D900080BDC046180900201C37000080B586B011
:100DA00000AF786039607B687B617A698A235B0079
:100DB000D3583B617A69A223DB00D258084B9200DA
:100DC000D2583B689B00D3181B68FB603A69FB68EC
:100DD0001000984703001800BD4606B080BDC0460D
:100DE0001C37000090B58FB000AFF860B9607A6032
:100DF0003B60FB68FB62FA6A88235B00D358BB62E6
:100E0000FA6A8C235B00D3587B62FA6A8E235B00FC
:100E1000D3583B62FA6A90235B00D358FB613B6A6C
:100E2000DB6BBB61234BBA699200D258BB689B0055
:100E3000D3181B687B61204BBA689200D258BB69FB
:100E40009B00D3181B683B61BB68002B15D10023A6
:100E50007B630DE0FB697A6A396AB86A7C69A047EE
:100E60007A6B7968B86A3B6998477B6B01337B631F
:100E70007B6B3A689A42EDD817E0BB68012B14D11E
:100E800000233B630DE03A6B7968B86A3B69984789
:100E9000FB697A6A396AB86A7C69A0473B6B01339F
:100EA0003B633B6B3A689A42EDD800231800BD467D
:100EB0000FB090BDA4360000BC36000080B588B0ED
:100EC00000AF786039607B68BB61BA6992235B00D0
:100ED000D3587B617B69002B21D000233B61002329
:100EE000FB6116E0104BFA699200D2583B689B00F8
:100EF000D3181B68FB607A69FB68100098470300F1
:100F00003B613B69002B01DD012309E0FB690133F3
:100F1000FB61054BFA699200D358002BE2D1002304
:100F20001800BD4608B080BDD032000080B586B044
:100F300000AF786039607B687B617A6992235B00DF
:100F4000D3583B617A69A223DB00D258084B920048
:100F5000D2583B689B00D3181B68FB603A69FB685A
:100F60001000984703001800BD4606B080BDC0467B
:100F7000D032000080B58AB000AFF860B9607A6006
:100F80003B60FB68FB61FA6994235B00D358BB614B
:100F90001F4BBA689200D3587B611E4BBA6892000F
:100FA000D258BB689B00D3181B683B61BB68002B01
:100FB00013D100237B620BE0BA693B6910009847AC
:100FC0007A6A7968B8697B6998477B6A01337B6282
:100FD0007B6A3A689A42EFD815E0BB68012B12D1C0
:100FE00000233B620BE03A6A7968B8697B699847ED
:100FF000BA693B69100098473B6A01333B623B6A20
:101000003A689A42EFD800231800BD460AB080BD66
:10101000343400002834000080B58AB000AFF86096
:10102000B9607A603B600123BB60FB683B623A6A4F
:1010300094235B00D358FB61124BBA689200D358DB
:10104000BB61114BBA689200D258BB689B00D318A1
:101050001B687B6100237B620BE07A6A7968F86920
:10106000BB699847FA697B69100098477B6A01332E
:101070007B627B6A3A689A42EFD800231800BD462B
:101080000AB080BD343400002834000080B588B038
:1010900000AF786039607B68BB61BA6996235B00FA
:1010A000D3587B6100233B610023FB617B69DA68D5
:1010B000154B1B681A437B69DA607B69124ADA6652
:1010C00016E0124BFA699200D2583B689B00D31885
:1010D0001B68FB607A69FB681000984703003B615E
:1010E0003B69002B01DD012309E0FB690133FB6152
:1010F000064BFA699200D358002BE2D10023180066
:10110000BD4608B080BDC046E081E00FE03400007D
:1011100080B586B000AF786039607B687B617A69A2
:1011200096235B00D3583B617A69A223DB00D25837
:10113000084B9200D2583B689B00D3181B68FB6099
:101140003A69FB681000984703001800BD4606B0D6
:1011500080BDC046E034000080B588B000AF786044
:1011600039607B68BB61BA6998235B00D3587B61A7
:1011700000233B610023FB6116E0114BFA699200EA
:10118000D2583B689B00D3181B68FB607A69FB68E8
:101190001000984703003B613B69002B01DD0123F0
:1011A00009E0FB690133FB61054BFA699200D358F2
:1011B000002BE2D100231800BD4608B080BDC04618
:1011C0006034000080B586B000AF786039607B681D
:1011D0007B617A6998235B00D3583B617A69A223CB
:1011E000DB00D258084B9200D2583B689B00D318C2
:1011F0001B68FB603A69FB68100098470300180001
:10120000BD4606B080BDC046603400007047C04691
:1012100080B582B000AF7860044B1B681A687B68A9
:101220001A6000231800BD4602B080BD9005002062
:1012300080B582B000AF7860064B1B6819687B6888
:101240001A68044B1B680A431A6000231800BD4645
:1012500002B080BD9005002080B582B000AF7860FC
:10126000074B1B681A687B681B68D943044B1B68D3
:101270000A401A6000231800BD4602B080BDC04677
:101280009005002080B582B000AF7860064B1B68E7
:1012900059687B685A68044B1B680A435A600023EC
:1012A0001800BD4602B080BD9005002080B582B018
:1012B00000AF7860044B1B689A687B689A600023D3
:1012C0001800BD4602B080BD9005002080B582B0F8
:1012D00000AF7860044B1B68DA687B68DA60002333
:1012E0001800BD4602B080BD9005002080B582B0D8
:1012F00000AF7860064B1B68D9687B68DA68044BDE
:101300001B680A43DA6000231800BD4602B080BDA6
:101310009005002080B582B000AF7860074B1B6855
:10132000DA687B68DB68D943044B1B680A40DA60E3
:1013300000231800BD4602B080BDC04690050020C5
:1013400080B582B000AF7860044B1B681A697B6877
:101350001A6100231800BD4602B080BD9005002030
:1013600080B582B000AF7860064B1B6859697B6816
:101370005A69044B1B680A435A6100231800BD4692
:1013800002B080BD9005002080B582B000AF7860CB
:10139000074B1B689A697B689B69D943044B1B68A0
:1013A0000A409A6100231800BD4602B080BDC046C5
:1013B0009005002080B582B000AF7860044B1B68B8
:1013C000DA697B68DA6100231800BD4602B080BD8F
:1013D0009005002080B582B000AF7860064B1B6896
:1013E000D9697B68DA69044B1B680A43DA61002318
:1013F0001800BD4602B080BD9005002080B582B0C7
:1014000000AF7860074B1B68DA697B68DB69D943FA
:10141000044B1B680A40DA6100231800BD4602B085
:1014200080BDC0469005002080B582B000AF7860D6
:10143000044B1B681A6A7B681A6200231800BD46B9
:1014400002B080BD9005002080B582B000AF78600A
:10145000064B1B68196A7B681A6A044B1B680A43AF
:101460001A6200231800BD4602B080BD900500201E
:1014700080B582B000AF7860074B1B681A6A7B6842
:101480001B6AD943044B1B680A401A6200231800E8
:10149000BD4602B080BDC0469005002080B582B038
:1014A00000AF7860044B1B685A6A7B685A6200235D
:1014B0001800BD4602B080BD9005002080B582B006
:1014C00000AF7860064B1B68596A7B685A6A044B08
:1014D0001B680A435A6200231800BD4602B080BD53
:1014E0009005002080B582B000AF7860074B1B6884
:1014F0005A6A7B685B6AD943044B1B680A405A628C
:1015000000231800BD4602B080BDC04690050020F3
:1015100080B582B000AF7860044B1B689A6A7B6824
:101520009A6200231800BD4602B080BD90050020DD
:1015300080B582B000AF7860064B1B68996A7B6803
:101540009A6A044B1B680A439A6200231800BD463E
:1015500002B080BD9005002080B582B000AF7860F9
:10156000074B1B689A6A7B689B6AD943044B1B68CC
:101570000A409A6200231800BD4602B080BDC046F2
:101580009005002080B582B000AF7860044B1B68E6
:101590001A6B7B68DA6200231800BD4602B080BD7A
:1015A0009005002080B582B000AF7860064B1B68C4
:1015B000196B7B68DA6A044B1B680A431A630023C1
:1015C0001800BD4602B080BD9005002080B582B0F5
:1015D00000AF7860074B1B681A6B7B68DB6AD943E6
:1015E000044B1B680A401A6300231800BD4602B072
:1015F00080BDC0469005002080B582B000AF786005
:10160000044B1B685A6B7B681A6300231800BD46A5
:1016100002B080BD9005002080B582B000AF786038
:10162000064B1B68596B7B681A6B044B1B680A439B
:101630005A6300231800BD4602B080BD900500200B
:1016400080B582B000AF7860074B1B685A6B7B682F
:101650001B6BD943044B1B680A405A6300231800D4
:10166000BD4602B080BDC0469005002080B582B066
:1016700000AF7860044B1B68DA6B7B685A63002309
:101680001800BD4602B080BD9005002080B582B034
:1016900000AF7860064B1B68D96B7B689A6B044B74
:1016A0001B680A43DA6300231800BD4602B080BD00
:1016B0009005002080B582B000AF7860074B1B68B2
:1016C000DA6B7B689B6BD943044B1B680A40DA6377
:1016D00000231800BD4602B080BDC0469005002022
:1016E00080B582B000AF7860044B1B681A6B7B68D2
:1016F000DA6300231800BD4602B080BD90050020CB
:1017000080B582B000AF7860064B1B68196B7B68B0
:10171000DA6B044B1B680A431A6300231800BD46AA
:1017200002B080BD9005002080B582B000AF786027
:10173000074B1B681A6B7B68DB6BD943044B1B6838
:101740000A401A6300231800BD4602B080BDC0469F
:101750009005002080B582B000AF7860044B1B6814
:101760005A6B7B681A6400231800BD4602B080BD26
:101770009005002080B582B000AF7860064B1B68F2
:10178000596B7B681A6C044B1B680A435A6300232D
:101790001800BD4602B080BD9005002080B582B023
:1017A00000AF7860074B1B685A6B7B681B6CD94392
:1017B000044B1B680A405A6300231800BD4602B060
:1017C00080BDC0469005002080B582B000AF786033
:1017D000044B1B68DA6B7B685A6400231800BD4613
:1017E00002B080BD9005002080B582B000AF786067
:1017F000064B1B68D96B7B689A6C044B1B680A43C9
:10180000DA6300231800BD4602B080BD90050020B9
:1018100080B582B000AF7860074B1B68DA6B7B68DD
:101820009B6CD943044B1B680A40DA630023180001
:10183000BD4602B080BDC0469005002080B582B094
:1018400000AF7860044B1B681A6B7B68DA64002376
:101850001800BD4602B080BD9005002080B582B062
:1018600000AF7860064B1B68196B7B68DA6C044B21
:101870001B680A431A6300231800BD4602B080BDEE
:101880009005002080B582B000AF7860074B1B68E0
:101890001A6B7B68DB6CD943044B1B680A401A63E4
:1018A00000231800BD4602B080BDC0469005002050
:1018B00080B582B000AF7860044B1B685A6B7B68C0
:1018C0001A6500231800BD4602B080BD90050020B7
:1018D00080B582B000AF7860064B1B68596B7B689F
:1018E0001A6D044B1B680A435A6300231800BD4657
:1018F00002B080BD9005002080B582B000AF786056
:10190000074B1B685A6B7B681B6DD943044B1B68E4
:101910000A405A6300231800BD4602B080BDC0468D
:101920009005002080B582B000AF7860044B1B6842
:10193000DA6B7B685A6500231800BD4602B080BD93
:101940009005002080B582B000AF7860064B1B6820
:10195000D96B7B689A6D044B1B680A43DA630023DA
:101960001800BD4602B080BD9005002080B582B051
:1019700000AF7860074B1B68DA6B7B689B6DD943BF
:10198000044B1B680A40DA6300231800BD4602B00E
:1019900080BDC0469005002080B582B000AF786061
:1019A000044B1B689A6B7B685A6300231800BD4682
:1019B00002B080BD9005002080B582B000AF786095
:1019C000044B1B689A6B7B685A6400231800BD4661
:1019D00002B080BD9005002080B582B000AF786075
:1019E000044B1B689A6B7B685A6500231800BD4640
:1019F00002B080BD9005002080B500AFC046BD4656
:101A000080BD000080B584B000AFFFF7F5FF0D4A40
:101A100096235B00D358FB600123BB60FB68BA6868
:101A20001A62084AA223DB000821D150054BD422B8
:101A30009B587B607A68034B01211800FEF7FAFB84
:101A4000FEE7C0467000002080B582B000AF78602D
:101A5000044B1B681A687B681A6000231800BD4697
:101A600002B080BD8405002080B582B000AF7860F0
:101A7000064B1B6819687B681A68044B1B680A438D
:101A80001A6000231800BD4602B080BD8405002006
:101A900080B582B000AF7860074B1B681A687B681E
:101AA0001B68D943044B1B680A401A6000231800C6
:101AB000BD4602B080BDC0468405002080B582B01E
:101AC00000AF7860044B1B685A687B685A6000233B
:101AD0001800BD4602B080BD8405002080B582B0EC
:101AE00000AF7860064B1B6859687B685A68044BE6
:101AF0001B680A435A6000231800BD4602B080BD2F
:101B00008405002080B582B000AF7860074B1B6869
:101B10005A687B685B68D943044B1B680A405A606B
:101B200000231800BD4602B080BDC04684050020D9
:101B300080B582B000AF7860044B1B689A687B6800
:101B40009A6000231800BD4602B080BD84050020C5
:101B500080B582B000AF7860064B1B6899687B68DF
:101B60009A68044B1B680A439A6000231800BD461C
:101B700002B080BD8405002080B582B000AF7860DF
:101B8000074B1B689A687B689B68D943044B1B68AA
:101B90000A409A6000231800BD4602B080BDC046CE
:101BA0008405002080B582B000AF7860044B1B68CC
:101BB000DA687B68DA6000231800BD4602B080BD99
:101BC0008405002080B582B000AF7860064B1B68AA
:101BD000D9687B68DA68044B1B680A43DA60002323
:101BE0001800BD4602B080BD8405002080B582B0DB
:101BF00000AF7860074B1B68DA687B68DB68D94305
:101C0000044B1B680A40DA6000231800BD4602B08E
:101C100080BDC0468405002080B582B000AF7860EA
:101C2000044B1B681A697B681A6100231800BD46C3
:101C300002B080BD8405002080B582B000AF78601E
:101C4000064B1B6819697B681A69044B1B680A43B9
:101C50001A6100231800BD4602B080BD8405002033
:101C600080B582B000AF7860074B1B6819697B684C
:101C70001B69DA43044B1B680A431A6100231800EE
:101C8000BD4602B080BDC0468405002080B582B04C
:101C900000AF7860044B1B685A697B685A61002367
:101CA0001800BD4602B080BD8405002080B582B01A
:101CB00000AF7860064B1B6859697B685A69044B12
:101CC0001B680A435A6100231800BD4602B080BD5C
:101CD0008405002080B582B000AF7860074B1B6898
:101CE0005A697B685B69D943044B1B680A405A6197
:101CF00000231800BD4602B080BDC0468405002008
:101D000080B582B000AF7860044B1B689A697B682D
:101D10009A6100231800BD4602B080BD84050020F2
:101D200080B582B000AF7860064B1B6899697B680C
:101D30009A69044B1B680A439A6100231800BD4648
:101D400002B080BD8405002080B582B000AF78600D
:101D5000074B1B689A697B689B69D943044B1B68D6
:101D60000A409A6100231800BD4602B080BDC046FB
:101D70008405002080B582B000AF7860044B1B68FA
:101D8000DA697B68DA6100231800BD4602B080BDC5
:101D90008405002080B582B000AF7860064B1B68D8
:101DA000D9697B68DA69044B1B680A43DA6100234E
:101DB0001800BD4602B080BD8405002080B582B009
:101DC00000AF7860074B1B68DA697B68DB69D94331
:101DD000044B1B680A40DA6100231800BD4602B0BC
:101DE00080BDC0468405002080B582B000AF786019
:101DF000064B1B68196A7B681A6A044B1B680A4306
:101E00001A6200231800BD4602B080BD8405002080
:101E100080B582B000AF7860064B1B68596A7B685A
:101E20005A6A044B1B680A435A6200231800BD46D5
:101E300002B080BD8405002080B582B000AF78601C
:101E4000044B1B689A6A7B689A6200231800BD469F
:101E500002B080BD8405002080B582B000AF7860FC
:101E6000064B1B68996A7B689A6A044B1B680A4395
:101E70009A6200231800BD4602B080BD8405002090
:101E800080B582B000AF7860074B1B689A6A7B68A8
:101E90009B6AD943044B1B680A409A6200231800CE
:101EA000BD4602B080BDC0468405002080B582B02A
:101EB00000AF7860044B1B68DA6A7B68DA62002343
:101EC0001800BD4602B080BD8405002080B582B0F8
:101ED00000AF7860044B1B681A6B7B681A630023A1
:101EE0001800BD4602B080BD8405002080B582B0D8
:101EF00000AF7860064B1B68596B7B685A6B044BCC
:101F00001B680A435A6300231800BD4602B080BD17
:101F10008405002080B582B000AF7860074B1B6855
:101F20009A6B7B689B6BD943044B1B680A409A638E
:101F300000231800BD4602B080BDC04684050020C5
:101F400080B582B000AF7860044B1B68DA6B7B68A9
:101F5000DA6300231800BD4602B080BD840500206E
:101F600080B582B000AF7860064B1B68D96B7B6888
:101F7000DA6B044B1B680A43DA6300231800BD4682
:101F800002B080BD8405002080B582B000AF7860CB
:101F9000074B1B68DA6B7B68DB6BD943044B1B6810
:101FA0000A40DA6300231800BD4602B080BDC04677
:101FB0008405002080B582B000AF7860044B1B68B8
:101FC0001A6C7B681A6400231800BD4602B080BDFD
:101FD0008405002080B582B000AF7860064B1B6896
:101FE000196C7B681A6C044B1B680A431A64002343
:101FF0001800BD4602B080BD8405002080B582B0C7
:1020000000AF7860074B1B681A6C7B681B6CD94368
:10201000044B1B680A401A6400231800BD4602B036
:1020200080BDC0468405002080B582B000AF7860D6
:10203000044B1B685A6C7B685A6400231800BD4629
:1020400002B080BD8405002080B582B000AF78600A
:10205000064B1B68596C7B685A6C044B1B680A431F
:102060005A6400231800BD4602B080BD84050020DC
:1020700080B582B000AF7860074B1B685A6C7B68F4
:102080005B6CD943044B1B680A405A640023180058
:10209000BD4602B080BDC0468405002080B582B038
:1020A00000AF7860044B1B681A6D7B689A6400234C
:1020B0001800BD4602B080BD8405002080B582B006
:1020C00000AF7860044B1B685A6D7B68DA640023AC
:1020D0001800BD4602B080BD8405002080B582B0E6
:1020E00000AF7860064B1B68596D7B68DA6C044B57
:1020F0001B680A435A6500231800BD4602B080BD24
:102100008405002080B582B000AF7860074B1B6863
:102110005A6D7B68DB6CD943044B1B680A405A65D7
:1021200000231800BD4602B080BDC04684050020D3
:1021300080B582B000AF7860044B1B689A6D7B68F5
:102140001A6500231800BD4602B080BD840500203A
:1021500080B582B000AF7860064B1B68996D7B68D4
:102160001A6D044B1B680A439A6500231800BD468C
:1021700002B080BD8405002080B582B000AF7860D9
:10218000074B1B689A6D7B681B6DD943044B1B681A
:102190000A409A6500231800BD4602B080BDC046C3
:1021A0008405002080B582B000AF7860044B1B68C6
:1021B0001A6E7B685A6500231800BD4602B080BDC8
:1021C0008405002080B582B000AF7860064B1B68A4
:1021D000196E7B685A6D044B1B680A431A6600230C
:1021E0001800BD4602B080BD8405002080B582B0D5
:1021F00000AF7860074B1B681A6E7B685B6DD94334
:10220000044B1B680A401A6600231800BD4602B042
:1022100080BDC0468405002080B582B000AF7860E4
:10222000044B1B689A6E7B689A6500231800BD46B4
:1022300002B080BD8405002080B582B000AF786018
:10224000064B1B68996E7B689A6D044B1B680A43AA
:102250009A6600231800BD4602B080BD84050020A8
:1022600080B582B000AF7860074B1B689A6E7B68C0
:102270009B6DD943044B1B680A409A6600231800E3
:10228000BD4602B080BDC0468405002080B582B046
:1022900000AF7860044B1B681A6F7B68DA65002317
:1022A0001800BD4602B080BD8405002080B582B014
:1022B00000AF7860064B1B68196F7B68DA6D044BC2
:1022C0001B680A431A6700231800BD4602B080BD90
:1022D0008405002080B582B000AF7860074B1B6892
:1022E0001A6F7B68DB6DD943044B1B680A401A6781
:1022F00000231800BD4602B080BDC0468405002002
:1023000080B582B000AF7860044B1B689A6F7B6821
:102310001A6600231800BD4602B080BD8405002067
:1023200080B582B000AF7860064B1B68996F7B6800
:102330001A6E044B1B680A439A6700231800BD46B7
:1023400002B080BD8405002080B582B000AF786007
:10235000074B1B689A6F7B681B6ED943044B1B6845
:102360000A409A6700231800BD4602B080BDC046EF
:102370008405002080B582B000AF7860054B1B68F3
:1023800080229A587B685A6600231800BD4602B026
:1023900080BDC0468405002080B582B000AF786063
:1023A000074B1B68802299587B685A6E044B1B6848
:1023B0000A4380215A5000231800BD4602B080BD58
:1023C0008405002080B582B000AF7860084B1B68A0
:1023D00080229A587B685B6ED943054B1B680A4084
:1023E00080215A5000231800BD4602B080BDC0466F
:1023F0008405002080B582B000AF7860054B1B6873
:1024000084229A587B689A6600231800BD4602B061
:1024100080BDC0468405002080B582B000AF7860E2
:10242000074B1B68842299587B689A6E044B1B6883
:102430000A4384215A5000231800BD4602B080BDD3
:102440008405002080B582B000AF7860084B1B681F
:1024500084229A587B689B6ED943054B1B680A40BF
:1024600084215A5000231800BD4602B080BDC046EA
:102470008405002080B586B000AFF860B9607A604E
:102480003B60224B1B681B691B0A012213405A1E2A
:102490009341DAB23B681A713B681B79002B2FD04D
:1024A0001A4B1B689B697B617B699B0B0122134064
:1024B0005A1E9341DAB27B685A707B685B78002BB6
:1024C00002D001235B421CE07B69DB0B012213403D
:1024D0005A1E9341DAB27B681A707B681B78002B16
:1024E00002D002235B420CE0FB687A691A60802309
:1024F0005B001A007B6913401B0ADAB2BB681A70D2
:1025000000231800BD4606B080BDC04688050020E7
:1025100080B584B000AFF860B9607A603B6000239A
:102520007B600023BB600C4B1B681B691B0A0122EC
:1025300013405A1E9341DAB23B681A713B681B790B
:10254000002B04D0044B1B68DA69FB685A60002337
:102550001800BD4604B080BD8805002080B586B057
:1025600000AFF860B9607A603B60224B1B681B6962
:102570001B0A012213405A1E9341DAB23B681A71BA
:102580003B681B79002B2FD01A4B1B689B6A7B6121
:102590007B699B0B012213405A1E9341DAB27B6880
:1025A000DA707B68DB78002B02D001235B421CE0F1
:1025B0007B69DB0B012213405A1E9341DAB27B6820
:1025C0009A707B689B78002B02D002235B420CE060
:1025D000FB687A691A6180235B001A007B691340EB
:1025E0001B0ADAB2BB685A7000231800BD4606B059
:1025F00080BDC0468805002080B586B000AFF86079
:10260000B9607A603B60394B1B681B691B0A012269
:1026100013405A1E9341DAB23B681A713B681B792A
:10262000002B5ED0314B1B681B6A7B617B699B0B67
:10263000012213405A1E9341DAB27B685A717B68BB
:102640005B79002B02D001235B424BE07B69DB0B03
:10265000012213405A1E9341DAB27B681A717B68DB
:102660001B79002B02D002235B423BE07B699B0F6E
:10267000012213405A1E9341DAB27B68DA717B68FB
:10268000DB79002B02D003235B422BE07B69DB0F5D
:102690005A1E9341DAB27B689A717B689B79002B52
:1026A00002D004235B421DE0FF231A007B691A401D
:1026B0007B691B0CFF210B401B021A43FB689A60CD
:1026C00080235B001A007B6913401B0ADAB2BB68E7
:1026D0009A7080235B047A6913401B0EDAB2BB68E0
:1026E000DA7000231800BD4606B080BD88050020C2
:1026F00080B584B000AFF860B9607A603B600023B9
:102700007B600023BB600C4B1B681B691B0A01220A
:1027100013405A1E9341DAB23B681A713B681B7929
:10272000002B04D0044B1B685A6AFB68DA60002354
:102730001800BD4604B080BD8805002080B586B075
:1027400000AFF860B9607A603B60394B1B681B6969
:102750001B0A012213405A1E9341DAB23B681A71D8
:102760003B681B79002B5ED0314B1B68DB6A7B61B9
:102770007B699B0B012213405A1E9341DAB27B689E
:10278000DA727B68DB7A002B02D001235B424BE0DC
:102790007B69DB0B012213405A1E9341DAB27B683E
:1027A0009A727B689B7A002B02D002235B423BE04B
:1027B0007B699B0F012213405A1E9341DAB27B685A
:1027C0005A737B685B7B002B02D003235B422BE0B8
:1027D0007B69DB0F5A1E9341DAB27B681A737B6800
:1027E0001B7B002B02D004235B421DE0FF231A0059
:1027F0007B691A407B691B0CFF210B401B021A43AB
:10280000FB685A6180235B001A007B6913401B0A36
:10281000DAB2BB681A7180235B047A6913401B0E1D
:10282000DAB2BB685A7100231800BD4606B080BDFD
:102830008805002080B586B000AFF860B9607A6086
:102840003B6000237B60BB68002B2ED0FB689B693C
:102850009BB2FF2292B213409AB2BB68DB881B0284
:102860009BB213439AB2BB689B8B13439AB2BB686B
:10287000DB8B13439AB2BB681B8C13439AB2BB68C1
:102880005B8C134399B2BB689A8C14203B180A43A3
:102890001A80194B1B681B69202213401FD0164B4E
:1028A0001B683A1812881A6319E0FB689B699BB28F
:1028B000FF2292B2134099B2BB68DB881B029AB226
:1028C00016203B180A431A800B4B1B681B692022F9
:1028D000134004D0084B1B683A1812881A63064B41
:1028E0001B689A6C044B1B6820210A439A640023DE
:1028F0001800BD4606B080BD8805002080B584B0B4
:1029000000AFF860B9607A603B6000237B60002311
:10291000BB600D4B1B681B692022134007D0FB686E
:10292000DA69FF231900084B1B680A401A63064B3B
:102930001B689A6C044B1B6820210A439A6400238D
:102940001800BD4604B080BD8805002080B586B063
:1029500000AFF860B9607A603B6000237B60BB68C1
:10296000002B3CD0FB681B6AFF221A40BB68DB6867
:102970001B021343BA68928B1343BA68D28B13437A
:10298000BA68128C1343BA68528C1343BA68928C9B
:102990001A43FB681B6A1B0AFF210B401B041A43E6
:1029A000BB681B691B061A43BB689B6A1A43BB685A
:1029B000DB6A1A43BB681B6B1A43BB685B6B1A4329
:1029C000BB689B6B13437B61154B1B681B69202203
:1029D000134017D0124B1B687A699A6312E0FB68A8
:1029E0001B6AFF221A40FB681B6A1B0413437B61AE
:1029F0000B4B1B681B692022134003D0084B1B683C
:102A00007A699A63064B1B689A6C054B1B682021F8
:102A10000A439A6400231800BD4606B080BDC04634
:102A20008805002080B584B000AFF860B9607A6096
:102A30003B600023BB6000237B600C4B1B681B6961
:102A40002022134004D0094B1B68FA68526A1A63AB
:102A5000064B1B689A6C054B1B6820210A439A643D
:102A600000231800BD4604B080BDC0468805002084
:102A700080B584B000AFF860B9607A607B689B0075
:102A8000BA68D318FA6812681A60C046BD4604B026
:102A900080BD80B584B000AFF860B9607A607B68B3
:102AA0009B00BA68D318FA6852681A60C046BD46DF
:102AB00004B080BD80B584B000AFF860B9607A60C2
:102AC0007B689B00BA68D318FA6892681A60C0469F
:102AD000BD4604B080BD80B584B000AFF860B96079
:102AE0007A607B689B00BA68D318FA68D2681A606B
:102AF000C046BD4604B080BD80B584B000AFF8606C
:102B0000B9607A607B689B00BA68D318FA6812696A
:102B10001A60C046BD4604B080BD80B584B000AF29
:102B2000F860B9607A607B689B00BA68D318FA686D
:102B300052691A60C046BD4604B080BD80B584B0FD
:102B400000AFF860B9607A607B689B00BA68D31800
:102B50001A68FB689A61C046BD4604B080BD80B566
:102B600084B000AFF860B9607A607B689B00BA6897
:102B7000D3181A68FB68DA61C046BD4604B080BD50
:102B800080B584B000AFF860B9607A607B689B0064
:102B9000BA68D3181A68FB681A62C046BD4604B00A
:102BA00080BD80B584B000AFF860B9607A607B68A2
:102BB0009B00BA68D3181A68FB685A62C046BD46C3
:102BC00004B080BD80B582B000AF7860044B1B6854
:102BD0001A687B681A6000231800BD4602B080BDE9
:102BE0008805002080B582B000AF7860064B1B6876
:102BF00019687B681A68044B1B680A431A60002333
:102C00001800BD4602B080BD8805002080B582B0A6
:102C100000AF7860074B1B681A687B681B68D94354
:102C2000044B1B680A401A6000231800BD4602B01E
:102C300080BDC0468805002080B582B000AF7860B6
:102C4000044B1B685A687B685A6000231800BD4615
:102C500002B080BD8805002080B582B000AF7860EA
:102C6000064B1B6859687B685A68044B1B680A430B
:102C70005A6000231800BD4602B080BD88050020C0
:102C800080B582B000AF7860074B1B685A687B68DC
:102C90005B68D943044B1B680A405A600023180044
:102CA000BD4602B080BDC0468805002080B582B018
:102CB00000AF7860044B1B689A687B689A600023B9
:102CC0001800BD4602B080BD8805002080B582B0E6
:102CD00000AF7860064B1B6899687B689A68044B64
:102CE0001B680A439A6000231800BD4602B080BDED
:102CF0008805002080B582B000AF7860074B1B6864
:102D00009A687B689B68D943044B1B680A409A60A9
:102D100000231800BD4602B080BDC04688050020D3
:102D200080B582B000AF7860044B1B681A697B687D
:102D3000DA6000231800BD4602B080BD880500207F
:102D400080B582B000AF7860064B1B68D9687B689D
:102D50001A69044B1B680A43DA6000231800BD4659
:102D600002B080BD8805002080B582B000AF7860D9
:102D7000074B1B68DA687B681B69D943044B1B68E7
:102D80000A40DA6000231800BD4602B080BDC0468C
:102D90008805002080B582B000AF7860044B1B68C6
:102DA0005A697B685A6100231800BD4602B080BD95
:102DB0008805002080B582B000AF7860064B1B68A4
:102DC00059697B685A69044B1B680A435A6100239E
:102DD0001800BD4602B080BD8805002080B582B0D5
:102DE00000AF7860074B1B685A697B685B69D94301
:102DF000044B1B680A405A6100231800BD4602B00C
:102E000080BDC0468805002080B582B000AF7860E4
:102E1000044B1B681A6C7B689A6100231800BD463E
:102E200002B080BD8805002080B582B000AF786018
:102E3000064B1B68596C7B689A69044B1B680A43F4
:102E40005A6400231800BD4602B080BD88050020EA
:102E500080B582B000AF7860074B1B685A6C7B6806
:102E60009B69D943044B1B680A405A64002318002D
:102E7000BD4602B080BDC0468805002080B582B046
:102E800000AF7860044B1B681A6D7B68DA61002321
:102E90001800BD4602B080BD8805002080B582B014
:102EA00000AF7860064B1B68196D7B68DA69044BCC
:102EB0001B680A431A6500231800BD4602B080BD96
:102EC0008805002080B582B000AF7860074B1B6892
:102ED0001A6D7B68DB69D943044B1B680A401A658D
:102EE00000231800BD4602B080BDC0468805002002
:102EF00080B582B000AF7860044B1B685A6D7B6868
:102F00001A6200231800BD4602B080BD880500206B
:102F100080B582B000AF7860064B1B68596D7B6846
:102F20001A6A044B1B680A435A6500231800BD4601
:102F300002B080BD8805002080B582B000AF786007
:102F4000074B1B685A6D7B681B6AD943044B1B688F
:102F50000A405A6500231800BD4602B080BDC04635
:102F60008805002080B582B000AF7860044B1B68F4
:102F70009A6D7B685A6200231800BD4602B080BD7E
:102F80008805002080B582B000AF7860064B1B68D2
:102F9000996D7B685A6A044B1B680A439A65002343
:102FA0001800BD4602B080BD8805002080B582B003
:102FB00000AF7860074B1B689A6D7B685B6AD943EA
:102FC000044B1B680A409A6500231800BD4602B0F6
:102FD00080BDC0468805002080B582B000AF786013
:102FE000044B1B68DA6D7B689A6200231800BD46AB
:102FF00002B080BD8805002080B582B000AF786047
:10300000064B1B68D96D7B689A6A044B1B680A43A0
:10301000DA6500231800BD4602B080BD8805002097
:1030200080B582B000AF7860074B1B68DA6D7B68B3
:103030009B6AD943044B1B680A40DA6500231800D9
:10304000BD4602B080BDC04688050020002310B5F3
:1030500001001A00180000F057F810BD084B10B519
:103060000400002B02D0002100F0A2F8054B1868E4
:10307000836A002B00D09847200000F0E7F8C04694
:10308000B13100001438000070B5074D074C641BC7
:10309000A410002C02D100F0E7F870BD013CA300A1
:1030A000EB589847F5E7C046F4060020F8060020E4
:1030B00070B500260C4D0D4C641BA410A64209D11E
:1030C000002600F0C5F80A4D0A4C641BA410A64265
:1030D00005D170BDB300EB5898470136EEE7B30059
:1030E000EB5898470136F2E7F0060020F006002082
:1030F000F0060020F406002003001218934200D1CD
:10310000704719700133F9E7F0B51700244A85B00C
:103110001468050001910293002C0AD1214B136021
:10312000214A1C00002A04D0190012688831039239
:103130000A6063681F2B03DD0120404205B0F0BD2B
:10314000002D24D026008836306800280ED1174B79
:10315000002BF1D00930FF3000E000BF0028EBD099
:1031600003000022FC335A609A60306001226168DB
:103170008A408B00C31880C3FC3041681143416012
:103180000299D967022D02D183681A43826063686D
:1031900000205A1C62600233019A9B001A51CDE74D
:1031A00060080020D407002000000000000000009C
:1031B000F7B50F000190244B1D68002D06D02B00A1
:1031C00088331E686B685C1E002C00DAF7BD002F88
:1031D00009D0002E01D1013CF6E73300A200803374
:1031E0009B58BB42F7D128006968A200083001391A
:1031F0008358A14219D16C60002BECD06968009112
:10320000002E08D0FC218C460120B4446146A04029
:10321000496801420CD198470B4B6A6800991B68BA
:103220008A42C8D19D42D6D0C5E700218150E3E74C
:10323000B15862469268024202D101989847EBE782
:1032400008009847E8E7C04660080020FEE7C0464F
:103250000DC0A0E1F8DF2DE904B04CE228D04BE22C
:10326000F06F9DE81EFF2FE10DC0A0E1F8DF2DE912
:1032700004B04CE228D04BE2F06F9DE81EFF2FE136
:1032800000C09FE51CFF2FE14D30000000C09FE50E
:103290001CFF2FE1B130000000C09FE51CFF2FE1B3
:1032A000F930000000C09FE51CFF2FE15D300000F9
:1032B00000C09FE51CFF2FE1051A00000000000080
:1032C00000000000000000000000000000000000FE
:1032D000503300005C3300006833000048340000C5
:1032E00074330000803300008C33000098330000FA
:1032F000A4330000B0330000BC330000C83300002A
:10330000D4330000E0330000EC330000F833000059
:10331000043400003C340000543400001034000039
:103320001C3400000000000000000000000000004D
:10333000000000000000000000000000000000008D
:10334000000000000000000000000000000000007D
:103350005502000081020000C1020000C10200000D
:10336000F10200003903000085030000B5030000EE
:10337000FD0300004904000079040000C1040000BE
:103380003D07000061070000910700000D050000E7
:10339000310500006105000095050000B905000039
:1033A000E90500001D060000410600007906000046
:1033B000AD060000D106000009070000C5070000A7
:1033C000E9070000190800003D080000610800003E
:1033D00091080000C5080000E90800001909000074
:1033E0004D0900007109000095090000BD090000A9
:1033F000E1090000110A0000410A0000650A00000E
:10340000950A0000C50A0000E90A0000190B000037
:103410000000000000000000490B0000650B0000E8
:1034200000000000000000003C34000048340000B0
:1034300054340000AD0C0000CF0C0000890B0000DC
:103440000000000000000000E90B0000190C000063
:10345000610C00000000000000000000B90B00003B
:1034600094050020A0050020AC050020B805002030
:10347000C4050020D0050020D0050020DC05002078
:10348000E8050020F4050020000600200C060020BE
:103490001806002024060020300600203C060020EC
:1034A0004806002054060020600600206C0600201C
:1034B00078060020840600200000000000000000C4
:1034C00000000000000000000000000000000000FC
:1034D00000000000000000000000000000000000EC
:1034E000603500006C350000783500008435000040
:1034F000903500009C350000A8350000B435000070
:10350000C0350000CC350000D8350000E43500009F
:10351000F0350000FC3500000836000014360000CD
:10352000203600002C3600003836000044360000FB
:10353000503600005C36000068360000743600002B
:10354000803600008C360000983600000000000035
:10355000000000000000000000000000000000006B
:10356000491A0000691A0000911A0000BD1A0000F3
:10357000DD1A0000051B0000311B0000511B00007C
:10358000791B0000A51B0000C51B0000ED1B0000FF
:10359000191C0000391C0000611C00008D1C00007B
:1035A000AD1C0000D51C0000011D0000211D000005
:1035B000491D0000751D0000951D0000BD1D000087
:1035C00000000000E91D00000000000000000000F5
:1035D000111E000000000000391E0000591E0000EE
:1035E000811E0000AD1E0000000000000000000071
:1035F000CD1E0000000000000000000000000000E0
:10360000ED1E0000000000000000000000000000AF
:10361000151F0000411F0000611F0000891F0000EE
:10362000B51F0000D51F0000FD1F0000292000006D
:1036300049200000712000009D20000000000000D3
:1036400000000000BD200000DD200000052100007A
:10365000312100005121000079210000A521000046
:10366000C5210000ED2100001922000039220000D0
:10367000612200008D220000AD220000D522000052
:1036800001230000212300004923000075230000CE
:1036900099230000C5230000F52300001924000031
:1036A00045240000CC360000D4360000DC36000093
:1036B000E4360000C4360000C8360000EC360000D6
:1036C000043700005D2500003D2700007524000040
:1036D0003528000011250000FD280000F925000014
:1036E0004D290000F1260000252A0000712A000063
:1036F000932A0000B52A0000D72A0000F92A00000A
:103700001B2B00003D2B00005F2B0000812B0000D5
:10371000A32B000000000000000000009C37000008
:10372000A8370000B4370000C0370000CC370000D5
:10373000D8370000E4370000F0370000FC37000005
:103740000838000000000000000000000000000039
:103750000000000000000000000000000000000069
:103760000000000000000000000000000000000059
:103770000000000000000000000000000000000049
:103780000000000000000000000000000000000039
:10379000000000000000000000000000C52B000039
:1037A000E52B00000D2C0000392C0000592C0000E6
:1037B000812C0000AD2C0000CD2C0000F52C000069
:1037C000212D0000412D0000692D0000952D0000E5
:1037D000B52D0000DD2D0000092E0000292E00006F
:1037E000512E00007D2E00009D2E0000C52E0000F1
:1037F000F12E0000112F0000392F0000652F00006E
:10380000852F0000AD2F0000D92F0000F92F0000F8
:0C381000213000009006002000000000A5
:08381C00E4C8FF7F0100000079
:10382400000000000000000000010000000400008F
:103834000000000000000000000000000000000084
:103844000100000001000000000000000000000072
:103854000000000000000000000000000000000064
:1038640000000000890000000000000000000000CB
:103874000000000000000000000000000000000044
:103884000000000000000000000000000000000034
:103894000000000000000000000000000000000024
:1038A4000000000000000000000000000000000014
:1038B4000000000000000000000000000000000004
:1038C40000000000000000000000000000000000F4
:1038D40000000000000000008D1000000000000047
:1038E4000000000000000000F10C000000000000D7
:1038F400591100000000000000000000000000005A
:1039040000000000000000000000000000000000B3
:10391400BD0E0000000000000000000000000000D8
:10392400000000000000000000000000E50D0000A1
:103934000000000000000000000000000000000083
:103944000000000000000000000000000000000073
:1039540000000000750F00001910000000000000B6
:103964000000000011110000000000000000000031
:10397400000000009D0D000000000000C5110000C3
:103984000000000000000000000000000000000033
:103994000000000000000000000000002D0F0000E7
:1039A4006408002014070020080900204C070020A8
:1039B4009C0800208C0800208C07002000000020B8
:1039C400AC0800200000000000000000000000001F
:1039D40000000000000000000000000000000000E3
:1039E40000000000000000000000000000000000D3
:1039F40000000000000000000000000000000000C3
:103A040000000000000000000000000000000000B2
:103DA4000000000000800C4000C40040006000409F
:103DB40000000140111200003112000059120000ED
:103DC400000000008512000000000000AD12000099
:103DD4000000000000000000CD120000ED12000001
:103DE4001513000041130000611300008913000043
:103DF400B5130000D5130000FD13000029140000C2
:103E040049140000711400009D140000BD1400004A
:103E1400E5140000111500003115000059150000CB
:103E240085150000A5150000CD150000F91500004A
:103E34001916000041160000991900000000000046
:103E4400000000006D1600008D160000B51600007D
:103E5400E1160000011700002917000055170000A3
:103E6400751700009D170000B9190000000000003C
:103E740000000000C9170000E91700001118000035
:103E84003D1800005D18000085180000B1180000FE
:103E9400D1180000F9180000D91900000000000032
:103EA4000000000025190000451900006D190000EC
:103EB40000000000000000000000000000000000FE
:103EC40000000000000000000000000000000000EE
:103ED40000000000000000000000000000000000DE
:103EE40000000000000000000000000000000000CE
:103EF40000000000000000000000000000000000BE
:103F040000000000000000000000000000000000AD
:083F1400D00000008C00000049
:0400000300000205F2
:00000001FF
