:100000000010002005020000310200003102000053
:100010003102000031020000310200003102000014
:100020003102000031020000310200003102000004
:1000300031020000310200003102000031020000F4
:1000400031020000310200003102000031020000E4
:1000500031020000310200003102000031020000D4
:1000600031020000310200003102000031020000C4
:1000700031020000310200003102000031020000B4
:1000800031020000310200003102000030309FE5F3
:100090000020D3E5000052E31EFF2F1110402DE990
:1000A0000340A0E11C309FE5000053E318009F15BA
:1000B00000F020130130A0E30030C4E51040BDE89B
:1000C0001EFF2FE17C0500200000000068110000E9
:1000D0001C309FE5000053E31EFF2F0110402DE967
:1000E00010109FE510009FE500F020E31040BDE8F0
:1000F0001EFF2FE1000000008005002068110000B5
:10010000E4309FE5000053E3D8309F0503D0A0E121
:1001100000200FE10F0012E31500000AD1F021E3E7
:1001200003D0A0E101AA4DE20A30A0E1D7F021E31B
:1001300003D0A0E1013A43E2DBF021E303D0A0E1E8
:10014000013A43E2D2F021E303D0A0E1023A43E2D4
:10015000D3F021E303D0A0E1023943E2FF30C3E34F
:10016000FF3CC3E3043003E5002053E9C02082E3F1
:1001700002F021E101A843E20010B0E301B0A0E1E8
:100180000170A0E16C009FE56C209FE5002052E02B
:10019000710300EB54309FE5000053E30100000AB7
:1001A0000FE0A0E103F0A0E144309FE5000053E33D
:1001B0000100000A0FE0A0E103F0A0E10000B0E3BD
:1001C0000010B0E30040B0E10150B0E12C009FE529
:1001D0005E0300EB660300EB0400B0E10510B0E144
:1001E000600300EB650300EB000008000010002036
:1001F00000000000000000007C0500200C0800202A
:10020000590D0000064880470649074A074B9B1ACC
:1002100003DD043BC858D050FBDCFFF771FF000042
:100220009D02000074110000000000207C050020E9
:10023000FEE7C04680B584B000AFF860B9607A6070
:10024000B968FA687B681000984703001800BD463B
:1002500004B080BD80B586B000AF786039607B683F
:100260007B617A6994235B00D3583B617B69094ABF
:100270009A58094B9200D2583B689B00D3181B68D0
:10028000FB603A69FB681000984703001800BD4600
:1002900006B080BD0C050000A00F00007047C046EE
:1002A00080B500AFC046BD4680BD000080B584B0BB
:1002B00000AFFFF7F5FF0123FB600B4A94235B00BF
:1002C000D358BB60BB68FA681A62074B074A08211B
:1002D0009950054BD0229B587B607A68024B0121D4
:1002E0001800FFF7A7FFFEE7000000200C05000044
:1002F00080B582B000AF7860044B1B681A687B68D9
:100300001A6000231800BD4602B080BD1005002011
:1003100080B582B000AF7860064B1B6819687B68B7
:100320001A68044B1B680A431A6000231800BD4674
:1003300002B080BD1005002080B582B000AF7860AB
:10034000074B1B681A687B681B68D943044B1B6802
:100350000A401A6000231800BD4602B080BDC046A6
:100360001005002080B582B000AF7860044B1B6898
:100370005A687B685A6000231800BD4602B080BDF1
:100380001005002080B582B000AF7860064B1B6876
:1003900059687B685A68044B1B680A435A600023FB
:1003A0001800BD4602B080BD1005002080B582B0A7
:1003B00000AF7860074B1B685A687B685B68D9435D
:1003C000044B1B680A405A6000231800BD4602B067
:1003D00080BDC0461005002080B582B000AF7860B7
:1003E000044B1B689A687B689A6000231800BD461E
:1003F00002B080BD1005002080B582B000AF7860EB
:10040000064B1B6899687B689A68044B1B680A4313
:100410009A6000231800BD4602B080BD1005002080
:1004200080B582B000AF7860074B1B689A687B6824
:100430009B68D943044B1B680A409A60002318004C
:10044000BD4602B080BDC0461005002080B582B018
:1004500000AF7860044B1B68DA687B68DA600023C1
:100460001800BD4602B080BD1005002080B582B0E6
:1004700000AF7860064B1B68D9687B68DA68044B6C
:100480001B680A43DA6000231800BD4602B080BD35
:100490001005002080B582B000AF7860074B1B6864
:1004A000DA687B68DB68D943044B1B680A40DA6072
:1004B00000231800BD4602B080BDC04610050020D4
:1004C00080B582B000AF7860044B1B681A697B6806
:1004D0001A6100231800BD4602B080BD100500203F
:1004E00080B582B000AF7860064B1B6819697B68E5
:1004F0001A69044B1B680A431A6100231800BD46A1
:1005000002B080BD1005002080B582B000AF7860D9
:10051000074B1B6819697B681B69DA43044B1B682E
:100520000A431A6100231800BD4602B080BDC046D0
:100530001005002080B582B000AF7860044B1B68C6
:100540005A697B685A6100231800BD4602B080BD1D
:100550001005002080B582B000AF7860064B1B68A4
:1005600059697B685A69044B1B680A435A61002326
:100570001800BD4602B080BD1005002080B582B0D5
:1005800000AF7860074B1B685A697B685B69D94389
:10059000044B1B680A405A6100231800BD4602B094
:1005A00080BDC0461005002080B582B000AF7860E5
:1005B000044B1B689A697B689A6100231800BD464A
:1005C00002B080BD1005002080B582B000AF786019
:1005D000064B1B6899697B689A69044B1B680A4340
:1005E0009A6100231800BD4602B080BD10050020AE
:1005F00080B582B000AF7860074B1B689A697B6852
:100600009B69D943044B1B680A409A610023180078
:10061000BD4602B080BDC0461005002080B582B046
:1006200000AF7860044B1B68DA697B68DA610023ED
:100630001800BD4602B080BD1005002080B582B014
:1006400000AF7860064B1B68D9697B68DA69044B98
:100650001B680A43DA6100231800BD4602B080BD62
:100660001005002080B582B000AF7860074B1B6892
:10067000DA697B68DB69D943044B1B680A40DA619D
:1006800000231800BD4602B080BDC0461005002002
:1006900080B582B000AF7860064B1B68196A7B6832
:1006A0001A6A044B1B680A431A6200231800BD46ED
:1006B00002B080BD1005002080B582B000AF786028
:1006C000064B1B68596A7B685A6A044B1B680A43CD
:1006D0005A6200231800BD4602B080BD10050020FC
:1006E00080B582B000AF7860044B1B689A6A7B6863
:1006F0009A6200231800BD4602B080BD100500209C
:1007000080B582B000AF7860064B1B68996A7B6841
:100710009A6A044B1B680A439A6200231800BD467C
:1007200002B080BD1005002080B582B000AF7860B7
:10073000074B1B689A6A7B689B6AD943044B1B680A
:100740000A409A6200231800BD4602B080BDC04630
:100750001005002080B582B000AF7860044B1B68A4
:10076000DA6A7B68DA6200231800BD4602B080BDF9
:100770001005002080B582B000AF7860044B1B6884
:100780001A6B7B681A6300231800BD4602B080BD57
:100790001005002080B582B000AF7860064B1B6862
:1007A000596B7B685A6B044B1B680A435A630023DE
:1007B0001800BD4602B080BD1005002080B582B093
:1007C00000AF7860074B1B689A6B7B689B6BD943C3
:1007D000044B1B680A409A6300231800BD4602B010
:1007E00080BDC0461005002080B582B000AF7860A3
:1007F000044B1B68DA6B7B68DA6300231800BD4684
:1008000002B080BD1005002080B582B000AF7860D6
:10081000064B1B68D96B7B68DA6B044B1B680A4379
:10082000DA6300231800BD4602B080BD1005002029
:1008300080B582B000AF7860074B1B68DA6B7B68CD
:10084000DB6BD943044B1B680A40DA6300231800B2
:10085000BD4602B080BDC0461005002080B582B004
:1008600000AF7860044B1B681A6C7B681A64002325
:100870001800BD4602B080BD1005002080B582B0D2
:1008800000AF7860064B1B68196C7B681A6C044BD0
:100890001B680A431A6400231800BD4602B080BDDD
:1008A0001005002080B582B000AF7860074B1B6850
:1008B0001A6C7B681B6CD943044B1B680A401A6492
:1008C00000231800BD4602B080BDC04610050020C0
:1008D00080B582B000AF7860044B1B685A6C7B68AF
:1008E0005A6400231800BD4602B080BD10050020E8
:1008F00080B582B000AF7860064B1B68596C7B688E
:100900005A6C044B1B680A435A6400231800BD4606
:1009100002B080BD1005002080B582B000AF7860C5
:10092000074B1B685A6C7B685B6CD943044B1B6894
:100930000A405A6400231800BD4602B080BDC0467C
:100940001005002080B582B000AF7860044B1B68B2
:100950001A6D7B689A6400231800BD4602B080BD02
:100960001005002080B582B000AF7860044B1B6892
:100970005A6D7B68DA6400231800BD4602B080BD62
:100980001005002080B582B000AF7860064B1B6870
:10099000596D7B68DA6C044B1B680A435A65002367
:1009A0001800BD4602B080BD1005002080B582B0A1
:1009B00000AF7860074B1B685A6D7B68DB6CD943CE
:1009C000044B1B680A405A6500231800BD4602B05C
:1009D00080BDC0461005002080B582B000AF7860B1
:1009E000044B1B689A6D7B681A6500231800BD468E
:1009F00002B080BD1005002080B582B000AF7860E5
:100A0000064B1B68996D7B681A6D044B1B680A4383
:100A10009A6500231800BD4602B080BD1005002075
:100A200080B582B000AF7860074B1B689A6D7B6819
:100A30001B6DD943044B1B680A409A6500231800BC
:100A4000BD4602B080BDC0461005002080B582B012
:100A500000AF7860044B1B681A6E7B685A650023F0
:100A60001800BD4602B080BD1005002080B582B0E0
:100A700000AF7860064B1B68196E7B685A6D044B9B
:100A80001B680A431A6600231800BD4602B080BDE9
:100A90001005002080B582B000AF7860074B1B685E
:100AA0001A6E7B685B6DD943044B1B680A401A665B
:100AB00000231800BD4602B080BDC04610050020CE
:100AC00080B582B000AF7860044B1B689A6E7B687B
:100AD0009A6500231800BD4602B080BD10050020B5
:100AE00080B582B000AF7860064B1B68996E7B685A
:100AF0009A6D044B1B680A439A6600231800BD4692
:100B000002B080BD1005002080B582B000AF7860D3
:100B1000074B1B689A6E7B689B6DD943044B1B681F
:100B20000A409A6600231800BD4602B080BDC04648
:100B30001005002080B582B000AF7860044B1B68C0
:100B40001A6F7B68DA6500231800BD4602B080BDCD
:100B50001005002080B582B000AF7860064B1B689E
:100B6000196F7B68DA6D044B1B680A431A67002310
:100B70001800BD4602B080BD1005002080B582B0CF
:100B800000AF7860074B1B681A6F7B68DB6DD94339
:100B9000044B1B680A401A6700231800BD4602B0C8
:100BA00080BDC0461005002080B582B000AF7860DF
:100BB000044B1B689A6F7B681A6600231800BD46B9
:100BC00002B080BD1005002080B582B000AF786013
:100BD000064B1B68996F7B681A6E044B1B680A43AF
:100BE0009A6700231800BD4602B080BD10050020A2
:100BF00080B582B000AF7860074B1B689A6F7B6846
:100C00001B6ED943044B1B680A409A6700231800E7
:100C1000BD4602B080BDC0461005002080B582B040
:100C200000AF7860054B1B6880229A587B685A6633
:100C300000231800BD4602B080BDC046100500204C
:100C400080B582B000AF7860074B1B68802299584E
:100C50007B685A6E044B1B680A4380215A5000235C
:100C60001800BD4602B080BD1005002080B582B0DE
:100C700000AF7860084B1B6880229A587B685B6ED7
:100C8000D943054B1B680A4080215A5000231800A5
:100C9000BD4602B080BDC0461005002080B582B0C0
:100CA00000AF7860054B1B6884229A587B689A666F
:100CB00000231800BD4602B080BDC04610050020CC
:100CC00080B582B000AF7860074B1B6884229958CA
:100CD0007B689A6E044B1B680A4384215A50002398
:100CE0001800BD4602B080BD1005002080B582B05E
:100CF00000AF7860084B1B6884229A587B689B6E13
:100D0000D943054B1B680A4084215A500023180020
:100D1000BD4602B080BDC04610050020002310B5BE
:100D200001001A00180000F057F810BD084B10B56C
:100D30000400002B02D0002100F0A2F8054B186837
:100D4000836A002B00D09847200000F0E7F8C046E7
:100D5000810E00006411000070B5074D074C641B44
:100D6000A410002C02D100F0E7F870BD013CA300F4
:100D7000EB589847F5E7C046780500207C05002031
:100D800070B500260C4D0D4C641BA410A64209D171
:100D9000002600F0C5F80A4D0A4C641BA410A642B8
:100DA00005D170BDB300EB5898470136EEE7B300AC
:100DB000EB5898470136F2E77405002074050020CF
:100DC000740500207805002003001218934200D11A
:100DD000704719700133F9E7F0B51700244A85B060
:100DE0001468050001910293002C0AD1214B136075
:100DF000214A1C00002A04D019001268883103928D
:100E00000A6063681F2B03DD0120404205B0F0BD7E
:100E1000002D24D026008836306800280ED1174BCC
:100E2000002BF1D00930FF3000E000BF0028EBD0EC
:100E300003000022FC335A609A603060012261682E
:100E40008A408B00C31880C3FC3041681143416065
:100E50000299D967022D02D183681A4382606368C0
:100E600000205A1C62600233019A9B001A51CDE7A0
:100E7000240600209805002000000000000000006B
:100E8000F7B50F000190244B1D68002D06D02B00F4
:100E900088331E686B685C1E002C00DAF7BD002FDB
:100EA00009D0002E01D1013CF6E73300A2008033C7
:100EB0009B58BB42F7D128006968A200083001396D
:100EC0008358A14219D16C60002BECD06968009165
:100ED000002E08D0FC218C460120B4446146A0407D
:100EE000496801420CD198470B4B6A6800991B680E
:100EF0008A42C8D19D42D6D0C5E700218150E3E7A0
:100F0000B15862469268024202D101989847EBE7D5
:100F100008009847E8E7C04624060020FEE7C046E0
:100F20000DC0A0E1F8DF2DE904B04CE228D04BE27F
:100F3000F06F9DE81EFF2FE10DC0A0E1F8DF2DE965
:100F400004B04CE228D04BE2F06F9DE81EFF2FE189
:100F500000C09FE51CFF2FE11D0D000000C09FE5B4
:100F60001CFF2FE1C90D000000C09FE51CFF2FE111
:100F7000AD02000000C09FE51CFF2FE1810D0000C5
:100F800000C09FE51CFF2FE12D0D000000000000B8
:100F90000000000000000000000000000000000051
:100FA000201000002C100000381000004410000039
:100FB000501000005C100000681000007410000069
:100FC000801000008C10000098100000A410000099
:100FD000B0100000BC100000C8100000D4100000C9
:100FE000E0100000EC100000F810000004110000F8
:100FF000101100001C110000281100003411000025
:10100000401100004C1100005811000000000000C9
:1010100000000000000000000000000000000000D0
:10102000F102000011030000390300006503000015
:1010300085030000AD030000D9030000F9030000A0
:10104000210400004D0400006D0400009504000020
:10105000C1040000E104000009050000350500009E
:10106000550500007D050000A9050000C905000028
:10107000F10500001D0600003D06000065060000A9
:1010800000000000910600000000000000000000C9
:10109000B906000000000000E106000001070000A2
:1010A00029070000550700000000000000000000B4
:1010B00075070000000000000000000000000000B4
:1010C0009507000000000000000000000000000084
:1010D000BD070000E9070000090800003108000012
:1010E0005D0800007D080000A5080000D108000090
:1010F000F108000019090000450900000000000087
:10110000000000006509000085090000AD0900002D
:10111000D9090000F9090000210A00004D0A000069
:101120006D0A0000950A0000C10A0000E10A0000F3
:10113000090B0000350B0000550B00007D0B000073
:10114000A90B0000C90B0000F10B00001D0C0000F2
:10115000410C00006D0C00009D0C0000C10C000053
:0C116000ED0C0000140500200000000051
:08116C0094EFFF7F0100000079
:10117400000000000000000000000000000000006B
:10118400000000000000000000000000000000005B
:10119400000000000000000000000000000000004B
:1011A400000000000000000000000000000000003B
:1011B400000000000000000000000000000000002B
:1011C400000000000000000000000000000000001B
:1011D400000000000000000000000000000000000B
:1011E40000000000000000000000000000000000FB
:1011F40000000000000000000000000000000000EB
:1012040000000000000000000000000000000000DA
:1012140000000000000000000000000000000000CA
:1012240000000000000000000000000000000000BA
:1012340000000000000000000000000000000000AA
:101244005502000000000000000000000000000043
:10125400000000000000000000000000000000008A
:10126400000000000000000000000000000000007A
:1012740000000000000000000000000058070020EB
:1012840068060020FC0700202806002090070020A4
:1012940080070020A0060020E8060020A007002008
:1012A400000000000000000000000000000000003A
:1012B400000000000000000000000000000000002A
:1012C400000000000000000000000000000000001A
:1012D400000000000000000000000000000000000A
:1016840000800C400000000000000000000000008A
:101694000000000000000000000000000000000046
:1016A4000000000000000000000000000000000036
:1016B4000000000000000000000000000000000026
:1016C4000000000000000000000000000000000016
:1016D4000000000000000000000000000000000006
:0C16E40000000000D00000008C0000009E
:0400000300000205F2
:00000001FF
