:100000000010002005020000310200003102000053
:100010003102000031020000310200003102000014
:100020003102000031020000310200003102000004
:1000300031020000310200003102000031020000F4
:1000400031020000310200003102000031020000E4
:1000500031020000310200003102000031020000D4
:1000600031020000310200003102000031020000C4
:1000700031020000310200003102000031020000B4
:1000800031020000310200003102000030309FE5F3
:100090000020D3E5000052E31EFF2F1110402DE990
:1000A0000340A0E11C309FE5000053E318009F15BA
:1000B00000F020130130A0E30030C4E51040BDE89B
:1000C0001EFF2FE16800002000000000E404000093
:1000D0001C309FE5000053E31EFF2F0110402DE967
:1000E00010109FE510009FE500F020E31040BDE8F0
:1000F0001EFF2FE1000000006C000020E40400005F
:10010000E4309FE5000053E3D8309F0503D0A0E121
:1001100000200FE10F0012E31500000AD1F021E3E7
:1001200003D0A0E101AA4DE20A30A0E1D7F021E31B
:1001300003D0A0E1013A43E2DBF021E303D0A0E1E8
:10014000013A43E2D2F021E303D0A0E1023A43E2D4
:10015000D3F021E303D0A0E1023943E2FF30C3E34F
:10016000FF3CC3E3043003E5002053E9C02082E3F1
:1001700002F021E101A843E20010B0E301B0A0E1E8
:100180000170A0E16C009FE56C209FE5002052E02B
:10019000C40000EB54309FE5000053E30100000A67
:1001A0000FE0A0E103F0A0E144309FE5000053E33D
:1001B0000100000A0FE0A0E103F0A0E10000B0E3BD
:1001C0000010B0E30040B0E10150B0E12C009FE529
:1001D000B70000EBB00000EB0400B0E10510B0E1A7
:1001E000AA0000EBB50000EB0000080000100020A2
:1001F0000000000000000000680000201401002042
:1002000095020000064880470649074A074B9B1A9B
:1002100003DD043BC858D050FBDCFFF771FF000042
:1002200055020000F00400000000002068000020DB
:10023000FEE7C04680B500AFC046BD4680BD0000A9
:1002400080B5034FBD4400AFFFF7F4FFFEE7C046A3
:10025000C0DFFFFF7047C046002310B501001A0041
:10026000180000F057F810BD084B10B50400002B23
:1002700002D0002100F0A2F8054B1868836A002B19
:1002800000D09847200000F0E7F8C046BD0300000A
:10029000E004000070B5074D074C641BA410002C4F
:1002A00002D100F0E7F870BD013CA300EB5898477D
:1002B000F5E7C046640000206800002070B5002605
:1002C0000C4D0D4C641BA410A64209D1002600F071
:1002D000C5F80A4D0A4C641BA410A64205D170BD96
:1002E000B300EB5898470136EEE7B300EB58984758
:1002F0000136F2E76000002060000020600000206E
:100300006400002003001218934200D17047197056
:100310000133F9E7F0B51700244A85B014680500E9
:1003200001910293002C0AD1214B1360214A1C0039
:10033000002A04D019001268883103920A606368A9
:100340001F2B03DD0120404205B0F0BD002D24D05D
:1003500026008836306800280ED1174B002BF1D0CC
:100360000930FF3000E000BF0028EBD0030000227E
:10037000FC335A609A603060012261688A408B00C9
:10038000C31880C3FC304168114341600299D967AA
:10039000022D02D183681A438260636800205A1CD0
:1003A00062600233019A9B001A51CDE710010020D0
:1003B000840000200000000000000000F7B50F00DE
:1003C0000190244B1D68002D06D02B0088331E6839
:1003D0006B685C1E002C00DAF7BD002F09D0002EE0
:1003E00001D1013CF6E73300A20080339B58BB42A9
:1003F000F7D128006968A200083001398358A1426A
:1004000019D16C60002BECD069680091002E08D0E7
:10041000FC218C460120B4446146A0404968014259
:100420000CD198470B4B6A6800991B688A42C8D167
:100430009D42D6D0C5E700218150E3E7B15862461E
:100440009268024202D101989847EBE7080098476A
:10045000E8E7C04610010020FEE7C0460DC0A0E15D
:10046000F8DF2DE904B04CE228D04BE2F06F9DE8B4
:100470001EFF2FE10DC0A0E1F8DF2DE904B04CE232
:1004800028D04BE2F06F9DE81EFF2FE10000000036
:1004900000C09FE51CFF2FE14102000000C09FE566
:1004A0001CFF2FE1BD02000000C09FE51CFF2FE1F3
:1004B0000503000000C09FE51CFF2FE1590200006A
:1004C00000C09FE51CFF2FE1690200000000000052
:1004D000000000000000000000000000000000001C
:0804E0000000002000000000F4
:0804E80018FCFF7F0100000079
:1004F00000000000000000000000000000000000FC
:1005000000000000000000000000000000000000EB
:1005100000000000000000000000000000000000DB
:1005200000000000000000000000000000000000CB
:1005300000000000000000000000000000000000BB
:1005400000000000000000000000000000000000AB
:08055000D00000008C00000047
:0400000300000205F2
:00000001FF
