:1000000000100020410100006D0100006D010000A2
:100010006D0100006D0100006D0100006D01000028
:100020006D0100006D0100006D0100006D01000018
:100030006D0100006D0100006D0100006D01000008
:100040006D0100006D010000652D00006D010000D4
:100050006D0100006D0100006D0100006D010000E8
:100060006D0100006D0100006D0100006D010000D8
:100070006D0100006D0100006D0100006D010000C8
:100080006D0100006D0100006D01000010B5064C0F
:100090002378002B07D1054B002B02D0044800E049
:1000A00000BF0123237010BDD40700200000000012
:1000B00044390000044B10B5002B03D00349044819
:1000C00000E000BF10BDC04600000000D8070020BF
:1000D00044390000144B002B00D1124B9D464022A6
:1000E00092029A1A924600218B460F461148124AF4
:1000F000121A03F009F90D4B002B00D098470C4B56
:10010000002B00D098470020002104000D000B4870
:1001100003F0A4F803F0D4F82000290001F026FC35
:1001200003F0A4F800000800001000200000000008
:1001300000000000D407002034090020993200009C
:10014000064880470649074A074B9B1A03DD043BD4
:10015000C858D050FBDCFFF7BDFF0000C111000004
:100160005039000000000020D4070020FEE7C04600
:1001700080B584B000AF7860396000237B600C4BA1
:10018000FB600C4B00221A80FB6801225A60C046BB
:10019000084B1B889BB21A003B689342F8D8FB6857
:1001A00002225A6000231800BD4604B080BDC0463C
:1001B00000000140E408002080B584B000AFF86082
:1001C000B9607A60B968FA687B68100098470300E4
:1001D0001800BD4604B080BD80B584B000AFF860A3
:1001E000B9607A60B968FA687B68100098470300C4
:1001F0001800BD4604B080BD80B582B000AF786005
:100200000A4B19687B6884229A587B6884201858A6
:100210001300DB009B189B0059587B680201D150EA
:1002200000231800BD4602B080BDC046A4060020D1
:1002300090B583B000AF78600F4B19687B6884225B
:100240009A581300DB009B189B005C587B68842243
:100250009A587B681201D058074B19687B68842232
:100260009A5820431300DB009B189B005850002332
:100270001800BD4603B090BDA406002080B582B032
:1002800000AF78600C4B19687B6884229A587B68B1
:10029000842018581300DB009B189B00CB180433F4
:1002A0001A6879680301CB1804331A600023180018
:1002B000BD4602B080BDC046A406002090B583B004
:1002C00000AF7860124B19687B6884229A5813003B
:1002D000DB009B189B00CB1804331C687B688422CE
:1002E0009B587A681B01D31804331968084B1868A7
:1002F0007B6884229A5821431300DB009B189B00E3
:10030000C3180433196000231800BD4603B090BD24
:10031000A406002090B583B000AF7860134B196835
:100320007B6884229A581300DB009B189B00CB1833
:10033000043319687B6884229B587A681B01D318A0
:1003400004331B68DC43094B18687B6884229A5885
:1003500021401300DB009B189B00C3180433196075
:1003600000231800BD4603B090BDC046A40600207F
:1003700080B582B000AF78600C4B19687B6884222E
:100380009A587B68842018581300DB009B189B0048
:10039000CB1808331A6879680301CB1808331A6040
:1003A00000231800BD4602B080BDC046A406002050
:1003B00090B583B000AF7860124B19687B688422D7
:1003C0009A581300DB009B189B00CB1808331C685D
:1003D0007B6884229B587A681B01D31808331968FC
:1003E000084B18687B6884229A5821431300DB006D
:1003F0009B189B00C3180833196000231800BD46E2
:1004000003B090BDA406002090B583B000AF786023
:10041000134B19687B6884229A581300DB009B18E1
:100420009B00CB18083319687B6884229B587A6834
:100430001B01D31808331B68DC43094B18687B6821
:1004400084229A5821401300DB009B189B00C3189C
:100450000833196000231800BD4603B090BDC046A4
:10046000A406002080B582B000AF78600C4B1968FC
:100470007B6884229A587B68842018581300DB001C
:100480009B189B00CB1820331A6879680301CB189E
:100490000C331A6000231800BD4602B080BDC04670
:1004A000A406002090B583B000AF7860124B1968A5
:1004B0007B6884229A581300DB009B189B00CB18A2
:1004C00020331C687B6884229B587A681B01D318F0
:1004D0000C331968084B18687B6884229A582143AA
:1004E0001300DB009B189B00C31820331960002306
:1004F0001800BD4603B090BDA406002090B583B09F
:1005000000AF7860134B19687B6884229A581300F7
:10051000DB009B189B00CB18203319687B68842272
:100520009B587A681B01D3180C331B68DC43094BBA
:1005300018687B6884229A5821401300DB009B18BE
:100540009B00C3182033196000231800BD4603B078
:1005500090BDC046A406002080B582B000AF786090
:10056000054B1A6880235B00D2587B681A6500230C
:100570001800BD4602B080BDA406002080B582B040
:1005800000AF7860084B1A6880235B00D0587B6806
:10059000196D054B1A68014380235B00D15000237D
:1005A0001800BD4602B080BDA406002080B582B010
:1005B00000AF7860094B1A6880235B00D1587B68D4
:1005C0001B6DD843054B1A68014080235B00D15056
:1005D00000231800BD4602B080BDC046A40600201E
:1005E00080B582B000AF7860054B1A6880235B004D
:1005F000D2587B685A6500231800BD4602B080BD02
:10060000A406002080B582B000AF7860084B1A685D
:1006100082235B00D0587B68596D054B1A680143F3
:1006200082235B00D15000231800BD4602B080BD7C
:10063000A406002080B582B000AF7860094B1A682C
:1006400082235B00D1587B685B6DD843054B1A68E9
:10065000014082235B00D15000231800BD4602B048
:1006600080BDC046A406002080B582B000AF78608F
:10067000054B1A6884235B00D2587B689A65002377
:100680001800BD4602B080BDA406002080B582B02F
:1006900000AF78600A4B1A6884235B00D0587B68EF
:1006A000996D074B1A68014384235B00D1507B6826
:1006B000180000F04FF800231800BD4602B080BDBE
:1006C000A406002080B582B000AF7860094B1A689C
:1006D00084235B00D1587B689B6DD843054B1A6817
:1006E000014084235B00D15000231800BD4602B0B6
:1006F00080BDC046A406002080B582B000AF7860FF
:10070000054B1A6884235B00D2587B68DA650023A6
:100710001800BD4602B080BDA406002080B582B09E
:1007200000AF78600A4B1A6886235B00D0587B685C
:10073000D96D074B1A68014386235B00D1507B6853
:100740001800FFF7BFFF00231800BD4602B080BDB0
:10075000A406002080B582B000AF7860094B1A680B
:1007600086235B00D1587B68DB6DD843054B1A6844
:10077000014086235B00D15000231800BD4602B023
:1007800080BDC046A406002080B582B000AF78606E
:10079000054B1A6888235B00D2587B681A660023D1
:1007A0001800BD4602B080BDA406002080B582B00E
:1007B00000AF7860084B1A6888235B00D0587B68CC
:1007C000196E054B1A68014388235B00D150002342
:1007D0001800BD4602B080BDA406002080B582B0DE
:1007E00000AF7860094B1A6888235B00D1587B689A
:1007F0001B6ED843054B1A68014088235B00D1501B
:1008000000231800BD4602B080BDC046A4060020EB
:1008100080B582B000AF7860054B1A688A235B0010
:10082000D2587B685A6600231800BD4602B080BDCE
:10083000A406002080B582B000AF7860084B1A682B
:100840008C235B00D0587B68596E054B1A680143B6
:100850008C235B00D15000231800BD4602B080BD40
:10086000A406002080B582B000AF7860054B1A68FE
:100870007B68596E8E235B00D15000231800BD4663
:1008800002B080BDA406002080B582B000AF7860C1
:10089000054B1A6890235B00D2587B689A66002348
:1008A0001800BD4602B080BDA406002080B582B00D
:1008B00000AF7860084B1A6890235B00D0587B68C3
:1008C000996E054B1A68014390235B00D1500023B9
:1008D0001800BD4602B080BDA406002080B582B0DD
:1008E00000AF7860094B1A6890235B00D1587B6891
:1008F0009B6ED843054B1A68014090235B00D15092
:1009000000231800BD4602B080BDC046A4060020EA
:1009100080B582B000AF7860054B1A6892235B0007
:10092000D2587B68DA6600231800BD4602B080BD4D
:10093000A406002080B582B000AF7860084B1A682A
:1009400092235B00D0587B68D96E054B1A6801432F
:1009500092235B00D15000231800BD4602B080BD39
:10096000A406002080B582B000AF7860094B1A68F9
:1009700092235B00D1587B68DB6ED843054B1A6825
:10098000014092235B00D15000231800BD4602B005
:1009900080BDC046A406002080B582B000AF78605C
:1009A000054B1A6894235B00D2587B681A670023B2
:1009B0001800BD4602B080BDA406002080B582B0FC
:1009C00000AF7860054B1A687B68196F94235B0051
:1009D000D15000231800BD4602B080BDA4060020FF
:1009E00080B582B000AF78607B68196F054B1A68DC
:1009F000C94394235B00D15000231800BD4602B0C8
:100A000080BDC046A406002080B582B000AF7860EB
:100A1000054B1A6896235B00D2587B685A670023FF
:100A20001800BD4602B080BDA406002080B582B08B
:100A300000AF7860084B1A6896235B00D0587B683B
:100A4000596F054B1A68014396235B00D150002370
:100A50001800BD4602B080BDA406002080B582B05B
:100A600000AF7860084B1A6896235B00D1587B680A
:100A7000586F054B1A68014096235B00D150002344
:100A80001800BD4602B080BDA406002080B582B02B
:100A900000AF7860054B1A689A235B00D2587B68D8
:100AA0009A6700231800BD4602B080BDA40600204E
:100AB00080B582B000AF7860084B1A689A235B005B
:100AC000D0587B68996F054B1A6801439A235B00E5
:100AD000D15000231800BD4602B080BDA4060020FE
:100AE00080B582B000AF7860084B1A689A235B002B
:100AF000D1587B68986F054B1A6801409A235B00B8
:100B0000D15000231800BD4602B080BDA4060020CD
:100B100080B582B000AF7860054B1A689C235B00FB
:100B2000D2587B68DA6700231800BD4602B080BD4A
:100B3000A406002080B582B000AF7860084B1A6828
:100B40009C235B00D0587B68D96F054B1A68014322
:100B50009C235B00D15000231800BD4602B080BD2D
:100B6000A406002080B582B000AF7860084B1A68F8
:100B70009C235B00D1587B68D86F054B1A680140F5
:100B80009C235B00D15000231800BD4602B080BDFD
:100B9000A406002080B582B000AF78600D4B1968C4
:100BA0007B681A6A1300DB009B189B00CB181C3370
:100BB00019687B681A6A88B2796813005B009B1811
:100BC0005B00CB180433021C1A8000231800BD46BA
:100BD00002B080BDA406002080B582B000AF78606E
:100BE0007B681A6A796813005B009B185B00585A8F
:100BF000074B19687B681A6A1300DB009B189B007F
:100C0000CB181833186000231800BD4602B080BD11
:100C1000A406002080B582B000AF78600D4B196843
:100C20007B681A6A1300DB009B189B00CB180C33FF
:100C300019687B681A6A88B2796813005B009B1890
:100C40005B00CB180233021C1A8000231800BD463B
:100C500002B080BDA406002090B583B000AF7860DC
:100C6000134B19687B681A6A1300DB009B189B0002
:100C7000CB180C3319687B681A6A786813005B001C
:100C80009B185B00C31802331B881C00084B1868B4
:100C90007B681A6A21431300DB009B189B00C31872
:100CA0000C33196000231800BD4603B090BDC04648
:100CB000A406002090B583B000AF7860134B19688C
:100CC0007B681A6A1300DB009B189B00CB18143357
:100CD00019687B681A6A786813005B009B185B00D0
:100CE000C31802331B88DB431C00084B18687B6861
:100CF0001A6A21401300DB009B189B00C3181433B1
:100D0000196000231800BD4603B090BDA406002062
:100D100080B584B000AFF860B9607A60B968FA68ED
:100D20007B681000984703001800BD4604B080BDE2
:100D300080B584B000AFF860B9607A60B968FA68CD
:100D40007B681000984703001800BD4604B080BDC2
:100D500080B588B000AF786039607B68BB61BA69E4
:100D600088235B00D3587B61002001F0C3FF002083
:100D700001F088FF7B69002B21D000233B61002319
:100D8000FB6116E0104BFA699200D2583B689B0059
:100D9000D3181B68FB607A69FB6810009847030052
:100DA0003B613B69002B01DD012309E0FB69013355
:100DB000FB61054BFA699200D358002BE2D1002366
:100DC0001800BD4608B080BD4838000080B586B028
:100DD00000AF786039607B687B617A6988235B004B
:100DE000D3583B617B69094A9A58094B9200D25803
:100DF0003B689B00D3181B68FB603A69FB681000D6
:100E0000984703001800BD4606B080BD0C050000E1
:100E10004838000090B58FB000AFF860B9607A60D4
:100E20003B60FB68FB62FA6A86235B00D358BB62B7
:100E3000FA6A8A235B00D3587B62FA6A8C235B00D0
:100E4000D3583B62FA6A8E235B00D358FB613B6A3E
:100E5000DB6BBB61234BBA699200D258BB689B0025
:100E6000D3181B687B61204BBA689200D258BB69CB
:100E70009B00D3181B683B61BB68002B15D1002376
:100E80007B630DE0FB697A6A396AB86A7C69A047BE
:100E90007A6B7968B86A3B6998477B6B01337B63EF
:100EA0007B6B3A689A42EDD817E0BB68012B14D1EE
:100EB00000233B630DE03A6B7968B86A3B69984759
:100EC000FB697A6A396AB86A7C69A0473B6B01336F
:100ED0003B633B6B3A689A42EDD800231800BD464D
:100EE0000FB090BDD0370000E837000080B588B063
:100EF00000AF786039607B68BB61BA6992235B00A0
:100F0000D3587B617B69002B21D000233B610023F8
:100F1000FB6116E0104BFA699200D2583B689B00C7
:100F2000D3181B68FB607A69FB68100098470300C0
:100F30003B613B69002B01DD012309E0FB690133C3
:100F4000FB61054BFA699200D358002BE2D10023D4
:100F50001800BD4608B080BD7834000080B586B06A
:100F600000AF786039607B687B617A6992235B00AF
:100F7000D3583B617B69094A9A58094B9200D25871
:100F80003B689B00D3181B68FB603A69FB68100044
:100F9000984703001800BD4606B080BD0C05000050
:100FA0007834000080B588B000AF786039607B6825
:100FB000FB61FA6990235B00D358BB613B68002B4F
:100FC00007D1124B1B68FB60BA69FB681000984799
:100FD00016E03B68012B09D10D4B3A689200D358BB
:100FE0003B61BA693B691000984709E03B68032BF5
:100FF00006D1084B1B687B61BA697B691000984772
:1010000000231800BD4608B080BDC046B8350000BA
:10101000BC350000C835000080B588B000AF7860EE
:1010200039607B68BB61BA6994235B00D3587B61EC
:1010300000233B610023FB600023FB611D4B1A680A
:101040007B69DA607B691B4ADA661B4B1B683B6174
:101050007A693B69100098470300FB60174B1B68D7
:101060003B617A693B69100098470300FB6016E01A
:10107000134BFA699200D2583B689B00D3181B6847
:101080003B617A693B69100098470300FB60FB688D
:10109000002B01DD012309E0FB690133FB61084BF3
:1010A000FA699200D358002BE2D100231800BD4604
:1010B00008B080BDE081E00FCC360000D0360000E3
:1010C0004C36000080B586B000AF786039607B6830
:1010D0007B617A6994235B00D3583B617B69094A41
:1010E0009A58094B9200D2583B689B00D3181B6852
:1010F000FB603A69FB681000984703001800BD4682
:1011000006B080BD0C0500004C36000080B588B0EC
:1011100000AF786039607B68BB61BA6996235B0079
:10112000D3587B6100233B610023FB6116E0114B28
:10113000FA699200D2583B689B00D3181B68FB6089
:101140007A69FB681000984703003B613B69002BFC
:1011500001DD012309E0FB690133FB61054BFA69FD
:101160009200D358002BE2D100231800BD4608B0EE
:1011700080BDC046CC35000080B586B000AF786039
:1011800039607B687B617A6996235B00D3583B6149
:101190007B69094A9A58094B9200D2583B689B00D8
:1011A000D3181B68FB603A69FB681000984703007E
:1011B0001800BD4606B080BD0C050000CC3500000F
:1011C0007047C04680B582B000AF7860044B1B68A2
:1011D0001A687B681A6000231800BD4602B080BD03
:1011E000A806002080B582B000AF7860064B1B686F
:1011F00019687B681A68044B1B680A431A6000234D
:101200001800BD4602B080BDA806002080B582B09F
:1012100000AF7860074B1B681A687B681B68D9436E
:10122000044B1B680A401A6000231800BD4602B038
:1012300080BDC046A806002080B582B000AF7860AF
:10124000044B1B68DA687B68DA6000231800BD462F
:1012500002B080BDA806002080B582B000AF7860E3
:10126000064B1B68D9687B68DA68044B1B680A4325
:10127000DA6000231800BD4602B080BDA806002039
:1012800080B582B000AF7860074B1B68DA687B6876
:10129000DB68D943044B1B680A40DA60002318005E
:1012A000BD4602B080BDC046A806002080B582B011
:1012B00000AF7860044B1B681A697B681A610023D1
:1012C0001800BD4602B080BDA806002080B582B0DF
:1012D00000AF7860064B1B6859697B685A69044BFC
:1012E0001B680A435A6100231800BD4602B080BD46
:1012F000A806002080B582B000AF7860074B1B685D
:101300009A697B689B69D943044B1B680A409A61C0
:1013100000231800BD4602B080BDC046A8060020CC
:1013200080B582B000AF7860044B1B68DA697B68D7
:10133000DA6100231800BD4602B080BDA806002077
:1013400080B582B000AF7860064B1B68D9697B68B6
:10135000DA69044B1B680A43DA6100231800BD46B2
:1013600002B080BDA806002080B582B000AF7860D2
:10137000074B1B68DA697B68DB69D943044B1B6840
:101380000A40DA6100231800BD4602B080BDC046A5
:10139000A806002080B582B000AF7860044B1B68BF
:1013A0001A6A7B681A6200231800BD4602B080BD2D
:1013B000A806002080B582B000AF7860064B1B689D
:1013C000196A7B681A6A044B1B680A431A62002375
:1013D0001800BD4602B080BDA806002080B582B0CE
:1013E00000AF7860074B1B681A6A7B681B6AD94399
:1013F000044B1B680A401A6200231800BD4602B065
:1014000080BDC046A806002080B582B000AF7860DD
:10141000044B1B685A6A7B685A6200231800BD4659
:1014200002B080BDA806002080B582B000AF786011
:10143000064B1B68596A7B685A6A044B1B680A434F
:101440005A6200231800BD4602B080BDA8060020E5
:1014500080B582B000AF7860074B1B685A6A7B6822
:101460005B6AD943044B1B680A405A620023180088
:10147000BD4602B080BDC046A806002080B582B03F
:1014800000AF7860044B1B689A6A7B689A620023FD
:101490001800BD4602B080BDA806002080B582B00D
:1014A00000AF7860064B1B68996A7B689A6A044BA8
:1014B0001B680A439A6200231800BD4602B080BD33
:1014C000A806002080B582B000AF7860074B1B688B
:1014D0009A6A7B689B6AD943044B1B680A409A62EC
:1014E00000231800BD4602B080BDC046A8060020FB
:1014F00080B582B000AF7860044B1B681A6B7B68C4
:10150000DA6200231800BD4602B080BDA8060020A4
:1015100080B582B000AF7860064B1B68196B7B68A2
:10152000DA6A044B1B680A431A6300231800BD469D
:1015300002B080BDA806002080B582B000AF786000
:10154000074B1B681A6B7B68DB6AD943044B1B682B
:101550000A401A6300231800BD4602B080BDC04691
:10156000A806002080B582B000AF7860044B1B68ED
:101570005A6B7B681A6300231800BD4602B080BD19
:10158000A806002080B582B000AF7860064B1B68CB
:10159000596B7B681A6B044B1B680A435A63002320
:1015A0001800BD4602B080BDA806002080B582B0FC
:1015B00000AF7860074B1B685A6B7B681B6BD94385
:1015C000044B1B680A405A6300231800BD4602B052
:1015D00080BDC046A806002080B582B000AF78600C
:1015E000044B1B68DA6B7B685A6300231800BD4606
:1015F00002B080BDA806002080B582B000AF786040
:10160000064B1B68D96B7B689A6B044B1B680A43BB
:10161000DA6300231800BD4602B080BDA806002092
:1016200080B582B000AF7860074B1B68DA6B7B68CF
:101630009B6BD943044B1B680A40DA6300231800F4
:10164000BD4602B080BDC046A806002080B582B06D
:1016500000AF7860044B1B681A6B7B68DA63002369
:101660001800BD4602B080BDA806002080B582B03B
:1016700000AF7860064B1B68196B7B68DA6B044B14
:101680001B680A431A6300231800BD4602B080BDE0
:10169000A806002080B582B000AF7860074B1B68B9
:1016A0001A6B7B68DB6BD943044B1B680A401A63D7
:1016B00000231800BD4602B080BDC046A806002029
:1016C00080B582B000AF7860044B1B685A6B7B68B2
:1016D0001A6400231800BD4602B080BDA806002091
:1016E00080B582B000AF7860064B1B68596B7B6891
:1016F0001A6C044B1B680A435A6300231800BD464A
:1017000002B080BDA806002080B582B000AF78602E
:10171000074B1B685A6B7B681B6CD943044B1B68D7
:101720000A405A6300231800BD4602B080BDC0467F
:10173000A806002080B582B000AF7860044B1B681B
:10174000DA6B7B685A6400231800BD4602B080BD86
:10175000A806002080B582B000AF7860064B1B68F9
:10176000D96B7B689A6C044B1B680A43DA630023CD
:101770001800BD4602B080BDA806002080B582B02A
:1017800000AF7860074B1B68DA6B7B689B6CD943B2
:10179000044B1B680A40DA6300231800BD4602B000
:1017A00080BDC046A806002080B582B000AF78603A
:1017B000044B1B681A6B7B68DA6400231800BD4673
:1017C00002B080BDA806002080B582B000AF78606E
:1017D000064B1B68196B7B68DA6C044B1B680A4369
:1017E0001A6300231800BD4602B080BDA806002081
:1017F00080B582B000AF7860074B1B681A6B7B68BE
:10180000DB6CD943044B1B680A401A6300231800A1
:10181000BD4602B080BDC046A806002080B582B09B
:1018200000AF7860044B1B685A6B7B681A65002315
:101830001800BD4602B080BDA806002080B582B069
:1018400000AF7860064B1B68596B7B681A6D044BC0
:101850001B680A435A6300231800BD4602B080BDCE
:10186000A806002080B582B000AF7860074B1B68E7
:101870005A6B7B681B6DD943044B1B680A405A6343
:1018800000231800BD4602B080BDC046A806002057
:1018900080B582B000AF7860044B1B68DA6B7B6860
:1018A0005A6500231800BD4602B080BDA80600207E
:1018B00080B582B000AF7860064B1B68D96B7B683F
:1018C0009A6D044B1B680A43DA6300231800BD4677
:1018D00002B080BDA806002080B582B000AF78605D
:1018E000074B1B68DA6B7B689B6DD943044B1B6805
:1018F0000A40DA6300231800BD4602B080BDC0462E
:10190000A806002080B582B000AF0200FB1D1A704F
:10191000FB1D1B781A001F231A40044B0121914024
:101920000A001A60C046BD4602B080BD00E100E07A
:1019300080B582B000AF0200FB1D1A70FB1D1B7842
:101940001A001F231340054901229A40C0235B005F
:10195000CA50C046BD4602B080BDC04600E100E0AE
:1019600080B500AFC046BD4680BD000080B588B0E0
:1019700000AFFFF7F5FF524B9B6CFB61504B9B6D2B
:10198000BB614F4B80229B587B614D4B1B6E3B6173
:10199000FA694B4B01211800FEF71EFCBA69484B4F
:1019A00001211800FEF708FC7A69454B0121180057
:1019B000FFF7AEF93A69424B0121180001F02EFC05
:1019C0003F4BC4229B58FB603D4BA4229B58BB60FD
:1019D0003B4A90235B00D3587B600220FFF7A8FFAF
:1019E0000220FFF78FFF7B6802221A627B68802249
:1019F000D200DA81BA68FA239900314B180001F05D
:101A00001DFCFA682E4B01211800FFF791F97B6845
:101A100080221201DA81BA68FA239900284B180053
:101A200001F00CFCFA68264B01211800FFF780F941
:101A30007B688022D201DA81BA68FA239900204BB0
:101A4000180001F0FBFBFA681D4B01211800FFF79D
:101A50006FF97B6802221A627B688022D2009A8129
:101A6000BA68FA239900164B180001F0E7FBFA68F0
:101A7000134B03211800FFF75BF97B6880221201EA
:101A80009A81BA68FA2399000D4B180001F0D6FB31
:101A9000FA680B4B03211800FFF74AF97B68802294
:101AA000D2019A81BA68FA239900054B180001F017
:101AB000C5FBFA68024B03211800FFF739F9C8E7A4
:101AC0008C01002080B582B000AF7860044B1B68A9
:101AD0001A687B681A6000231800BD4602B080BDFA
:101AE0009C06002080B582B000AF7860064B1B6872
:101AF00019687B681A68044B1B680A431A60002344
:101B00001800BD4602B080BD9C06002080B582B0A2
:101B100000AF7860074B1B681A687B681B68D94365
:101B2000044B1B680A401A6000231800BD4602B02F
:101B300080BDC0469C06002080B582B000AF7860B2
:101B4000044B1B685A687B685A6000231800BD4626
:101B500002B080BD9C06002080B582B000AF7860E6
:101B6000064B1B6859687B685A68044B1B680A431C
:101B70005A6000231800BD4602B080BD9C060020BC
:101B800080B582B000AF7860074B1B685A687B68ED
:101B90005B68D943044B1B680A405A600023180055
:101BA000BD4602B080BDC0469C06002080B582B014
:101BB00000AF7860044B1B689A687B689A600023CA
:101BC0001800BD4602B080BD9C06002080B582B0E2
:101BD00000AF7860064B1B6899687B689A68044B75
:101BE0001B680A439A6000231800BD4602B080BDFE
:101BF0009C06002080B582B000AF7860074B1B6860
:101C00009A687B689B68D943044B1B680A409A60BA
:101C100000231800BD4602B080BDC0469C060020CF
:101C200080B582B000AF7860044B1B68DA687B68CF
:101C3000DA6000231800BD4602B080BD9C0600207B
:101C400080B582B000AF7860064B1B68D9687B68AE
:101C5000DA68044B1B680A43DA6000231800BD46AB
:101C600002B080BD9C06002080B582B000AF7860D5
:101C7000074B1B68DA687B68DB68D943044B1B6839
:101C80000A40DA6000231800BD4602B080BDC0469D
:101C90009C06002080B582B000AF7860044B1B68C2
:101CA0001A697B681A6100231800BD4602B080BD26
:101CB0009C06002080B582B000AF7860064B1B68A0
:101CC00019697B681A69044B1B680A431A6100236F
:101CD0001800BD4602B080BD9C06002080B582B0D1
:101CE00000AF7860074B1B6819697B681B69DA4392
:101CF000044B1B680A431A6100231800BD4602B05A
:101D000080BDC0469C06002080B582B000AF7860E0
:101D1000044B1B685A697B685A6100231800BD4652
:101D200002B080BD9C06002080B582B000AF786014
:101D3000064B1B6859697B685A69044B1B680A4348
:101D40005A6100231800BD4602B080BD9C060020E9
:101D500080B582B000AF7860074B1B685A697B681A
:101D60005B69D943044B1B680A405A610023180081
:101D7000BD4602B080BDC0469C06002080B582B042
:101D800000AF7860044B1B689A697B689A610023F6
:101D90001800BD4602B080BD9C06002080B582B010
:101DA00000AF7860064B1B6899697B689A69044BA1
:101DB0001B680A439A6100231800BD4602B080BD2B
:101DC0009C06002080B582B000AF7860074B1B688E
:101DD0009A697B689B69D943044B1B680A409A61E6
:101DE00000231800BD4602B080BDC0469C060020FE
:101DF00080B582B000AF7860044B1B68DA697B68FD
:101E0000DA6100231800BD4602B080BD9C060020A8
:101E100080B582B000AF7860064B1B68D9697B68DB
:101E2000DA69044B1B680A43DA6100231800BD46D7
:101E300002B080BD9C06002080B582B000AF786003
:101E4000074B1B68DA697B68DB69D943044B1B6865
:101E50000A40DA6100231800BD4602B080BDC046CA
:101E60009C06002080B582B000AF7860044B1B68F0
:101E70007A68126A1A6200231800BD4602B080BD5B
:101E80009C06002080B582B000AF7860064B1B68CE
:101E9000596A7B685A6A044B1B680A435A620023DA
:101EA0001800BD4602B080BD9C06002080B582B0FF
:101EB00000AF7860044B1B689A6A7B689A620023C3
:101EC0001800BD4602B080BD9C06002080B582B0DF
:101ED00000AF7860064B1B68996A7B689A6A044B6E
:101EE0001B680A439A6200231800BD4602B080BDF9
:101EF0009C06002080B582B000AF7860074B1B685D
:101F00009A6A7B689B6AD943044B1B680A409A62B1
:101F100000231800BD4602B080BDC0469C060020CC
:101F200080B582B000AF7860044B1B681A6B7B6889
:101F30001A6300231800BD4602B080BD9C06002035
:101F400080B582B000AF7860064B1B68596B7B6828
:101F50005A6B044B1B680A435A6300231800BD46A2
:101F600002B080BD9C06002080B582B000AF7860D2
:101F7000074B1B689A6B7B689B6BD943044B1B68B0
:101F80000A409A6300231800BD4602B080BDC046D7
:101F90009C06002080B582B000AF7860044B1B68BF
:101FA000DA6B7B68DA6300231800BD4602B080BD9F
:101FB0009C06002080B582B000AF7860064B1B689D
:101FC000D96B7B68DA6B044B1B680A43DA63002326
:101FD0001800BD4602B080BD9C06002080B582B0CE
:101FE00000AF7860074B1B68DA6B7B68DB6BD9430B
:101FF000044B1B680A40DA6300231800BD4602B098
:1020000080BDC0469C06002080B582B000AF7860DD
:10201000044B1B681A6C7B681A6400231800BD46C9
:1020200002B080BD9C06002080B582B000AF786011
:10203000064B1B68196C7B681A6C044B1B680A43BF
:102040001A6400231800BD4602B080BD9C06002023
:1020500080B582B000AF7860074B1B681A6C7B6854
:102060001B6CD943044B1B680A401A6400231800F8
:10207000BD4602B080BDC0469C06002080B582B03F
:1020800000AF7860044B1B685A6C7B685A6400236D
:102090001800BD4602B080BD9C06002080B582B00D
:1020A00000AF7860064B1B68596C7B685A6C044B18
:1020B0001B680A435A6400231800BD4602B080BD65
:1020C0009C06002080B582B000AF7860074B1B688B
:1020D0005A6C7B685B6CD943044B1B680A405A649A
:1020E00000231800BD4602B080BDC0469C060020FB
:1020F00080B582B000AF7860044B1B685A6D7B6876
:10210000DA6400231800BD4602B080BD9C060020A2
:1021100080B582B000AF7860064B1B68596D7B6854
:10212000DA6C044B1B680A435A6500231800BD464D
:1021300002B080BD9C06002080B582B000AF786000
:10214000074B1B685A6D7B68DB6CD943044B1B68DB
:102150000A405A6500231800BD4602B080BDC04643
:102160009C06002080B582B000AF7860044B1B68ED
:102170009A6D7B681A6500231800BD4602B080BDC9
:102180009C06002080B582B000AF7860064B1B68CB
:10219000996D7B681A6D044B1B680A439A6500238E
:1021A0001800BD4602B080BD9C06002080B582B0FC
:1021B00000AF7860074B1B689A6D7B681B6DD94335
:1021C000044B1B680A409A6500231800BD4602B004
:1021D00080BDC0469C06002080B582B000AF78600C
:1021E000044B1B681A6E7B685A6500231800BD46B5
:1021F00002B080BD9C06002080B582B000AF786040
:10220000064B1B68196E7B685A6D044B1B680A43AA
:102210001A6600231800BD4602B080BD9C0600204F
:1022200080B582B000AF7860074B1B681A6E7B6880
:102230005B6DD943044B1B680A401A6600231800E3
:10224000BD4602B080BDC0469C06002080B582B06D
:1022500000AF7860044B1B689A6E7B689A65002318
:102260001800BD4602B080BD9C06002080B582B03B
:1022700000AF7860064B1B68996E7B689A6D044BC3
:102280001B680A439A6600231800BD4602B080BD51
:102290009C06002080B582B000AF7860074B1B68B9
:1022A0009A6E7B689B6DD943044B1B680A409A6603
:1022B00000231800BD4602B080BDC0469C06002029
:1022C00080B582B000AF7860044B1B681A6F7B68E2
:1022D000DA6500231800BD4602B080BD9C060020D0
:1022E00080B582B000AF7860064B1B68196F7B68C1
:1022F000DA6D044B1B680A431A6700231800BD46B9
:1023000002B080BD9C06002080B582B000AF78602E
:10231000074B1B681A6F7B68DB6DD943044B1B6846
:102320000A401A6700231800BD4602B080BDC046AF
:102330009C06002080B582B000AF7860044B1B681B
:102340009A6F7B681A6600231800BD4602B080BDF4
:102350009C06002080B582B000AF7860064B1B68F9
:10236000996F7B681A6E044B1B680A439A670023B7
:102370001800BD4602B080BD9C06002080B582B02A
:1023800000AF7860074B1B689A6F7B681B6ED94360
:10239000044B1B680A409A6700231800BD4602B030
:1023A00080BDC0469C06002080B582B000AF78603A
:1023B000054B1B6880229A587B685A6600231800D8
:1023C000BD4602B080BDC0469C06002080B582B0EC
:1023D00000AF7860074B1B68802299587B685A6E63
:1023E000044B1B680A4380215A5000231800BD4645
:1023F00002B080BD9C06002080B582B000AF78603E
:10240000084B1B6880229A587B685B6ED943054B4A
:102410001B680A4080215A5000231800BD4602B0B4
:1024200080BDC0469C06002080B582B000AF7860B9
:10243000054B1B6884229A587B689A660023180013
:10244000BD4602B080BDC0469C06002080B582B06B
:1024500000AF7860074B1B68842299587B689A6E9E
:10246000044B1B680A4384215A5000231800BD46C0
:1024700002B080BD9C06002080B582B000AF7860BD
:10248000084B1B6884229A587B689B6ED943054B86
:102490001B680A4084215A5000231800BD4602B030
:1024A00080BDC0469C06002080B586B000AFF860B5
:1024B000B9607A603B60224B1B681B691B0A0122D2
:1024C00013405A1E9341DAB23B681A713B681B797C
:1024D000002B2FD01A4B1B689B697B617B699B0B80
:1024E000012213405A1E9341DAB27B685A707B680E
:1024F0005B78002B02D001235B421CE07B69DB0B85
:10250000012213405A1E9341DAB27B681A707B682D
:102510001B78002B02D002235B420CE0FB687A6937
:102520001A6080235B001A007B6913401B0ADAB231
:10253000BB681A7000231800BD4606B080BDC046B7
:10254000A006002080B584B000AFF860B9607A6062
:102550003B6000237B600023BB600C4B1B681B6946
:102560001B0A012213405A1E9341DAB23B681A71CA
:102570003B681B79002B04D0044B1B68DA69FB68AD
:102580005A6000231800BD4604B080BDA00600209C
:1025900080B586B000AFF860B9607A603B60224BCE
:1025A0001B681B691B0A012213405A1E9341DAB2B1
:1025B0003B681A713B681B79002B2FD01A4B1B68A4
:1025C0009B6A7B617B699B0B012213405A1E9341DE
:1025D000DAB27B68DA707B68DB78002B02D00123EB
:1025E0005B421CE07B69DB0B012213405A1E9341C6
:1025F000DAB27B689A707B689B78002B02D002234A
:102600005B420CE0FB687A691A6180235B001A0068
:102610007B6913401B0ADAB2BB685A7000231800AA
:10262000BD4606B080BDC046A006002080B586B07D
:1026300000AFF860B9607A603B60394B1B681B697A
:102640001B0A012213405A1E9341DAB23B681A71E9
:102650003B681B79002B5ED0314B1B681B6A7B618A
:102660007B699B0B012213405A1E9341DAB27B68AF
:102670005A717B685B79002B02D001235B424BE0EF
:102680007B69DB0B012213405A1E9341DAB27B684F
:102690001A717B681B79002B02D002235B423BE05E
:1026A0007B699B0F012213405A1E9341DAB27B686B
:1026B000DA717B68DB79002B02D003235B422BE0CD
:1026C0007B69DB0F5A1E9341DAB27B689A717B6893
:1026D0009B79002B02D004235B421DE0FF231A00EC
:1026E0007B691A407B691B0CFF210B401B021A43BC
:1026F000FB689A6080235B001A007B6913401B0A09
:10270000DAB2BB689A7080235B047A6913401B0EAF
:10271000DAB2BB68DA7000231800BD4606B080BD8F
:10272000A006002080B584B000AFF860B9607A6080
:102730003B6000237B600023BB600C4B1B681B6964
:102740001B0A012213405A1E9341DAB23B681A71E8
:102750003B681B79002B04D0044B1B685A6AFB684A
:10276000DA6000231800BD4604B080BDA00600203A
:1027700080B586B000AFF860B9607A603B60394BD5
:102780001B681B691B0A012213405A1E9341DAB2CF
:102790003B681A713B681B79002B5ED0314B1B687C
:1027A000DB6A7B617B699B0B012213405A1E9341BC
:1027B000DAB27B68DA727B68DB7A002B02D0012305
:1027C0005B424BE07B69DB0B012213405A1E9341B5
:1027D000DAB27B689A727B689B7A002B02D0022364
:1027E0005B423BE07B699B0F012213405A1E9341E1
:1027F000DAB27B685A737B685B7B002B02D00323C1
:102800005B422BE07B69DB0F5A1E9341DAB27B6897
:102810001A737B681B7B002B02D004235B421DE0F4
:10282000FF231A007B691A407B691B0CFF210B40B8
:102830001B021A43FB685A6180235B001A007B6904
:1028400013401B0ADAB2BB681A7180235B047A69F1
:1028500013401B0EDAB2BB685A7100231800BD4644
:1028600006B080BDA006002080B586B000AFF8603D
:10287000B9607A603B6000237B60BB68002B2ED080
:10288000FB689B699BB2FF2292B213409AB2BB686D
:10289000DB881B029BB213439AB2BB689B8B13432A
:1028A0009AB2BB68DB8B13439AB2BB681B8C134391
:1028B0009AB2BB685B8C134399B2BB689A8C1420A4
:1028C0003B180A431A80194B1B681B6920221340CE
:1028D0001FD0164B1B683A1812881A6319E0FB6860
:1028E0009B699BB2FF2292B2134099B2BB68DB880E
:1028F0001B029AB216203B180A431A800B4B1B6826
:102900001B692022134004D0084B1B683A18128818
:102910001A63064B1B689A6C044B1B6820210A4300
:102920009A6400231800BD4606B080BDA0060020B2
:1029300080B584B000AFF860B9607A603B60002376
:102940007B600023BB600D4B1B681B69202213407A
:1029500007D0FB68DA69FF231900084B1B680A409F
:102960001A63064B1B689A6C044B1B6820210A43B0
:102970009A6400231800BD4604B080BDA006002064
:1029800080B586B000AFF860B9607A603B60002324
:102990007B60BB68002B3CD0FB681B6AFF221A409F
:1029A000BB68DB681B021343BA68928B1343BA6897
:1029B000D28B1343BA68128C1343BA68528C1343F8
:1029C000BA68928C1A43FB681B6A1B0AFF210B40F2
:1029D0001B041A43BB681B691B061A43BB689B6A2E
:1029E0001A43BB68DB6A1A43BB681B6B1A43BB689C
:1029F0005B6B1A43BB689B6B13437B61154B1B6876
:102A00001B692022134017D0124B1B687A699A6306
:102A100012E0FB681B6AFF221A40FB681B6A1B045A
:102A200013437B610B4B1B681B692022134003D0AF
:102A3000084B1B687A699A63064B1B689A6C054BB6
:102A40001B6820210A439A6400231800BD4606B083
:102A500080BDC046A006002080B584B000AFF860FD
:102A6000B9607A603B600023BB6000237B600C4B45
:102A70001B681B692022134004D0094B1B68FA68AD
:102A8000526A1A63064B1B689A6C054B1B6820211F
:102A90000A439A6400231800BD4604B080BDC046B6
:102AA000A006002080B584B000AFF860B9607A60FD
:102AB0007B689B00BA68D318FA6812681A60C0462F
:102AC000BD4604B080BD80B584B000AFF860B96089
:102AD0007A607B689B00BA68D318FA6852681A60FB
:102AE000C046BD4604B080BD80B584B000AFF8607C
:102AF000B9607A607B689B00BA68D318FA689268FC
:102B00001A60C046BD4604B080BD80B584B000AF39
:102B1000F860B9607A607B689B00BA68D318FA687D
:102B2000D2681A60C046BD4604B080BD80B584B08E
:102B300000AFF860B9607A607B689B00BA68D31810
:102B4000FA6812691A60C046BD4604B080BD80B5FF
:102B500084B000AFF860B9607A607B689B00BA68A7
:102B6000D318FA6852691A60C046BD4604B080BDE9
:102B700080B584B000AFF860B9607A607B689B0074
:102B8000BA68D3181A68FB689A61C046BD4604B09B
:102B900080BD80B584B000AFF860B9607A607B68B2
:102BA0009B00BA68D3181A68FB68DA61C046BD4654
:102BB00004B080BD80B584B000AFF860B9607A60C1
:102BC0007B689B00BA68D3181A68FB681A62C04613
:102BD000BD4604B080BD80B584B000AFF860B96078
:102BE0007A607B689B00BA68D3181A68FB685A62DF
:102BF000C046BD4604B080BD80B582B000AF0200C3
:102C0000FB1D1A70FB1D1B781A001F231A40044B72
:102C1000012191400A001A60C046BD4602B080BD45
:102C200000E100E080B582B000AF0200FB1D1A7029
:102C3000FB1D1B781A001F231340054901229A40EF
:102C4000130080228B50C046BD4602B080BDC046F6
:102C500000E100E080B582B000AF0200FB1D1A70F9
:102C6000FB1D1B781A001F231340054901229A40BF
:102C7000C0235B00CA50C046BD4602B080BDC046FE
:102C800000E100E080B584B000AF0200FB1D1A70C7
:102C9000174BFB60FB1D1B78002B10D0FB688022BC
:102CA0001201DA600820FFF7D5FF0820FFF7A4FF24
:102CB000FB68DB6C04221A43FB68DA6413E0FB1D3B
:102CC0001B7801225340DBB2002B0CD00820FFF709
:102CD000C1FF0820FFF7A6FFFB68DB6C04229343CB
:102CE0001A00FB68DA64C046BD4604B080BDC04629
:102CF00000C4004080B584B000AF0200FB1D1A7014
:102D0000174BFB60FB1D1B78002B10D0FB6880224B
:102D1000D200DA600920FFF79DFF0920FFF76CFF62
:102D2000FB68DB6C02221A43FB68DA6413E0FB1DCC
:102D30001B7801225340DBB2002B0CD00920FFF797
:102D400089FF0920FFF76EFFFB68DB6C02229343CB
:102D50001A00FB68DA64C046BD4604B080BDC046B8
:102D600000C4004080B582B000AF084B7B60084BC8
:102D70001B889BB201339AB2054B1A807B680122F3
:102D80009A61C046BD4602B080BDC0460000014009
:102D9000E408002080B582B000AF7860044B1B6867
:102DA0001A687B681A6000231800BD4602B080BD17
:102DB000A006002080B582B000AF7860064B1B688B
:102DC00019687B681A68044B1B680A431A60002361
:102DD0001800BD4602B080BDA006002080B582B0BC
:102DE00000AF7860074B1B681A687B681B68D94383
:102DF000044B1B680A401A6000231800BD4602B04D
:102E000080BDC046A006002080B582B000AF7860CB
:102E1000044B1B685A687B685A6000231800BD4643
:102E200002B080BDA006002080B582B000AF7860FF
:102E3000064B1B6859687B685A68044B1B680A4339
:102E40005A6000231800BD4602B080BDA0060020D5
:102E500080B582B000AF7860074B1B685A687B680A
:102E60005B68D943044B1B680A405A600023180072
:102E7000BD4602B080BDC046A006002080B582B02D
:102E800000AF7860044B1B689A687B689A600023E7
:102E90001800BD4602B080BDA006002080B582B0FB
:102EA00000AF7860064B1B6899687B689A68044B92
:102EB0001B680A439A6000231800BD4602B080BD1B
:102EC000A006002080B582B000AF7860074B1B6879
:102ED0009A687B689B68D943044B1B680A409A60D8
:102EE00000231800BD4602B080BDC046A0060020E9
:102EF00080B582B000AF7860044B1B681A697B68AC
:102F0000DA6000231800BD4602B080BDA006002094
:102F100080B582B000AF7860064B1B68D9687B68CB
:102F20001A69044B1B680A43DA6000231800BD4687
:102F300002B080BDA006002080B582B000AF7860EE
:102F4000074B1B68DA687B681B69D943044B1B6815
:102F50000A40DA6000231800BD4602B080BDC046BA
:102F6000A006002080B582B000AF7860044B1B68DB
:102F70005A697B685A6100231800BD4602B080BDC3
:102F8000A006002080B582B000AF7860064B1B68B9
:102F900059697B685A69044B1B680A435A610023CC
:102FA0001800BD4602B080BDA006002080B582B0EA
:102FB00000AF7860074B1B685A697B685B69D9432F
:102FC000044B1B680A405A6100231800BD4602B03A
:102FD00080BDC046A006002080B582B000AF7860FA
:102FE000044B1B681A6C7B689A6100231800BD466D
:102FF00002B080BDA006002080B582B000AF78602E
:10300000064B1B68596C7B689A69044B1B680A4322
:103010005A6400231800BD4602B080BDA0060020FF
:1030200080B582B000AF7860074B1B685A6C7B6834
:103030009B69D943044B1B680A405A64002318005B
:10304000BD4602B080BDC046A006002080B582B05B
:1030500000AF7860044B1B681A6D7B68DA6100234F
:103060001800BD4602B080BDA006002080B582B029
:1030700000AF7860064B1B68196D7B68DA69044BFA
:103080001B680A431A6500231800BD4602B080BDC4
:10309000A006002080B582B000AF7860074B1B68A7
:1030A0001A6D7B68DB69D943044B1B680A401A65BB
:1030B00000231800BD4602B080BDC046A006002017
:1030C00080B582B000AF7860044B1B685A6D7B6896
:1030D0001A6200231800BD4602B080BDA006002081
:1030E00080B582B000AF7860064B1B68596D7B6875
:1030F0001A6A044B1B680A435A6500231800BD4630
:1031000002B080BDA006002080B582B000AF78601C
:10311000074B1B685A6D7B681B6AD943044B1B68BD
:103120000A405A6500231800BD4602B080BDC04663
:10313000A006002080B582B000AF7860044B1B6809
:103140009A6D7B685A6200231800BD4602B080BDAC
:10315000A006002080B582B000AF7860064B1B68E7
:10316000996D7B685A6A044B1B680A439A65002371
:103170001800BD4602B080BDA006002080B582B018
:1031800000AF7860074B1B689A6D7B685B6AD94318
:10319000044B1B680A409A6500231800BD4602B024
:1031A00080BDC046A006002080B582B000AF786028
:1031B000044B1B68DA6D7B689A6200231800BD46D9
:1031C00002B080BDA006002080B582B000AF78605C
:1031D000064B1B68D96D7B689A6A044B1B680A43CF
:1031E000DA6500231800BD4602B080BDA0060020AD
:1031F00080B582B000AF7860074B1B68DA6D7B68E2
:103200009B6AD943044B1B680A40DA650023180007
:10321000BD4602B080BDC046A006002080B584B087
:1032200000AFF860B9607A60B968FA687B6810002E
:10323000984703001800BD4604B080BD80B584B037
:1032400000AFF860B9607A60B968FA687B6810000E
:10325000984703001800BD4604B080BD002310B598
:1032600001001A00180000F057F810BD084B10B507
:103270000400002B02D0002100F0A2F8054B1868D2
:10328000836A002B00D09847200000F0E7F8C04682
:10329000C13300004039000070B5074D074C641B76
:1032A000A410002C02D100F0E1F870BD013CA30095
:1032B000EB589847F5E7C046D0070020D407002018
:1032C00070B500260C4D0D4C641BA410A64209D10C
:1032D000002600F0C5F80A4D0A4C641BA410A64253
:1032E00005D170BDB300EB5898470136EEE7B30047
:1032F000EB5898470136F2E7CC070020CC070020B6
:10330000CC070020D007002003001218934200D100
:10331000704719700133F9E7F0B51700244A85B0FA
:103320001468050001910293002C0AD1214B13600F
:10333000214A1C00002A04D0190012688831039227
:103340000A6063681F2B03DD0120404205B0F0BD19
:10335000002D24D026008836306800280ED1174B67
:10336000002BF1D00930FF3000E000BF0028EBD087
:1033700003000022FC335A609A60306001226168C9
:103380008A408B00C31880C3FC3041681143416000
:103390000299D967022D02D183681A43826063685B
:1033A00000205A1C62600233019A9B001A51CDE73B
:1033B000E008002054080020000000000000000089
:1033C000F7B50F000190244B1D68002D06D02B008F
:1033D00088331E686B685C1E002C00DAF7BD002F76
:1033E00009D0002E01D1013CF6E73300A200803362
:1033F0009B58BB42F7D128006968A2000830013908
:103400008358A14219D16C60002BECD069680091FF
:10341000002E08D0FC218C460120B4446146A04017
:10342000496801420CD198470B4B6A6800991B68A8
:103430008A42C8D19D42D6D0C5E700218150E3E73A
:10344000B15862469268024202D101989847EBE770
:1034500008009847E8E7C046E0080020FEE7C046BD
:10346000F8B5C046F8BC08BC9E467047F8B5C046E3
:10347000F8BC08BC9E4670478835000094350000B3
:10348000A0350000AC350000F83400000435000021
:10349000103500001C3500002835000034350000D0
:1034A000403500004C350000583500006435000000
:1034B000703500007C3500000000000000000000B6
:1034C00000000000000000000000000000000000FC
:1034D00000000000000000000000000000000000EC
:1034E00000000000000000000000000000000000DC
:1034F000000000000000000089070000AD07000088
:10350000DD070000590500007D050000AD05000045
:10351000E105000005060000350600006906000010
:103520008D060000C5060000F90600001D0700001A
:10353000550700001108000035080000650800006C
:1035400089080000AD080000DD0800001109000036
:10355000350900006509000099090000BD09000057
:10356000E1090000090A00002D0A00005D0A0000C0
:103570008D0A0000B10A0000E10A0000110B0000F2
:10358000350B0000650B0000F9010000310200005E
:103590007D0200007D020000BD0200001503000056
:1035A00071030000B103000009040000650400007D
:1035B000A5040000FD040000950B0000150C0000A0
:1035C000590C0000B50C0000D90B0000AC0600201F
:1035D000B8060020C4060020D0060020D006002037
:1035E000DC060020E8060020F4060020000700208A
:1035F0000C070020180700202407002030070020B7
:103600003C070020480700205407002060070020E6
:1036100000000000000000000000000000000000AA
:10362000000000000000000000000000000000009A
:10363000000000000000000000000000000000008A
:10364000000000000000000000000000D436000070
:10365000E0360000EC360000F836000004370000C9
:10366000103700001C3700002837000034370000F6
:10367000403700004C370000583700006437000026
:10368000703700007C370000883700009437000056
:10369000A0370000AC370000B8370000C437000086
:1036A000000000000000000000000000000000001A
:1036B000000000000000000000000000000000000A
:1036C000000000000000000000000000651E000077
:1036D000851E0000C51A0000E51A00000D1B000041
:1036E000391B0000591B0000811B0000AD1B0000AE
:1036F000CD1B0000F51B0000211C0000411C000038
:10370000691C0000951C0000B51C0000DD1C0000B9
:10371000091D0000291D0000511D00007D1D000035
:103720009D1D0000C51D0000F11D0000111E0000C0
:10373000391E0000AD1E0000CD1E0000F51E000069
:10374000211F0000411F0000691F0000951F00009D
:10375000B51F0000DD1F0000092000002920000027
:10376000512000007D2000009D200000C5200000A9
:10377000F120000011210000392100006521000026
:1037800085210000AD210000D9210000F9210000B1
:10379000212200004D2200006D2200009522000031
:1037A000C1220000E12200000923000035230000AF
:1037B000552300007D230000A9230000CD23000035
:1037C000F9230000292400004D2400007924000082
:1037D000F8370000003800000838000010380000FA
:1037E000F0370000F43700001838000030380000CF
:1037F0009125000071270000A9240000692800001D
:1038000045250000312900002D26000081290000F7
:1038100025270000592A0000A52A0000C72A000019
:10382000E92A00000B2B00002D2B00004F2B00007D
:10383000712B0000932B0000B52B0000D72B00004C
:103840000000000000000000C8380000D43800006C
:10385000E0380000EC380000F838000004390000BF
:10386000103900001C3900002839000034390000EC
:103870000000000000000000000000000000000048
:103880000000000000000000000000000000000038
:103890000000000000000000000000000000000028
:1038A0000000000000000000000000000000000018
:1038B0000000000000000000000000000000000008
:1038C0000000000000000000952D0000B52D000054
:1038D000DD2D0000092E0000292E0000512E0000D1
:1038E0007D2E00009D2E0000C52E0000F12E000050
:1038F000112F0000392F0000652F0000852F0000D8
:10390000AD2F0000D92F0000F92F0000213000005A
:103910004D3000006D30000095300000C1300000D7
:10392000E130000009310000353100005531000060
:103930007D310000A9310000C9310000F1310000E3
:083940006C07002000000000EC
:083948008CC7FF7F01000000A5
:1039500080040000000000000001000000030000DF
:103960000000000000000000000000000000000057
:103970000100000001000000000000000000000045
:103980000000000000000000000000000000000037
:10399000000000008900000000000000000000009E
:1039A0000000000000000000000000000000000017
:1039B0000000000000000000000000000000000007
:1039C00040000000000000000000000001000000B6
:1039D000000000000000000000000000E4370000CC
:1039E000E4370000000000000000000000000000BC
:1039F00000000000000000000000000000000000C7
:103A000000000000000000000000000000000000B6
:103A100000000000000000000000000000000004A2
:103A2000051000000000000000000000050000007C
:103A30004026000002000000000000000303000018
:103A40000000000000000000000000000000000076
:103A50000000000000000000000000410000000025
:103A60000000000000000000000000000000000056
:103A700000000000020000000000000000550005EA
:103A8000000000000200000000000500000000002F
:103A90000000000000000000000000000000000026
:103AA0000000000000000000000000000000000016
:103AB0000000000000000000000000000000000006
:103AC00000000000000000000000000000000000F6
:103AD00000000000000000000200000000000000E4
:103AE00000000000000000000000000000000000D6
:103AF00000000000000000000000000000000000C6
:103B000000000000000000000000000000000000B5
:103B100000000000000000000000000000000000A5
:103B2000000000001910000000000000000000006C
:103B300000000000510D0000000000000D11000009
:103B40000000000000000000000000000000000075
:103B5000000000000000000000000000ED0E00006A
:103B60000000000000000000000000000000000055
:103B70000000000000000000150E00000000000022
:103B800071010000000000000000000000000000C3
:103B90000000000000000000000000000000000025
:103BA000A50F00000000000000000000C51000008C
:103BB000000000000000000000000000CD0D00002B
:103BC000000000007911000000000000000000006B
:103BD00000000000000000000000000000000000E5
:103BE000000000005D0F0000EC080020CC00002069
:103BF00024090020F00700201409002030080020CC
:103C000004010020000000207000002000000000DF
:103C100000000000000000000000000000000000A4
:103C20000000000000000000000000000000000094
:103C30000000000000000000000000000000000084
:103C40000000000000000000000000000000000074
:103FE00000000000000000000000000000800C4005
:103FF00000C400400060004000000140C511000006
:10400000E51100000D1200003912000059120000E5
:1040100081120000AD120000CD120000F512000068
:1040200021130000411300006913000095130000E4
:10403000B5130000DD13000009140000291400006E
:10404000511400007D1400009D140000C5140000F0
:10405000F11400001115000039150000651500006D
:1040600085150000AD150000D9150000F9150000F8
:10407000211600004D1600006D1600009516000078
:10408000C1160000E11600000917000035170000F6
:10409000551700007D170000A9170000C917000080
:1040A000F11700001D1800003D1800006518000001
:1040B00091180000B1180000D9180000000000009D
:1040C00000000000000000000000000000000000F0
:1040D00000000000000000000000000000000000E0
:1040E00000000000000000000000000000000000D0
:1040F00000000000000000000000000000000000C0
:1041000000000000000000000000000000000000AF
:10411000000000000000000000000000B5000000EA
:044120008D0000000E
:0400000300000141B7
:00000001FF
