:100000000010002089070000B5070000B5070000B8
:10001000B5070000B5070000B5070000B5070000F0
:10002000B5070000B5070000B5070000B5070000E0
:10003000B5070000B5070000B5070000B5070000D0
:10004000B5070000B50700008D590000B507000096
:10005000B5070000B5070000B5070000B5070000B0
:10006000B5070000B5070000B5070000B5070000A0
:10007000B5070000B5070000B5070000B507000090
:10008000B5070000B5070000B507000010B5064C25
:100090002378002B07D1054B002B02D0044800E049
:1000A00000BF0123237010BD58090020000000008C
:1000B000786E0000044B10B5002B03D003490448B0
:1000C00000E000BF10BDC046000000005C09002039
:1000D000786E0000164B002B00D1144B9D46402239
:1000E00092029A1A924600218B460F461348144AF0
:1000F000121A06F0DAFB0F4B002B00D098470E4B7C
:10010000002B00D098470020002104000D000D486E
:10011000002802D00C4800E000BF06F099FB200048
:10012000290003F01FFD06F07DFBC046000008001B
:10013000001000200000000000000000580900200E
:10014000240B0020000000000000000080B584B0F7
:1001500000AF78600023FB6010E07A68FB680A3328
:100160009B00D31804331B68D9B27A68FB68D31894
:1001700014330A1C1A70FB680133FB60FB68072B01
:10018000EBDDC046BD4604B080BD80B582B000AF97
:1001900078607B68DB6CDAB27B681A75C046BD4656
:1001A00002B080BD80B582B000AF78607B681B6D07
:1001B000DAB27B681A75C046BD4602B080BD80B514
:1001C00084B000AF78600023FB600BE07B68DB6DE0
:1001D000D9B27A68FB68D31814330A1C1A70FB680A
:1001E0000133FB60FB68012BF0DDC046BD4604B067
:1001F00080BD80B582B000AF78607B68DB6DDAB21D
:100200007B681A75C046BD4602B080BD80B582B01D
:1002100000AF78607B681B6EDAB27B681A75C046E7
:10022000BD4602B080BD80B582B000AF78607B680B
:100230005B6EDAB27B681A75C046BD4602B080BDFF
:1002400080B584B000AF78600023FB600EE07B686F
:10025000FA681C329200D358D9B27A68FB68D31876
:1002600014330A1C1A70FB680133FB60FB68012B16
:10027000EDDDC046BD4604B080BD80B584B000AFA2
:1002800078600023FB600EE07B68FA681A32920007
:10029000D358D9B27A68FB68D31814330A1C1A7081
:1002A000FB680133FB60FB68012BEDDDC046BD46FA
:1002B00004B080BD80B582B000AF78607B689B6F72
:1002C000DAB27B681A75C046BD4602B080BD80B503
:1002D00082B000AF78607B68DB6FDAB27B681A753A
:1002E000C046BD4602B080BD80B582B000AF786028
:1002F0007B6880229B58DAB27B681A75C046BD467F
:1003000002B080BD80B582B000AF78607B68842287
:100310009B58DAB27B681A75C046BD4602B080BDF4
:1003200080B584B000AF78600023FB600EE07B688E
:10033000FA6822329200D358D9B27A68FB68D3188F
:1003400014330A1C1A70FB680133FB60FB680B2B2B
:10035000EDDDC046BD4604B080BD80B582B000AFC3
:1003600078607B68B8229B58DAB27B681A75C04601
:10037000BD4602B080BD80B582B000AF78607B68BA
:10038000BC229B58DAB27B681A75C046BD4602B0E3
:1003900080BD80B582B000AF78607B68C0229B587A
:1003A000DAB27B681A75C046BD4602B080BD80B522
:1003B00084B000AF78600023FB6010E07A68FB68CF
:1003C0000A339B00D31804331B68D9B27A68FB68E0
:1003D000D31814330A1C1A70FB680133FB60FB68E6
:1003E000072BEBDD7B6808225A62C046BD4604B08D
:1003F00080BD80B582B000AF78607B68DB6CDAB21C
:100400007B681A75C046BD4602B080BD80B582B01B
:1004100000AF78607B681B6DDAB27B681A75C046E6
:10042000BD4602B080BD80B584B000AF78600023C7
:10043000FB600BE07B68DB6DD9B27A68FB68D31890
:1004400014330A1C1A70FB680133FB60FB68012B34
:10045000F0DDC046BD4604B080BD80B582B000AFBF
:1004600078607B68DB6DDAB27B681A75C046BD4682
:1004700002B080BD80B582B000AF7860C046BD4696
:1004800002B080BD80B582B000AF7860C046BD4686
:1004900002B080BD80B582B000AF7860C046BD4676
:1004A00002B080BD80B582B000AF7860C046BD4666
:1004B00002B080BD80B582B000AF7860C046BD4656
:1004C00002B080BD80B582B000AF7860C046BD4646
:1004D00002B080BD80B582B000AF7860C046BD4636
:1004E00002B080BD80B582B000AF7860C046BD4626
:1004F00002B080BD80B582B000AF7860C046BD4616
:1005000002B080BD80B582B000AF7860C046BD4605
:1005100002B080BD80B582B000AF7860C046BD46F5
:1005200002B080BD80B582B000AF7860C046BD46E5
:1005300002B080BD90B585B000AF7860396000230F
:10054000FB6002E0FB680133FB607868FA688C238B
:10055000590013009B009B189B01C3185B181B6874
:10056000012B06D1FB680133FB60FB68174A9342FD
:10057000E8D90023BB6014E0BB683A68D3181C7844
:100580007868FA689123590013009B009B189B011F
:10059000C218BB68D3185B18221C1A70BB680133E1
:1005A000BB60BB68072BE7DD7868FA688C235900CD
:1005B00013009B009B189B01C3185B1801221A6053
:1005C000FB681800BD4605B090BDC046FF0700009F
:1005D00090B585B000AF786039600023FB601EE005
:1005E000FB685A1C7C68F9688C2358000B009B0040
:1005F0005B189B01E3181C1878688C2359001300C2
:100600009B009B189B01C3185B1820001900A023B6
:100610005B001A0006F040F9FB680133FB60786864
:10062000FA688C23590013009B009B189B01C31888
:100630005B181B68012B03D1FB68044A9342CFD996
:10064000FB681800BD4605B090BDC046FF0700001E
:1006500080B586B000AF78603960234B1B687B6142
:1006600039687A687B691000984703003B613B69F1
:100670001E4A934225D878683A698C2359001300A2
:100680009B009B189B01C3185B18012252421A6001
:10069000154BDB68FB6039697A68FB681000984786
:1006A0000300BB607868BA688C23590013009B0074
:1006B0009B189B01C3185B18012252421A60002349
:1006C0000DE078683A698C23590013009B009B1851
:1006D0009B01C3185B18012252421A6000231800C4
:1006E000BD4606B080BDC046A0000020FF07000048
:1006F00080B584B000AF786039600023FB6029E0EA
:100700000023BB6023E07868FA6891235900130046
:100710009B009B189B01C218BB68D3185B181B7801
:10072000BA6839688A1812781340DBB2002B04D1FA
:10073000BB68082B07D1FB681FE0FB680133FB6037
:100740000023BB6000E0C046BB680133BB60BB68F0
:10075000072BD8DD7868FA688C23590013009B00BA
:100760009B189B01C3185B181B68012B03D1FB6806
:10077000044A9342C4D901235B421800BD4604B029
:1007800080BDC046FF070000064880470649074A6B
:10079000074B9B1A03DD043BC858D050FBDCFFF726
:1007A00099FC0000A11F0000846E000000000020E2
:1007B00058090020FEE7C04680B584B000AF7860DD
:1007C000396000237B600C4BFB600C4B00221A80CD
:1007D000FB6801225A60C046084B1B889BB21A0076
:1007E0003B689342F8D8FB6802225A600023180045
:1007F000BD4604B080BDC04600000140100A002084
:1008000080B582B000AF786039607A683B681000CC
:10081000984703001800BD4602B080BD90B585B072
:1008200000AFF860B9607A603B603B6A7A68B9688B
:10083000F8683C68A04703001800BD4605B090BDAD
:1008400080B582B000AF786039607A683B6810008C
:10085000984703001800BD4602B080BD80B584B043
:1008600000AFF860B9607A607968FA68BB68100018
:10087000984703001800BD4604B080BD80B584B021
:1008800000AFF860B9607A607968FA68BB681000F8
:10089000984703001800BD4604B080BD90B587B0EE
:1008A00000AFF860B9607A603B60BB6A3A68F8688C
:1008B000BC680121A04703007B617B691800BD462D
:1008C00007B090BD90B587B000AFF860B9607A60AE
:1008D0003B6005237B617B688B331A007B69F8687A
:1008E000BC680121A047BB6A3A68F868BC6800216F
:1008F000A04703003B613B691800BD4607B090BDAF
:1009000080B582B000AF78600A4B19687B6894228A
:100910009A587B68942018581300DB009B189B00A2
:1009200059587B680201D15000231800BD4602B01F
:1009300080BDC0464004002090B583B000AF786011
:100940000F4B19687B6894229A581300DB009B18A0
:100950009B005C587B6894229A587B681201D0589F
:10096000074B19687B6894229A5820431300DB00D8
:100970009B189B00585000231800BD4603B090BD43
:100980004004002080B582B000AF78600C4B19683D
:100990007B6894229A587B68942018581300DB00D7
:1009A0009B189B00CB1804331A6879680301CB1895
:1009B00004331A6000231800BD4602B080BDC04653
:1009C0004004002090B583B000AF7860124B1968E6
:1009D0007B6894229A581300DB009B189B00CB186D
:1009E00004331C687B6894229B587A681B01D318D7
:1009F00004331968084B18687B6894229A5821437D
:100A00001300DB009B189B00C318043319600023FC
:100A10001800BD4603B090BD4004002090B583B0DF
:100A200000AF7860134B19687B6894229A581300C2
:100A3000DB009B189B00CB18043319687B68942259
:100A40009B587A681B01D31804331B68DC43094B9D
:100A500018687B6894229A5821401300DB009B1889
:100A60009B00C3180433196000231800BD4603B06F
:100A700090BDC0464004002080B582B000AF7860D1
:100A80000C4B19687B6894229A587B6894201858FC
:100A90001300DB009B189B00CB1808331A68796899
:100AA0000301CB1808331A6000231800BD4602B0BA
:100AB00080BDC0464004002090B583B000AF786090
:100AC000124B19687B6894229A581300DB009B181C
:100AD0009B00CB1808331C687B6894229B587A686B
:100AE0001B01D31808331968084B18687B689422D7
:100AF0009A5821431300DB009B189B00C31808334E
:100B0000196000231800BD4603B090BD40040020CA
:100B100090B583B000AF7860134B19687B6894225E
:100B20009A581300DB009B189B00CB1808331968F8
:100B30007B6894229B587A681B01D31808331B6882
:100B4000DC43094B18687B6894229A5821401300B3
:100B5000DB009B189B00C3180833196000231800A2
:100B6000BD4603B090BDC0464004002080B582B0B1
:100B700000AF78600C4B19687B6894229A587B68A8
:100B8000942018581300DB009B189B00CB182033CF
:100B90001A6879680301CB180C331A600023180017
:100BA000BD4602B080BDC0464004002090B583B071
:100BB00000AF7860124B19687B6894229A58130032
:100BC000DB009B189B00CB1820331C687B689422A9
:100BD0009B587A681B01D3180C331968084B1868A6
:100BE0007B6894229A5821431300DB009B189B00DA
:100BF000C3182033196000231800BD4603B090BD10
:100C00004004002090B583B000AF7860134B1968A2
:100C10007B6894229A581300DB009B189B00CB182A
:100C2000203319687B6894229B587A681B01D3187B
:100C30000C331B68DC43094B18687B6894229A5874
:100C400021401300DB009B189B00C3182033196060
:100C500000231800BD4603B090BDC04640040020EC
:100C600080B582B000AF7860054B1A6880235B00C6
:100C7000D2587B681A6600231800BD4602B080BDBA
:100C80004004002080B582B000AF7860084B1A683D
:100C900080235B00D0587B68196E054B1A680143AE
:100CA00080235B00D15000231800BD4602B080BDF8
:100CB0004004002080B582B000AF7860094B1A680C
:100CC00080235B00D1587B681B6ED843054B1A68A4
:100CD000014080235B00D15000231800BD4602B0C4
:100CE00080BDC0464004002080B582B000AF78606F
:100CF000054B1A6880235B00D2587B685A66002334
:100D00001800BD4602B080BD4004002080B582B00E
:100D100000AF7860084B1A6882235B00D0587B686C
:100D2000596E054B1A68014382235B00D1500023A2
:100D30001800BD4602B080BD4004002080B582B0DE
:100D400000AF7860094B1A6882235B00D1587B683A
:100D50005B6ED843054B1A68014082235B00D1507B
:100D600000231800BD4602B080BDC04640040020EC
:100D700080B582B000AF7860054B1A6884235B00B1
:100D8000D2587B689A6600231800BD4602B080BD29
:100D90004004002080B582B000AF78600A4B1A682A
:100DA00084235B00D0587B68996E074B1A68014317
:100DB00084235B00D1507B68180000F04FF80023BB
:100DC0001800BD4602B080BD4004002080B582B04E
:100DD00000AF7860094B1A6884235B00D1587B68A8
:100DE0009B6ED843054B1A68014084235B00D150A9
:100DF00000231800BD4602B080BDC046400400205C
:100E000080B582B000AF7860054B1A6884235B0020
:100E1000D2587B68DA6600231800BD4602B080BD58
:100E20004004002080B582B000AF78600A4B1A6899
:100E300086235B00D0587B68D96E074B1A68014344
:100E400086235B00D1507B681800FFF7BFFF0023AB
:100E50001800BD4602B080BD4004002080B582B0BD
:100E600000AF7860094B1A6886235B00D1587B6815
:100E7000DB6ED843054B1A68014086235B00D150D6
:100E800000231800BD4602B080BDC04640040020CB
:100E900080B582B000AF7860054B1A6888235B008C
:100EA000D2587B681A6700231800BD4602B080BD87
:100EB0004004002080B582B000AF7860084B1A680B
:100EC00088235B00D0587B68196F054B1A68014373
:100ED00088235B00D15000231800BD4602B080BDBE
:100EE0004004002080B582B000AF7860094B1A68DA
:100EF00088235B00D1587B681B6FD843054B1A6869
:100F0000014088235B00D15000231800BD4602B089
:100F100080BDC0464004002080B582B000AF78603C
:100F2000054B1A688A235B00D2587B685A670023F6
:100F30001800BD4602B080BD4004002080B582B0DC
:100F400000AF7860084B1A688C235B00D0587B6830
:100F5000596F054B1A6801438C235B00D150002365
:100F60001800BD4602B080BD4004002080B582B0AC
:100F700000AF7860054B1A687B68596F8E235B0061
:100F8000D15000231800BD4602B080BD40040020AF
:100F900080B582B000AF7860054B1A6890235B0083
:100FA000D2587B689A6700231800BD4602B080BD06
:100FB0004004002080B582B000AF7860084B1A680A
:100FC00090235B00D0587B68996F054B1A680143EA
:100FD00090235B00D15000231800BD4602B080BDB5
:100FE0004004002080B582B000AF7860094B1A68D9
:100FF00090235B00D1587B689B6FD843054B1A68E0
:10100000014090235B00D15000231800BD4602B080
:1010100080BDC0464004002080B582B000AF78603B
:10102000054B1A6892235B00D2587B68DA6700236D
:101030001800BD4602B080BD4004002080B582B0DB
:1010400000AF7860084B1A6892235B00D0587B6829
:10105000D96F054B1A68014392235B00D1500023DE
:101060001800BD4602B080BD4004002080B582B0AB
:1010700000AF7860094B1A6892235B00D1587B68F7
:10108000DB6FD843054B1A68014092235B00D150B7
:1010900000231800BD4602B080BDC04640040020B9
:1010A00080B582B000AF7860064B1A6894235B006D
:1010B000D2587B6880215A5000231800BD4602B0E8
:1010C00080BDC0464004002080B582B000AF78608B
:1010D000064B1A687B688021595894235B00D150D5
:1010E00000231800BD4602B080BDC0464004002069
:1010F00080B582B000AF78607B6880229958054B3C
:101100001A68C94394235B00D15000231800BD46E0
:1011100002B080BD4004002080B582B000AF78608E
:10112000064B1A6896235B00D2587B6884215A507C
:1011300000231800BD4602B080BDC0464004002018
:1011400080B582B000AF7860094B1A6896235B00C7
:10115000D0587B6884229958054B1A68014396231E
:101160005B00D15000231800BD4602B080BDC046D0
:101170004004002080B582B000AF7860094B1A6847
:1011800096235B00D1587B6884229858054B1A68D7
:10119000014096235B00D15000231800BD4602B0E9
:1011A00080BDC0464004002080B582B000AF7860AA
:1011B000064B1A689A235B00D2587B6888215A50E4
:1011C00000231800BD4602B080BDC0464004002088
:1011D00080B582B000AF7860094B1A689A235B0033
:1011E000D0587B6888229958054B1A6801439A2386
:1011F0005B00D15000231800BD4602B080BDC04640
:101200004004002080B582B000AF7860094B1A68B6
:101210009A235B00D1587B6888229858054B1A683E
:1012200001409A235B00D15000231800BD4602B054
:1012300080BDC0464004002080B582B000AF786019
:10124000064B1A689C235B00D2587B688C215A504D
:1012500000231800BD4602B080BDC04640040020F7
:1012600080B582B000AF7860094B1A689C235B00A0
:10127000D0587B688C229958054B1A6801439C23EF
:101280005B00D15000231800BD4602B080BDC046AF
:101290004004002080B582B000AF7860094B1A6826
:1012A0009C235B00D1587B688C229858054B1A68A8
:1012B00001409C235B00D15000231800BD4602B0C2
:1012C00080BDC0464004002080B500AF044B1A68C2
:1012D00098235B000121D15000231800BD4680BD3A
:1012E0004004002080B582B000AF7860064B1A68D9
:1012F0009E235B00D2587B6890215A50002318002F
:10130000BD4602B080BDC0464004002090B58BB001
:1013100002AFF860B9607A603B607B6817221A60A0
:101320007B6800225A601423FC187A68B968F86850
:10133000042300932300FFF7C5FA0423FB6112E0A6
:101340003A6898235B00D3581B021422B918FA6933
:101350008A181278134319003A6898235B00D15019
:10136000FB69013BFB61FB69002BE9DBC046BD4625
:1013700009B090BD80B588B000AF786039607A68F8
:1013800098235B00D358FB61FB69174A944663447A
:101390001B0A3B6100237B613B681B6F9AB20E21E5
:1013A00008007B18FF210A401A8001007B187A1878
:1013B00012881A803B691B025B0A5A027B181B8841
:1013C000D1187A6896235B00D1507A6896235B0027
:1013D000D258FB69D11A7A689C235B00D150C04671
:1013E000BD4608B080BDC04600004C0480B588B042
:1013F00000AF786039607A6898235B00D358FB614E
:101400007A6896235B00D358BB61BB691A4A94463D
:1014100063441B0A3B6100237B613B681B6F9AB2EC
:101420000E2108007B18FF210A401A8001007B185A
:101430007A1812881A803B691B025B0A5A027B18D1
:101440001B88D1187A6894235B00D1507A68942362
:101450005B00D258BB69D11A7A689C235B00D150DB
:10146000BA69FB69D11A7A689A235B00D150C046E9
:10147000BD4608B080BDC04600004C0490B58BB09E
:1014800000AF7860396000233B607A6896235B0088
:10149000D3587B627A6896235B00D3583B623A6AE2
:1014A0007B6AD11A7A689A235B00D1507A689C23B0
:1014B0005B00D358FB617A689C235B00D358BB6107
:1014C0007A689A235B00D3587B617A689A235B0021
:1014D000D3583B617B693A695A43FB69B9694B430D
:1014E000D01A7A693B69D218FB69D218BB69D31844
:1014F000190004F0C5FC0300180005F0BFF8030054
:101500000C00BB60FC6098225205084BB868F96873
:1015100004F042FE03000C007968902252008A1801
:1015200013605460C046BD460BB090BD19DDB1419B
:10153000F0B5DDB000AF78603960954BB8256D002F
:101540007A19D41878683A688C23590013009B00E4
:101550009B189B01C3185B1820001900A0235B0097
:101560001A0005F099F97B68B0225200BA1813608E
:101570007B689622920094466344AE267600BA19A0
:101580001360834B7A19D21890235B00D3185C68E0
:101590001B681800210005F0A3F8031CAC225200C0
:1015A000BA181360BB191B685B68B6225200BA18E0
:1015B00013600023B4225200BA18136013E0B4225F
:1015C0005200BB181B680133B9180B60BB181B68AD
:1015D000DB00AE225200BA181268D3185B68B6223C
:1015E0005200BA181360AC235B00FB181968B623CD
:1015F0005B00FB18186804F0EBFC031EDFD1B4237A
:101600005B00FB181B68DB00AE225200BA181268A0
:10161000D218604BB82149008C46BC44634403CACD
:1016200003C30023B2225200BA18136022E0584BC1
:10163000B8225200BA18D218B22464003B191B68B1
:10164000D3180A331878B0235B00FB181968B42349
:101650005B00FB181A6896239B00D20089183A1980
:1016600012688A18D318021C1A703B191B680133C0
:101670003A191360B2235B00FB181B68012BD6DDFF
:10168000B0235B00FB181A68B42149007B181B6863
:101690004B33DB00D3180433AC225200BA18126863
:1016A0001A607B181B681F2B10D0B4235B00FB183B
:1016B0001B680133DB00AE225200BA181268D3183F
:1016C0005B68B6225200BA1813604BE000235BE05F
:1016D000B42464003B191B68DB00AE2149007A1872
:1016E0001268D2182C4BB82040008446BC44634496
:1016F00021CA21C33B191B68DB007A181268D11874
:10170000244BB82040003A18D2180B0022CA22C33A
:10171000204B3A18D218204BB82149008C46BC44C3
:1017200063441000190008231A0005F0B5F83B19AE
:101730001B6801333A1913603B191B68202B0FD02B
:10174000B4235B00FB181B68DB00AE225200BA1802
:101750001268D3185B68B6225200BA18136001E011
:10176000002311E00B4BB82252009446BC44634462
:101770005B68191CB6235B00FB18186804F03CFC7E
:10178000031EA5D101235B421800BD465DB0F0BD2C
:10179000A8FEFFFFA0FEFFFF98FEFFFF80B582B00E
:1017A00000AF78600D4B19687B685A6A1300DB0044
:1017B0009B189B00CB181C3319687B685A6A88B247
:1017C000796813005B009B185B00CB180433021C84
:1017D0001A8000231800BD4602B080BD40040020DE
:1017E00080B582B000AF78607B685A6A7968130070
:1017F0005B009B185B00585A074B19687B685A6A54
:101800001300DB009B189B00CB18183318600023D3
:101810001800BD4602B080BD4004002080B582B0F3
:1018200000AF78600D4B19687B685A6A1300DB00C3
:101830009B189B00CB180C3319687B685A6A88B2D6
:10184000796813005B009B185B00CB180233021C05
:101850001A8000231800BD4602B080BD400400205D
:1018600090B583B000AF7860134B19687B685A6AF3
:101870001300DB009B189B00CB180C3319687B68A6
:101880005A6A786813005B009B185B00C318023328
:101890001B881C00084B18687B685A6A2143130098
:1018A000DB009B189B00C3180C3319600023180041
:1018B000BD4603B090BDC0464004002090B583B043
:1018C00000AF7860134B19687B685A6A1300DB001D
:1018D0009B189B00CB18143319687B685A6A786888
:1018E00013005B009B185B00C31802331B88DB43AB
:1018F0001C00084B18687B685A6A21401300DB0003
:101900009B189B00C3181433196000231800BD46B0
:1019100003B090BD4004002080B582B000AF786075
:1019200039607A683B681000984703001800BD468C
:1019300002B080BD90B585B000AFF860B9607A6044
:101940003B602023FB181B883A687968F868BC68FC
:10195000A04703001800BD4605B090BD80B582B019
:1019600000AF0200FB1D1A70FB1D1B787F2B09D8EE
:10197000FB1D1B781A001F231A40044B01219140C4
:101980000A001A60C046BD4602B080BD00E100E01A
:1019900080B582B000AF0200FB1D1A70FB1D1B78E2
:1019A0007F2B0AD8FB1D1B781A001F231340054903
:1019B00001229A40C0235B00CA50C046BD4602B017
:1019C00080BDC04600E100E080B588B000AF78601F
:1019D0007B68BB61BA69AA235B00D3587B6109208D
:1019E000FFF7D6FF0820FFF7D3FF7B69002B1ED03F
:1019F00000233B610023FB6113E00F4BFA69920067
:101A0000D3585B68FB607A69FB6810009847030055
:101A10003B613B69002B01DD012309E0FB690133D8
:101A2000FB61054BFA699200D358002BE5D10023E6
:101A30001800BD4608B080BD3C6D000080B586B082
:101A400000AF786039607B687B617A69AA235B00AC
:101A5000D3583B613B68FB60074BFA689200D35850
:101A60005B68BB603A69BB681000984703001800C8
:101A7000BD4606B080BDC0463C6D000080B586B056
:101A800000AF786039607B687B617A69AA235B006C
:101A9000D3583B613B68FB60074BFA689200D35810
:101AA0001B68BB603A69BB681000984703001800C8
:101AB000BD4606B080BDC0463C6D000090B58FB0FD
:101AC00000AFF860B9607A603B60FB68FB62FA6A5D
:101AD000A8235B00D358BB62FA6AAC235B00D358DF
:101AE0007B62FA6AAE235B00D3583B62FA6AB0238A
:101AF0005B00D358FB613B6ADB6BBB61234BBA696C
:101B00009200D258BB689B00D3181B687B61204BA6
:101B1000BA689200D258BB699B00D3181B683B611E
:101B2000BB68002B15D100237B630DE0FB697A6A4B
:101B3000396AB86A7C69A0477A6B7968B86A3B6988
:101B400098477B6B01337B637B6B3A689A42EDD895
:101B500017E0BB68012B14D100233B630DE03A6B07
:101B60007968B86A3B699847FB697A6A396AB86AE2
:101B70007C69A0473B6B01333B633B6B3A689A42FD
:101B8000EDD800231800BD460FB090BDC46C000016
:101B9000DC6C000080B588B000AF78607B687B614A
:101BA0007A69B4235B00D3583B613B69002B4CD06E
:101BB0000023FB600023FB6113E0264BFA699200CF
:101BC000D3585B68BB603A69BB6810009847030054
:101BD000FB60FB68002B01DD012337E0FB6901336B
:101BE000FB611C4BFA699200D358002BE5D13B698D
:101BF0009422002199500023FB6120E00023BB6167
:101C000017E0BA693B6994215A50134BFA69920064
:101C1000D3585B68BB603A69BB6810009847030003
:101C2000FB60FB68002B01DD01230FE0BB69013382
:101C3000BB61BB69052BE4DDFB690133FB61064B2E
:101C4000FA699200D358002BD8D100231800BD4662
:101C500008B080BDF06800007069000080B586B0F3
:101C600000AF786039607B687B617A69B4235B0080
:101C7000D3583B613B68FB60074BFA689200D3582E
:101C80005B68BB603A69BB681000984703001800A6
:101C9000BD4606B080BDC046F068000080B586B085
:101CA00000AF786039607B687B617A69B4235B0040
:101CB000D3583B613B68FB60074BFA689200D358EE
:101CC0001B68BB603A69BB681000984703001800A6
:101CD000BD4606B080BDC046F068000080B58AB041
:101CE00000AFF860B9607A601A00BB1C1A80FB680C
:101CF0007B627A6AB2235B00D3583B62BB68002BDD
:101D000007D1244B1B687B613A6A7B6910009847B6
:101D10003AE0BB68012B1CD13B6A7A685A62BB1C53
:101D20001B8801229A40130098B2396A7A6813001E
:101D30005B009B185B00CB180233021C1A80164B09
:101D4000BA689200D358BB613A6ABB6910009847E1
:101D50001AE0BB68022B17D13B6A7A685A62BB1C37
:101D60001B8801229A40130098B2396A7A681300DE
:101D70005B009B185B00021C5A52084B1B68FB61FE
:101D80003A6AFB691000984700231800BD460AB064
:101D900080BDC0464C6A0000506A00005C6A0000CA
:101DA00080B588B000AF78607B68BB61BA69B62344
:101DB0005B00D3587B6100233B610023FB60002361
:101DC000FB611A4B9B6D5B683B617A693B69100054
:101DD00098470300FB60154BDB6D5B683B617A69DC
:101DE0003B69100098470300FB6013E00F4BFA6952
:101DF0009200D3585B683B617A693B691000984751
:101E00000300FB60FB68002B01DD012309E0FB6997
:101E10000133FB61054BFA699200D358002BE5D1E1
:101E200000231800BD4608B080BDC046186B0000F6
:101E300080B586B000AF786039607B687B617A6975
:101E4000B6235B00D3583B613B68FB60074BFA68E5
:101E50009200D3585B68BB603A69BB681000984732
:101E600003001800BD4606B080BDC046186B0000D8
:101E700080B586B000AF786039607B687B617A6935
:101E8000B6235B00D3583B613B68FB60074BFA68A5
:101E90009200D3581B68BB603A69BB681000984732
:101EA00003001800BD4606B080BDC046186B000098
:101EB00080B588B000AF78607B68BB61BA69B82331
:101EC0005B00D3587B610220FFF762FD0220FFF721
:101ED00045FD00233B610023FB6113E00F4BFA69D2
:101EE0009200D3585B68FB607A69FB6810009847E2
:101EF00003003B613B69002B01DD012309E0FB6925
:101F00000133FB61054BFA699200D358002BE5D1F0
:101F100000231800BD4608B080BDC046706A0000AE
:101F200080B586B000AF786039607B687B617A6984
:101F3000B8235B00D3583B613B68FB60074BFA68F2
:101F40009200D3585B68BB603A69BB681000984741
:101F500003001800BD4606B080BDC046706A000090
:101F600080B586B000AF786039607B687B617A6944
:101F7000B8235B00D3583B613B68FB60074BFA68B2
:101F80009200D3581B68BB603A69BB681000984741
:101F900003001800BD4606B080BDC046706A000050
:101FA000014A024B9A6070470000000000ED00E01B
:101FB00090B58FB002AFF860B9607A607B68BB62A1
:101FC000BB6A1B6F7B62BB6A1B6F3B627B6A012231
:101FD0001A700023FB6239E07B6A1B781A001F4BE2
:101FE0009200D2583B6A1A607B6A1B780133DAB2DE
:101FF0007B6A1A701A4BFA6A9200D358FB617A6AAC
:10200000FB6910009847174B5B68BB6101235A427C
:102010007868BB690121984703007B617B69002BCD
:102020000ED13B6A8B331C003A6A88235B00D3587D
:102030003A6AB968F86800932300FEF72FFC02E0C3
:1020400001235B4206E0FB6A0133FB62FB6A112B52
:10205000C2DD00231800BD460DB090BD74090020FC
:10206000080000206407002090B58FB002AFF86030
:10207000B9607A607B68BB62BB6A1B6F7B62BB6ABC
:102080001B6F3B627B6A01225A700023FB6238E0BF
:102090007B6A5B781A001F4B9200D2583B6A1A6029
:1020A0007B6A5B780133DAB27B6A5A701A4B1B6821
:1020B000FB6101235A427868FB69002198470300BD
:1020C000BB61BB69002B16D17B6A1C1D7B6A9B6AB6
:1020D0003A6AB968F86800932300FEF7F3FB7B6A5D
:1020E0005B781A000D4B9200D3587B617A6A7B694A
:1020F0001000984702E001235B4206E0FB6A0133CF
:10210000FB62FB6A112BC3DD00231800BD460DB036
:1021100090BDC046BC090020640700205400002088
:1021200090B58DB002AFF860B9607A603B607B68B3
:102130007B627B6A1B6F3B627B6A1B6FFB613B6A46
:102140005B781A00184B9200D258FB691A603B6A00
:102150001B781A00154B9200D358BB613A6ABB69D1
:1021600010009847124B5B687B6101235A427868E4
:102170007B690121984703003B613B69002B0DD12E
:10218000FB698B331C00FA6988235B00D358FA691A
:10219000B968F86800932300FEF780FB01235B42D7
:1021A0001800BD460BB090BDBC09002008000020FF
:1021B0006407002090B58DB002AFF860B9607A6016
:1021C0003B607B687B627B6A1B6F3B627B6A1B6F39
:1021D000FB613B6A5B781A00184B9200D258FB698E
:1021E0001A60174B1B68BB6101235A427868BB69B0
:1021F0000021984703007B617B69002B17D13B6A64
:102200001C1D3B6A9B6AFA69B968F8680093230051
:10221000FEF758FB3B6A5B781A000A4B9200D358D2
:102220003B613A6A3B6910009847002301E00123B3
:102230005B421800BD460BB090BDC046BC090020F3
:102240006407002054000020F0B5714CA54450AF45
:10225000F860B9607A603B607B68B6225200B918BA
:102260000B60BB181B681B6FB4225200BA181360B6
:102270003B68002B46D1B4256D007B191B681122E9
:102280001A607B191B6800225A607B191B680022A8
:102290009A607B191B680C331C007B191A68B9689B
:1022A000F868022300932300FEF70CFB594B3A68B1
:1022B0009200D358AC2464003A1913607A68B96864
:1022C000F8683B191B6898470300AA225200B91806
:1022D0000B60BB181A687B680121180001F018FD1B
:1022E00001007B191A688A235B00D1507B191A6898
:1022F0008A235B00D358013302D101235B4282E081
:10230000002380E03B68012B7CD1424B3A6892006D
:10231000D358B22149007A181360B42464003B19E1
:102320001A688A235B00D25878687B181B680121E1
:1023300098470300B0267600BA19136021007B1875
:102340001B688B331C007B181A6888235B00D358EA
:102350000D007A181268B968F86800932300FEF738
:102360009DFA29007B181868BB191A683023FF33BF
:10237000190013009B009B189B01C3185B181B7866
:10238000022B3FD1244BB8225200BA18D418B425DE
:102390006D007B191868B0235B00FB181A688C234A
:1023A000590013009B009B189B01C3185B18200069
:1023B0001900A0235B001A0004F06EFA7B191B6859
:1023C00017221A60154B9B68AE225200B9180B6099
:1023D0007B191E68BD68FC680F4BB82149008C460C
:1023E000BC4463446A4610001900A0235B001A0035
:1023F00004F052FAAE225200BB181B6832002900CA
:102400002000984700231800BD465DB0F0BDC046CF
:102410004CFDFFFF64070020A0FEFFFF48070020DF
:1024200090B58DB002AFF860B9607A607B687B626E
:102430007B6A1B6F3B627B6A1B6FFB613B6A5B784D
:102440001A001A4B9200D258FB691A603B6A1B783B
:102450001A00174B9200D358BB613A6ABB6910004F
:102460009847144B5B687B6101235A4278687B690B
:102470000121984703003B613B69002B0FD1FB69A9
:102480008B331C00FA6988235B00D358FA69B9685A
:10249000F86800932300FEF701FA030001E001232E
:1024A0005B421800BD460BB090BDC046BC09002081
:1024B000080000206407002090B58DB002AFF860DE
:1024C000B9607A607B687B627B6A1B6F3B627B6A68
:1024D0001B6FFB613B6A5B781A001A4B9200D25863
:1024E000FB691A603B6A1B781A00174B9200D3589D
:1024F000BB613A6ABB6910009847144B5B687B610B
:1025000001235A4278687B690121984703003B61A7
:102510003B69002B0FD1FB698B331C00FA698823C0
:102520005B00D358FA69B968F86800932300FEF796
:10253000B5F9030001E001235B421800BD460BB072
:1025400090BDC046BC0900200800002064070020A0
:1025500090B58DB002AFF860B9607A607B687B623D
:102560007B6A1B6F3B627B6A1B6FFB613B6A5B781C
:102570001A001A4B9200D258FB691A603B6A1B780A
:102580001A00174B9200D358BB613A6ABB6910001E
:102590009847144B5B687B6101235A4278687B69DA
:1025A0000121984703003B613B69002B0FD1FB6978
:1025B0008B331C00FA6988235B00D358FA69B96829
:1025C000F86800932300FEF769F9030001E0012396
:1025D0005B421800BD460BB090BDC046BC09002050
:1025E000080000206407002090B58DB002AFF860AD
:1025F000B9607A607B687B627B6A1B6F3B627B6A37
:102600001B6FFB613B6A5B781A001A4B9200D25831
:10261000FB691A603B6A1B781A00174B9200D3586B
:10262000BB613A6ABB6910009847144B5B687B61D9
:1026300001235A4278687B690121984703003B6176
:102640003B69002B0FD1FB698B331C00FA6988238F
:102650005B00D358FA69B968F86800932300FEF765
:102660001DF9030001E001235B421800BD460BB0D9
:1026700090BDC046BC09002008000020640700206F
:1026800090B58DB002AFF860B9607A607B687B620C
:102690007B6A1B6F3B627B6A1B6FFB613B6A5B78EB
:1026A0001A001A4B9200D258FB691A603B6A1B78D9
:1026B0001A00174B9200D358BB613A6ABB691000ED
:1026C0009847144B5B687B6101235A4278687B69A9
:1026D0000121984703003B613B69002B0FD1FB6947
:1026E0008B331C00FA6988235B00D358FA69B968F8
:1026F000F86800932300FEF7D1F8030001E00123FE
:102700005B421800BD460BB090BDC046BC0900201E
:10271000080000206407002080B586B000AF786014
:102720001323FB187A68127B1A701223FB187A683D
:10273000527B1A7000237B6135E01F4B7A6952008F
:10274000D35C1322BA1812781340DBB2002B04D1E9
:102750007B69002B01D17B692AE0174B7A69520013
:10276000D35C1322BA1812781340DBB2002B17D1B6
:102770007B69FB6011E0104AFB685B00D3180133F2
:102780001B781222BA1812781340DBB2002B01D149
:10279000FB680DE07B6901337B61FB68012BEAD9A3
:1027A0007B6901337B617B69052BC6D901235B42C1
:1027B0001800BD4606B080BD0000002090B58BB06B
:1027C00002AFF860B9607A607B68FB61FB691B6FE0
:1027D000BB61FB691B6C7B617B691800FFF79CFF89
:1027E0000200294B5A60284B5B68284AD35C1900C9
:1027F0007A6986235B00D1507B6911221A60224BD3
:102800005B68234AD25C204B1A701F4B5B68214ADD
:10281000D25C1D4B5A701C4B5B681F4AD25C1A4B32
:102820009A70194B5B681D4AD25C174BDA70164BD5
:102830005B681B4AD25C144B1A727B690C331C0018
:102840007A6986235B00D3587A69B968F86800937F
:102850002300FEF737F80C4B5A68124B9200D358FE
:102860003B61BB697A69B968F8683C69A0470100B7
:102870007A698A235B00D1507A698A235B00D35836
:102880001800BD4609B090BD040A00209007002042
:102890007007002074070020780700207C070020C4
:1028A00080070020606A000090B591B000AFF8602A
:1028B000B9607A603B600023FB6310E0664B9B7855
:1028C0001A00FB6BD3187A68D318197B1423FA18F3
:1028D000FB6BD3180A1C1A70FB6B0133FB63FB6B99
:1028E000072BEBDD5D4B1B68FB621423F9187A683C
:1028F000FB6A100098470300BB62BB6A013368D1D2
:10290000564B5B687B621423F9187A687B6A100067
:10291000984703003B623B6A01331BD00023BB6333
:1029200015E01423FA18BB6BD3181C7878683A6A40
:102930009123590013009B009B189B01C218BB6B8D
:10294000D3185B18221C1A70BB6B0133BB63BB6BC3
:10295000072BE6DD00237B6329E07B6B02337A687B
:10296000D3181C7B78683A6A9523590013009B00A2
:102970009B189B01C2187B6BD3185B18221C1A7022
:102980003B687A6B1C329200D358DCB278683A6AA2
:102990009623590013009B009B189B01C2187B6B68
:1029A000D3185B18221C1A707B6B01337B637B6B23
:1029B000012BD2DD78683A6A3023FF331900130007
:1029C0009B009B189B01C3185B1801221A703B6A7D
:1029D0003DE000233B6329E03B6B02337A68D31868
:1029E0001C7B7868BA6A9523590013009B009B18DA
:1029F0009B01C2183B6BD3185B18221C1A703B68F2
:102A00003A6B1C329200D358DCB27868BA6A9623CB
:102A1000590013009B009B189B01C2183B6BD318F5
:102A20005B18221C1A703B6B01333B633B6B012B21
:102A3000D2DD7868BA6A3023FF33190013009B0097
:102A40009B189B01C3185B1801221A70BB6A1800FF
:102A5000BD4611B090BDC046040A0020A000002071
:102A600090B58DB000AFF860B9607A603B6000232C
:102A7000FB6217E03A68FB6A0A339B00D318043301
:102A80001B683E4A52781100FA6A8A1879688A18D7
:102A9000127B134003D1FB6A0133FB6202E0012386
:102AA0005B4267E0FB6A072BE4DD0023BB6210E0BA
:102AB000324B9B781A00BB6AD3187A68D318197BFB
:102AC0001423FA18BB6AD3180A1C1A70BB6A0133A4
:102AD000BB62BB6A072BEBDD294B1B683B621423EF
:102AE000F9187A683B6A100098470300FB61FB699C
:102AF000013302D101235B423CE000237B6228E0EA
:102B00007B6A10337A68D3181C7B7868FA6995233E
:102B1000590013009B009B189B01C2187B6AD318B5
:102B20005B18221C1A707B6A12337A68D3181C7BDC
:102B30007868FA699623590013009B009B189B0143
:102B4000C2187B6AD3185B18221C1A707B6A013387
:102B50007B627B6A012BD3DD7868FA693023FF330F
:102B6000190013009B009B189B01C3185B180222DD
:102B70001A70FB691800BD460DB090BD040A002014
:102B8000A000002090B589B000AFF860B9607A600D
:102B90003B600023FB6117E03A68FB690A339B0046
:102BA000D31804331B681F4A52781100FA698A1837
:102BB00079688A18127B134003D1FB690133FB61EA
:102BC00002E001235B4229E0FB69012BE4DD0023E5
:102BD0007B6114E07B699A1C134B9200D358114A15
:102BE000127A11007A685218127B134003D17B6964
:102BF0000233BB6100E0C0467B6901337B617B69C6
:102C0000012BE7DD094BBA699200D3583B613B6861
:102C10007A68B968F8683C69A04703001800BD46A7
:102C200009B090BD040A0020D86800008407002085
:102C3000B0B57C4CA5444EAFF860B9607A603B609B
:102C40000023BA225200BA1813601FE03A68BA2073
:102C500040003B181B680A339B00D31804331B68E1
:102C6000714A527811003A1812688A1879688A18DD
:102C7000127B134007D1BA225200BB181B680133E4
:102C8000BA18136002E001235B42C6E0BA235B007E
:102C9000FB181B68012BD9DD0023B8225200BA189B
:102CA000136017E0604B9B781A00B82040003B1877
:102CB0001B68D3187A68D318197BAC235B00FA1809
:102CC0003B181B68D3180A1C1A703B181B68013389
:102CD0003A181360B8235B00FB181B68072BE1DD73
:102CE000524B1B68B42040003A181360AC235B00C1
:102CF000F9187A683B181B68100098470300B22245
:102D00005200B9180B60BB181B68013302D10123B4
:102D10005B4282E0464BBC225200BA18D418786855
:102D2000B2235B00FB181A688C23590013009B0028
:102D30009B189B01C3185B1820001900A0235B009F
:102D40001A0003F0A9FD3A4BBC2252009446BC4441
:102D500063440322DA757B6815221A607B680022BF
:102D60005A607A6886235B000421D150AA235B0055
:102D7000FC187A68B968F868042300932300FDF70B
:102D8000A1FD0423B6225200BA1813601EE0284B9E
:102D9000BC2464003A19D21898235B00D3581B0254
:102DA000AA225200B918B62040003A1812688A18B0
:102DB0001278134319001E4B3A19D21898235B005E
:102DC000D1503B181B68013B3A181360B6235B00D7
:102DD000FB181B68002BDADB164BDB68B0256D0097
:102DE0007A191360124BBC225200BA18D4183B68EF
:102DF0004C936B4618002100103198235B001A0099
:102E000003F04AFD20686168A268E3687C192468C1
:102E1000A047B2235B00FB181B681800BD465EB0DC
:102E2000B0BDC04650FDFFFF040A0020A0000020F6
:102E300098FEFFFF48070020B0B5914CA5444EAF67
:102E4000F860B9607A603B600023C6225200BA186D
:102E500013601FE03A68C62040003B181B680A3325
:102E60009B00D31804331B68864A527811003A1825
:102E700012688A1879688A18127B134007D1C62213
:102E80005200BB181B680133BA18136002E001231B
:102E90005B42F0E0C6235B00FB181B68012BD9DD09
:102EA0000023C4225200BA18136017E0754B9B78B8
:102EB0001A00C42040003B181B68D3187A68D31846
:102EC0001B7B1900AA235B00FB183A1812689200BA
:102ED000D1503B181B6801333A181360C4235B00C0
:102EE000FB181B68012BE1DD674B1B68BE2040000F
:102EF0003A181360AA235B00F9187A683B181B681C
:102F0000100098470300BC225200B9180B60BB1890
:102F10001B68013302D101235B42ACE05B4BC8224A
:102F20005200BA18D4187868BC235B00FB181A68E2
:102F30008C23590013009B009B189B01C3185B183E
:102F400020001900A0235B001A0003F0A5FC4F4BE2
:102F5000C82252009446BC4463440422DA75032319
:102F6000C2225200BA1813601DE0484BC824640006
:102F70003A19D2189C235B00D3581B02C220400090
:102F80003A1812680A3279688A18127B13431900BA
:102F90003E4B3A19D2189C235B00D1503B181B685A
:102FA000013B3A181360C2235B00FB181B68012B1E
:102FB000DBDC7B6815221A607B6800225A607A6825
:102FC00086235B000421D150A8235B00FC187A689B
:102FD000B968F868042300932300FDF773FC042309
:102FE000C0225200BA1813601EE0284BC8246400A7
:102FF0003A19D21898235B00D3581B02A82252001A
:10300000B918C02040003A1812688A181278134381
:1030100019001E4B3A19D21898235B00D1503B1867
:103020001B68013B3A181360C0235B00FB181B6848
:10303000002BDADB164B1B69BA256D007A19136079
:10304000124BC8225200BA18D4183B684C936B46F6
:1030500018002100103198235B001A0003F01CFCBB
:1030600020686168A268E3687C192468A047BC23D3
:103070005B00FB181B681800BD4664B0B0BDC046BD
:1030800038FDFFFF040A0020A000002080FEFFFFA3
:1030900048070020F0B5AF4CA5444EAFF860B960CA
:1030A0007A603B600023BE225200BA1813601FE012
:1030B0003A68BE2040003B181B680A339B00D318B7
:1030C00004331B68A44A527811003A1812688A180F
:1030D00079688A18127B134007D1BE225200BB18B0
:1030E0001B680133BA18136002E001235B422DE133
:1030F000BE235B00FB181B68012BD9DD0023BC221B
:103100005200BA18136017E0934B9B781A00BC204A
:1031100040003B181B68D3187A68D318197BAC237E
:103120005B00FA183B181B68D3180A1C1A703B186E
:103130001B6801333A181360BC235B00FB181B6843
:10314000012BE1DD854B1B68B62040003A18136067
:10315000AC235B00F9187A683B181B68100098478D
:103160000300B4225200B9180B60BB181B6801336E
:1031700002D101235B42E9E0794BC0225200BA1828
:10318000D4187868B4235B00FB181A688C235900A4
:1031900013009B009B189B01C3185B1820001900AB
:1031A000A0235B001A0003F077FB6D4BC022520096
:1031B0009446BC4463440522DA750423BA225200C3
:1031C000BA18136032E0664BC02040003A18D2189B
:1031D0009A235B00D3581B02BA2464003A19126880
:1031E0000A3279688A18127B134319005C4B3A182B
:1031F000D2189A235B00D150594B3A18D2189C230D
:103200005B00D3581B023A1912680E3279688A188B
:10321000127B13431900524B3A18D2189C235B00BF
:10322000D1503B191B68013B3A191360BA235B006C
:10323000FB181B68002BC6DC7B6815221A607B68B4
:1032400000225A607A6886235B000421D150AA23A9
:103250005B00FC187A68B968F868042300932300BF
:10326000FDF730FB0423B8225200BA1813601EE0A9
:103270003B4BC02464003A19D21898235B00D35802
:103280001B02AA225200B918B82040003A1812684E
:103290008A18127813431900314B3A19D21898231F
:1032A0005B00D1503B181B68013B3A181360B823F0
:1032B0005B00FB181B68002BDADB2A4B5B69B2252D
:1032C0006D007A1913607868B4267600BB191A6805
:1032D0008C23590013009B009B189B01C3185C189A
:1032E0003B684C936B4618002100103198235B001B
:1032F0001A0003F0D1FA20686168A268E3687C19BB
:103300002468A047BB191A687B6811001800FEF7F3
:103310000FF90300B0225200B9180B60BB181B68EC
:10332000002B11D17868B4235B00FB181A68302396
:10333000FF33190013009B009B189B01C3185B18F7
:1033400002221A70002301E001235B421800BD46EF
:1033500061B0F0BD44FDFFFF040A0020A000002082
:1033600090FEFFFF4807002080B582B000AF786074
:10337000044B1B681A687B681A6000231800BD465E
:1033800002B080BD4404002080B582B000AF7860F8
:10339000064B1B6819687B681A68044B1B680A4354
:1033A0001A6000231800BD4602B080BD440400200E
:1033B00080B582B000AF7860074B1B681A687B68E5
:1033C0001B68D943044B1B680A401A60002318008D
:1033D000BD4602B080BDC0464404002080B582B026
:1033E00000AF7860064B1B6859687B685A68044BCD
:1033F0001B680A435A6000231800BD4602B080BD16
:103400004404002080B582B000AF7860044B1B6894
:103410009A687B689A6000231800BD4602B080BDA0
:103420004404002080B582B000AF7860044B1B6874
:10343000DA687B68DA6000231800BD4602B080BD00
:103440004404002080B582B000AF7860064B1B6852
:10345000D9687B68DA68044B1B680A43DA6000238A
:103460001800BD4602B080BD4404002080B582B083
:1034700000AF7860074B1B68DA687B68DB68D9436C
:10348000044B1B680A40DA6000231800BD4602B0F6
:1034900080BDC0464404002080B582B000AF786093
:1034A000044B1B681A697B681A6100231800BD462B
:1034B00002B080BD4404002080B582B000AF7860C7
:1034C000064B1B6859697B685A69044B1B680A43A1
:1034D0005A6100231800BD4602B080BD440400209C
:1034E00080B582B000AF7860074B1B689A697B6833
:1034F0009B69D943044B1B680A409A61002318005A
:10350000BD4602B080BDC0464404002080B582B0F4
:1035100000AF7860044B1B68DA697B68DA610023CE
:103520001800BD4602B080BD4404002080B582B0C2
:1035300000AF7860064B1B68D9697B68DA69044B79
:103540001B680A43DA6100231800BD4602B080BD43
:103550004404002080B582B000AF7860074B1B6840
:10356000DA697B68DB69D943044B1B680A40DA617E
:1035700000231800BD4602B080BDC04644040020B0
:1035800080B582B000AF7860044B1B681A6A7B6814
:103590001A6200231800BD4602B080BD440400201A
:1035A00080B582B000AF7860064B1B68196A7B68F3
:1035B0001A6A044B1B680A431A6200231800BD46AE
:1035C00002B080BD4404002080B582B000AF7860B6
:1035D000074B1B681A6A7B681B6AD943044B1B683C
:1035E0000A401A6200231800BD4602B080BDC046E2
:1035F0004404002080B582B000AF7860044B1B68A3
:103600005A6A7B685A6200231800BD4602B080BD2A
:103610004404002080B582B000AF7860064B1B6880
:10362000596A7B685A6A044B1B680A435A62002332
:103630001800BD4602B080BD4404002080B582B0B1
:1036400000AF7860074B1B685A6A7B685B6AD94396
:10365000044B1B680A405A6200231800BD4602B0A2
:1036600080BDC0464404002080B582B000AF7860C1
:10367000044B1B689A6A7B689A6200231800BD4657
:1036800002B080BD4404002080B582B000AF7860F5
:10369000064B1B68996A7B689A6A044B1B680A434D
:1036A0009A6200231800BD4602B080BD4404002089
:1036B00080B582B000AF7860074B1B689A6A7B6860
:1036C0009B6AD943044B1B680A409A620023180086
:1036D000BD4602B080BDC0464404002080B582B023
:1036E00000AF7860044B1B681A6B7B68DA620023BA
:1036F0001800BD4602B080BD4404002080B582B0F1
:1037000000AF7860064B1B68196B7B68DA6A044B64
:103710001B680A431A6300231800BD4602B080BD2F
:103720004404002080B582B000AF7860074B1B686E
:103730001A6B7B68DB6AD943044B1B680A401A6327
:1037400000231800BD4602B080BDC04644040020DE
:1037500080B582B000AF7860044B1B685A6B7B6801
:103760001A6300231800BD4602B080BD4404002047
:1037700080B582B000AF7860064B1B68596B7B68E0
:103780001A6B044B1B680A435A6300231800BD469A
:1037900002B080BD4404002080B582B000AF7860E4
:1037A000074B1B685A6B7B681B6BD943044B1B6828
:1037B0000A405A6300231800BD4602B080BDC046CF
:1037C0004404002080B582B000AF7860044B1B68D1
:1037D000DA6B7B685A6300231800BD4602B080BDD7
:1037E0004404002080B582B000AF7860064B1B68AF
:1037F000D96B7B689A6B044B1B680A43DA6300231E
:103800001800BD4602B080BD4404002080B582B0DF
:1038100000AF7860074B1B68DA6B7B689B6BD94302
:10382000044B1B680A40DA6300231800BD4602B04F
:1038300080BDC0464404002080B582B000AF7860EF
:10384000044B1B681A6B7B68DA6300231800BD46C3
:1038500002B080BD4404002080B582B000AF786023
:10386000064B1B68196B7B68DA6B044B1B680A43B9
:103870001A6300231800BD4602B080BD4404002036
:1038800080B582B000AF7860074B1B681A6B7B680D
:10389000DB6BD943044B1B680A401A6300231800F2
:1038A000BD4602B080BDC0464404002080B582B051
:1038B00000AF7860044B1B685A6B7B681A64002366
:1038C0001800BD4602B080BD4404002080B582B01F
:1038D00000AF7860064B1B68596B7B681A6C044B11
:1038E0001B680A435A6300231800BD4602B080BD1E
:1038F0004404002080B582B000AF7860074B1B689D
:103900005A6B7B681B6CD943044B1B680A405A6393
:1039100000231800BD4602B080BDC046440400200C
:1039200080B582B000AF7860044B1B68DA6B7B68AF
:103930005A6400231800BD4602B080BD4404002034
:1039400080B582B000AF7860064B1B68D96B7B688E
:103950009A6C044B1B680A43DA6300231800BD46C7
:1039600002B080BD4404002080B582B000AF786012
:10397000074B1B68DA6B7B689B6CD943044B1B6855
:103980000A40DA6300231800BD4602B080BDC0467D
:103990004404002080B582B000AF7860044B1B68FF
:1039A0001A6B7B68DA6400231800BD4602B080BD44
:1039B0004404002080B582B000AF7860064B1B68DD
:1039C000196B7B68DA6C044B1B680A431A6300238B
:1039D0001800BD4602B080BD4404002080B582B00E
:1039E00000AF7860074B1B681A6B7B68DB6CD943B0
:1039F000044B1B680A401A6300231800BD4602B03E
:103A000080BDC0464404002080B582B000AF78601D
:103A1000044B1B685A6B7B681A6500231800BD466F
:103A200002B080BD4404002080B582B000AF786051
:103A3000064B1B68596B7B681A6D044B1B680A4365
:103A40005A6300231800BD4602B080BD4404002024
:103A500080B582B000AF7860074B1B685A6B7B68FB
:103A60001B6DD943044B1B680A405A63002318009E
:103A7000BD4602B080BDC0464404002080B582B07F
:103A800000AF7860044B1B68DA6B7B685A650023D3
:103A90001800BD4602B080BD4404002080B582B04D
:103AA00000AF7860064B1B68D96B7B689A6D044B3E
:103AB0001B680A43DA6300231800BD4602B080BDCC
:103AC0004404002080B582B000AF7860074B1B68CB
:103AD000DA6B7B689B6DD943044B1B680A40DA6341
:103AE00000231800BD4602B080BDC046440400203B
:103AF00080B582B000AF7860044B1B689A6B7B681E
:103B00005A6300231800BD4602B080BD4404002063
:103B100080B582B000AF7860044B1B689A6B7B68FD
:103B20005A6400231800BD4602B080BD4404002042
:103B300080B582B000AF7860044B1B689A6B7B68DD
:103B40005A6500231800BD4602B080BD4404002021
:103B500080B500AF024B01221A64C046BD4680BD4D
:103B600000000C4090B591B002AFFFF7F1FF664B3B
:103B70009B6C3B63644B9B6DFB62634B80229B5849
:103B8000BB62614B1B6E7B625F4A8A235B00D3582A
:103B90003B625D4BD0229B58FB615B4BC4229B5820
:103BA000BB61594BA4229B587B61574B9C229B586D
:103BB0003B613A6B544B11001800FCF741FE524A2E
:103BC000B6235B00D358FB60FB6804221A62F969D4
:103BD0004D4B16221800FCF741FE396A4A4B182259
:103BE0001800FCF74BFEFB68DB6A08221340F4D098
:103BF000FB6802225A62F969434B17221800FCF74E
:103C00002DFEFB6802221A62F9693F4B162218004A
:103C1000FCF724FE7A6A3C4B1100180002F012F9FE
:103C2000BA6A394B11001800FDF776FEFA6A364B76
:103C300011001800FCF7E4FD344B9B69BB60334B6B
:103C40001B6A7B607969304BFA22180002F008F990
:103C5000B9692D480A23009302230122FDF76AFE69
:103C60007969294BFA22180002F0FAF8B969264856
:103C70000B23009302230122FDF75CFE7969224B9E
:103C8000FA22180002F0ECF8B9691F4804230093E7
:103C900005230122FDF74EFE00237B6320E07969B6
:103CA000194B3222180002F0DBF8B96916480A23D2
:103CB000009302230222FDF73DFEB96912480B234F
:103CC000009302230222FDF735FEB9690E48042352
:103CD000009305230222FDF72DFE7B6B01337B63EE
:103CE0007B6B022BDBDD7969074B3222180002F077
:103CF000B7F87C68054A396903480123009323001B
:103D0000FCF78CFDC8E7C046B8020020A8060020DA
:103D100090B591B000AFF860B9607A607B68FB63E2
:103D2000BB68BB63FB687B637B6B1B6F3B637B6B1D
:103D30001B6CFB62FA6B13009B009B189B011933F1
:103D4000FF33FA6AD318BB62BB6ADB7D7B62BA6B56
:103D5000FB6A1100180000F02DF803003B62FB6BBA
:103D600001330BD1114BBA6B9200D3587B613A6A85
:103D7000396BF86A7B699847030012E00C4B7A6A4A
:103D80009200D358FB613B6A3A6BB96AF86AFC69E6
:103D9000A0470300BB61BB69002B01D1FB6B00E0B6
:103DA00000231800BD4611B090BDC0466808002031
:103DB000F06A000080B586B000AF786039600123FA
:103DC0007B6100233B6112E00D4B3A699200D358AE
:103DD000FB6039687A68FB68100098470300BB6095
:103DE0007A69BB68D3187B613B6901333B613A69EF
:103DF0007B699A42E8DB7B691800BD4606B080BD4E
:103E0000086B000080B586B000AFF860B9607A60DA
:103E10003B60BB6801221A60BB689B7D0133DAB24C
:103E2000BB689A75BB680022DA753B687B61434BBF
:103E30001878FA688B217B69D3185B18021C1A70FA
:103E40007B6901337B61BB68987DFA688B217B6954
:103E5000D3185B18021C1A707B68DA6A7B6901331D
:103E60007B61D0B2FA688B217B69D3185B18021C86
:103E70001A707B681A6B7B6901337B61D0B2FA6878
:103E80008B217B69D3185B18021C1A707B685A6BF4
:103E90007B6901337B61D0B2FA688B217B69D318CF
:103EA0005B18021C1A707B689A6B7B6901337B611B
:103EB000D0B2FA688B217B69D3185B18021C1A7088
:103EC0007B68DA6B7B6901337B61D0B2FA688B2146
:103ED0007B69D3185B18021C1A707B681A6C7B69AB
:103EE00001337B61D0B2FA688B217B69D3185B18F0
:103EF000021C1A707B685A6C7B6901337B61D0B2FB
:103F0000FA688B217B69D3185B18021C1A707B68D6
:103F10009A6C7B6901337B61D0B2FA688B217B6933
:103F2000D3185B18021C1A70FA6888235B00796941
:103F3000D15000231800BD4606B080BD000000200F
:103F400080B586B000AFF860B9607A603B60BB684E
:103F50009B7D0133DAB2BB689A75BB680122DA75C2
:103F60007B681B6FDAB2BB681A757B685B6FDAB26D
:103F7000BB685A753B687B617C4B9878FA688B21EB
:103F80007B69D3185B18021C1A707B6901337B6153
:103F9000764BD878FA688B217B69D3185B18021CA2
:103FA0001A707B6901337B61BB68987DFA688B214D
:103FB0007B69D3185B18021C1A707B6901337B6123
:103FC000BB68187AFA688B217B69D3185B18021CCE
:103FD0001A707B6901337B61BB68587AFA688B2160
:103FE0007B69D3185B18021C1A707B6901337B61F3
:103FF000BB68987AFA688B217B69D3185B18021C1E
:104000001A707B6901337B61BB68D87AFA688B21AF
:104010007B69D3185B18021C1A707B6901337B61C2
:10402000BB68187BFA688B217B69D3185B18021C6C
:104030001A707B6901337B61BB68587BFA688B21FE
:104040007B69D3185B18021C1A707B6901337B6192
:10405000BB68987BFA688B217B69D3185B18021CBC
:104060001A707B6901337B61BB68D87BFA688B214E
:104070007B69D3185B18021C1A707B6901337B6162
:10408000BB68187CFA688B217B69D3185B18021C0B
:104090001A707B6901337B61BB68587CFA688B219D
:1040A0007B69D3185B18021C1A707B68DA6A7B691B
:1040B00001337B61D0B2FA688B217B69D3185B181E
:1040C000021C1A707B681A6B7B6901337B61D0B26A
:1040D000FA688B217B69D3185B18021C1A70244B79
:1040E0005A687B6901337B61D0B2FA688B217B69A6
:1040F000D3185B18021C1A707B6901337B61BB68A3
:10410000987AFA688B217B69D3185B18021C1A70A5
:104110007B6901337B61BB68D87AFA688B217B6944
:10412000D3185B18021C1A707B6901337B61BB6872
:10413000187DFA688B217B69D3185B18021C1A70F2
:104140007B6901337B61BB68587DFA688B217B6991
:10415000D3185B18021C1A70FA6888235B0079690F
:10416000D15000231800BD4606B080BD00000020DD
:10417000D868000080B586B000AFF860B9607A609A
:104180003B60BB689B7D0133DAB2BB689A75BB6844
:104190000222DA753B687B61404B1879FA688B2103
:1041A0007B69D3185B18021C1A707B6901337B6131
:1041B0003A4B5879FA688B217B69D3185B18021C3B
:1041C0001A707B6901337B61BB68987DFA688B212B
:1041D0007B69D3185B18021C1A707B6901337B6101
:1041E000BB68187AFA688B217B69D3185B18021CAC
:1041F0001A707B6901337B61BB68587AFA688B213E
:104200007B69D3185B18021C1A707B6901337B61D0
:10421000BB68987CFA688B217B69D3185B18021CF9
:104220001A707B6901337B61BB68D87CFA688B218B
:104230007B69D3185B18021C1A707B68DA6A7B6989
:1042400001337B61D0B2FA688B217B69D3185B188C
:10425000021C1A707B681A6B7B6901337B61D0B2D8
:10426000FA688B217B69D3185B18021C1A700C4BFF
:104270009A687B6901337B61D0B2FA688B217B69D4
:10428000D3185B18021C1A70FA6888235B007969DE
:10429000D15000231800BD4606B080BD00000020AC
:1042A000D868000080B588B000AFF860B9607A6067
:1042B0003B60BB689B7D0133DAB2BB689A75BB6813
:1042C0000322DA753B68FB61584B1879FA688B2139
:1042D000FB69D3185B18021C1A70FB690133FB6180
:1042E000524B5879FA688B21FB69D3185B18021C72
:1042F0001A70FB690133FB61BB68987DFA688B21FA
:10430000FB69D3185B18021C1A70FB690133FB614F
:10431000BB68187AFA688B21FB69D3185B18021CFA
:104320001A70FB690133FB61BB68587AFA688B210C
:10433000FB69D3185B18021C1A70FB690133FB611F
:10434000BB68987CFA688B21FB69D3185B18021C48
:104350001A70FB690133FB61BB68D87CFA688B215A
:10436000FB69D3185B18021C1A707B68DA6AFB6958
:104370000133FB61D0B2FA688B21FB69D3185B185B
:10438000021C1A707B681A6BFB690133FB61D0B2A7
:10439000FA688B21FB69D3185B18021C1A70244B36
:1043A000DA68FB690133FB61D0B2FA688B21FB69E3
:1043B000D3185B18021C1A701E4BDB687B61BA684D
:1043C0007B6910009847BA689C235B00D258FB6950
:1043D0000133FB61D0B2FA688B21FB69D3185B18FB
:1043E000021C1A700123BB6112E0BA689C235B00B7
:1043F000D3581A0AFB690133FB61D0B2FA688B21EA
:10440000FB69D3185B18021C1A70BB690133BB61CE
:10441000BB69032BE9DDFA6888235B00F969D15099
:1044200000231800BD4608B080BDC0460000002033
:10443000D86800004807002080B588B000AFF86059
:10444000B9607A603B60BB689B7D0133DAB2BB68C0
:104450009A75BB680422DA753B68FB616C4B18796E
:10446000FA688B21FB69D3185B18021C1A70FB6970
:104470000133FB61664B5879FA688B21FB69D318CD
:104480005B18021C1A70FB690133FB61BB68987DE5
:10449000FA688B21FB69D3185B18021C1A70FB6940
:1044A0000133FB61BB68187AFA688B21FB69D3186A
:1044B0005B18021C1A70FB690133FB61BB68587AF8
:1044C000FA688B21FB69D3185B18021C1A70FB6910
:1044D0000133FB61BB68987CFA688B21FB69D318B8
:1044E0005B18021C1A70FB690133FB61BB68D87C46
:1044F000FA688B21FB69D3185B18021C1A707B6861
:10450000DA6AFB690133FB61D0B2FA688B21FB697F
:10451000D3185B18021C1A707B681A6BFB69013395
:10452000FB61D0B2FA688B21FB69D3185B18021CBF
:104530001A70384B1A69FB690133FB61D0B2FA6813
:104540008B21FB69D3185B18021C1A70324B1B6954
:104550003B61BA683B6910009847BA689A235B00D0
:10456000D258FB690133FB61D0B2FA688B21FB6939
:10457000D3185B18021C1A700123BB6112E0BA68E1
:104580009A235B00D3581A0AFB690133FB61D0B24E
:10459000FA688B21FB69D3185B18021C1A70BB697F
:1045A0000133BB61BB69032BE9DDBA689C235B0067
:1045B000D258FB690133FB61D0B2FA688B21FB69E9
:1045C000D3185B18021C1A7001237B6112E0BA68D1
:1045D0009C235B00D3581A0AFB690133FB61D0B2FC
:1045E000FA688B21FB69D3185B18021C1A707B696F
:1045F00001337B617B69032BE9DDFA6888235B006B
:10460000F969D15000231800BD4608B080BDC046EE
:1046100000000020D86800004807002080B588B05E
:1046200000AFF860B9607A607B68FB61BB685B6A69
:104630007B610023BB6111E0FB690133FB61BA6858
:10464000BB69D31814331878FA688B21FB69D31827
:104650005B18021C1A70BB690133BB61BB697A69C4
:104660009A42E9D8FA6888235B00F969D15000239F
:104670001800BD4608B080BD80B588B000AFF860B6
:10468000B9607A607B68FB61BB689B6A7B610023D1
:10469000BB6111E0FB690133FB61BA68BB69D318E8
:1046A00014331878FA688B21FB69D3185B18021C45
:1046B0001A70BB690133BB61BB697A699A42E9D858
:1046C000FA6888235B00F969D15000231800BD46C1
:1046D00008B080BD80B584B000AF786039607B6879
:1046E0001B68FB60144A3B68D31819787B688B22DF
:1046F00099547B688B229A5C1049FB68CB181B7815
:104700001343D9B27B688B2299547B688B229B5CC4
:104710000B49FA688A1812781343D9B27B688B2246
:1047200099547B688B229B5C1A004023134018002D
:10473000BD4604B080BDC046740800207808002043
:10474000A008002080B584B000AF786039607B6835
:104750001B68FB607B685A680B217B181A707B68AA
:104760008C229A5C7B181B781343D9B27B688C220D
:1047700099547B688C229B5C0949FA688A181278E4
:104780001343D9B27B688C2299547B688C229B5C42
:104790001A00802313401800BD4604B080BDC046F7
:1047A000C808002080B584B000AF786039607B68AD
:1047B0009A680F217B181A707B687A188D211278FD
:1047C0005A5400231800BD4604B080BD80B582B0A5
:1047D00000AF7860044B1B681A687B681A6000237E
:1047E0001800BD4602B080BD3804002080B582B0FC
:1047F00000AF7860064B1B6819687B681A68044B29
:104800001B680A431A6000231800BD4602B080BD31
:104810003804002080B582B000AF7860074B1B6879
:104820001A687B681B68D943044B1B680A401A60EE
:1048300000231800BD4602B080BDC04638040020E9
:1048400080B582B000AF7860044B1B685A687B6803
:104850005A6000231800BD4602B080BD3804002015
:1048600080B582B000AF7860064B1B6859687B68E2
:104870005A68044B1B680A435A6000231800BD465F
:1048800002B080BD3804002080B582B000AF7860EF
:10489000074B1B685A687B685B68D943044B1B68ED
:1048A0000A405A6000231800BD4602B080BDC046D1
:1048B0003804002080B582B000AF7860044B1B68DC
:1048C0009A687B689A6000231800BD4602B080BDDC
:1048D0003804002080B582B000AF7860064B1B68BA
:1048E00099687B689A68044B1B680A439A600023A6
:1048F0001800BD4602B080BD3804002080B582B0EB
:1049000000AF7860074B1B689A687B689B68D94347
:10491000044B1B680A409A6000231800BD4602B091
:1049200080BDC0463804002080B582B000AF7860FA
:10493000044B1B68DA687B68DA6000231800BD4608
:1049400002B080BD3804002080B582B000AF78602E
:10495000064B1B68D9687B68DA68044B1B680A43FE
:10496000DA6000231800BD4602B080BD3804002084
:1049700080B582B000AF7860074B1B68DA687B684F
:10498000DB68D943044B1B680A40DA600023180037
:10499000BD4602B080BDC0463804002080B582B05C
:1049A00000AF7860044B1B681A697B681A610023AA
:1049B0001800BD4602B080BD3804002080B582B02A
:1049C00000AF7860064B1B6819697B681A69044B55
:1049D0001B680A431A6100231800BD4602B080BD5F
:1049E0003804002080B582B000AF7860074B1B68A8
:1049F00019697B681B69DA43044B1B680A431A6117
:104A000000231800BD4602B080BDC0463804002017
:104A100080B582B000AF7860044B1B685A697B6830
:104A20005A6100231800BD4602B080BD3804002042
:104A300080B582B000AF7860064B1B6859697B680F
:104A40005A69044B1B680A435A6100231800BD468B
:104A500002B080BD3804002080B582B000AF78601D
:104A6000074B1B685A697B685B69D943044B1B6819
:104A70000A405A6100231800BD4602B080BDC046FE
:104A80003804002080B582B000AF7860044B1B680A
:104A90009A697B689A6100231800BD4602B080BD08
:104AA0003804002080B582B000AF7860064B1B68E8
:104AB00099697B689A69044B1B680A439A610023D1
:104AC0001800BD4602B080BD3804002080B582B019
:104AD00000AF7860074B1B689A697B689B69D94374
:104AE000044B1B680A409A6100231800BD4602B0BF
:104AF00080BDC0463804002080B582B000AF786029
:104B0000044B1B68DA697B68DA6100231800BD4634
:104B100002B080BD3804002080B582B000AF78605C
:104B2000064B1B68D9697B68DA69044B1B680A432A
:104B3000DA6100231800BD4602B080BD38040020B1
:104B400080B582B000AF7860074B1B68DA697B687C
:104B5000DB69D943044B1B680A40DA610023180063
:104B6000BD4602B080BDC0463804002080B582B08A
:104B700000AF7860044B1B687A68126A1A620023DF
:104B80001800BD4602B080BD3804002080B582B058
:104B900000AF7860064B1B68596A7B685A6A044B01
:104BA0001B680A435A6200231800BD4602B080BD4C
:104BB0003804002080B582B000AF7860044B1B68D9
:104BC0009A6A7B689A6200231800BD4602B080BDD5
:104BD0003804002080B582B000AF7860064B1B68B7
:104BE000996A7B689A6A044B1B680A439A6200239D
:104BF0001800BD4602B080BD3804002080B582B0E8
:104C000000AF7860074B1B689A6A7B689B6AD94340
:104C1000044B1B680A409A6200231800BD4602B08C
:104C200080BDC0463804002080B582B000AF7860F7
:104C3000044B1B68DA6A7B68DA6200231800BD4601
:104C400002B080BD3804002080B582B000AF78602B
:104C5000044B1B681A6B7B681A6300231800BD465F
:104C600002B080BD3804002080B582B000AF78600B
:104C7000064B1B68596B7B685A6B044B1B680A43D5
:104C80005A6300231800BD4602B080BD38040020DE
:104C900080B582B000AF7860074B1B689A6B7B6869
:104CA0009B6BD943044B1B680A409A63002318008E
:104CB000BD4602B080BDC0463804002080B582B039
:104CC00000AF7860044B1B68DA6B7B68DA63002303
:104CD0001800BD4602B080BD3804002080B582B007
:104CE00000AF7860064B1B68D96B7B68DA6B044BAE
:104CF0001B680A43DA6300231800BD4602B080BD7A
:104D00003804002080B582B000AF7860074B1B6884
:104D1000DA6B7B68DB6BD943044B1B680A40DA63B0
:104D200000231800BD4602B080BDC04638040020F4
:104D300080B582B000AF7860044B1B681A6C7B684A
:104D40001A6400231800BD4602B080BD380400205C
:104D500080B582B000AF7860064B1B68196C7B6829
:104D60001A6C044B1B680A431A6400231800BD46E2
:104D700002B080BD3804002080B582B000AF7860FA
:104D8000074B1B681A6C7B681B6CD943044B1B6870
:104D90000A401A6400231800BD4602B080BDC04618
:104DA0003804002080B582B000AF7860044B1B68E7
:104DB0005A6C7B685A6400231800BD4602B080BD5F
:104DC0003804002080B582B000AF7860064B1B68C5
:104DD000596C7B685A6C044B1B680A435A64002365
:104DE0001800BD4602B080BD3804002080B582B0F6
:104DF00000AF7860074B1B685A6C7B685B6CD943CB
:104E0000044B1B680A405A6400231800BD4602B0D8
:104E100080BDC0463804002080B582B000AF786005
:104E2000044B1B681A6D7B689A6400231800BD460A
:104E300002B080BD3804002080B582B000AF786039
:104E4000044B1B685A6D7B68DA6400231800BD466A
:104E500002B080BD3804002080B582B000AF786019
:104E6000064B1B68596D7B68DA6C044B1B680A4360
:104E70005A6500231800BD4602B080BD38040020EA
:104E800080B582B000AF7860074B1B685A6D7B68B5
:104E9000DB6CD943044B1B680A405A650023180099
:104EA000BD4602B080BDC0463804002080B582B047
:104EB00000AF7860044B1B689A6D7B681A6500230D
:104EC0001800BD4602B080BD3804002080B582B015
:104ED00000AF7860064B1B68996D7B681A6D044BB8
:104EE0001B680A439A6500231800BD4602B080BDC6
:104EF0003804002080B582B000AF7860074B1B6893
:104F00009A6D7B681B6DD943044B1B680A409A65F8
:104F100000231800BD4602B080BDC0463804002002
:104F200080B582B000AF7860044B1B681A6E7B6856
:104F30005A6500231800BD4602B080BD3804002029
:104F400080B582B000AF7860064B1B68196E7B6835
:104F50005A6D044B1B680A431A6600231800BD46AD
:104F600002B080BD3804002080B582B000AF786008
:104F7000074B1B681A6E7B685B6DD943044B1B683B
:104F80000A401A6600231800BD4602B080BDC04624
:104F90003804002080B582B000AF7860044B1B68F5
:104FA0009A6E7B689A6500231800BD4602B080BDEA
:104FB0003804002080B582B000AF7860064B1B68D3
:104FC000996E7B689A6D044B1B680A439A660023AE
:104FD0001800BD4602B080BD3804002080B582B004
:104FE00000AF7860074B1B689A6E7B689B6DD94356
:104FF000044B1B680A409A6600231800BD4602B0A5
:1050000080BDC0463804002080B582B000AF786013
:10501000044B1B681A6F7B68DA6500231800BD46D5
:1050200002B080BD3804002080B582B000AF786047
:10503000064B1B68196F7B68DA6D044B1B680A43CB
:105040001A6700231800BD4602B080BD3804002056
:1050500080B582B000AF7860074B1B681A6F7B6821
:10506000DB6DD943044B1B680A401A670023180004
:10507000BD4602B080BDC0463804002080B582B075
:1050800000AF7860044B1B689A6F7B681A66002338
:105090001800BD4602B080BD3804002080B582B043
:1050A00000AF7860064B1B68996F7B681A6E044BE3
:1050B0001B680A439A6700231800BD4602B080BDF2
:1050C0003804002080B582B000AF7860074B1B68C1
:1050D0009A6F7B681B6ED943044B1B680A409A6722
:1050E00000231800BD4602B080BDC0463804002031
:1050F00080B582B000AF7860054B1B6880229A585B
:105100007B685A6600231800BD4602B080BDC046C9
:105110003804002080B582B000AF7860074B1B6870
:10512000802299587B685A6E044B1B680A43802181
:105130005A5000231800BD4602B080BD380400203C
:1051400080B582B000AF7860084B1B6880229A5807
:105150007B685B6ED943054B1B680A4080215A501F
:1051600000231800BD4602B080BDC04638040020B0
:1051700080B582B000AF7860054B1B6884229A58D6
:105180007B689A6600231800BD4602B080BDC04609
:105190003804002080B582B000AF7860074B1B68F0
:1051A000842299587B689A6E044B1B680A438421B9
:1051B0005A5000231800BD4602B080BD38040020BC
:1051C00080B582B000AF7860084B1B6884229A5883
:1051D0007B689B6ED943054B1B680A4084215A505B
:1051E00000231800BD4602B080BDC0463804002030
:1051F00080B586B000AFF860B9607A603B60C046A9
:10520000234B1B681B691B0A012213405A1E934142
:10521000DAB23B681A713B681B7901225340DBB25A
:10522000002BEDD11A4B1B689B697B617B699B0B43
:10523000012213405A1E9341DAB27B685A707B6890
:105240005B78002B02D001235B421CE07B69DB0B07
:10525000012213405A1E9341DAB27B681A707B68B0
:105260001B78002B02D002235B420CE0FB687A69BA
:105270001A6080235B001A007B6913401B0ADAB2B4
:10528000BB681A7000231800BD4606B080BDC0463A
:105290003C04002080B584B000AFF860B9607A604B
:1052A0003B6000237B600023BB60C0460D4B1B6846
:1052B0001B691B0A012213405A1E9341DAB23B6854
:1052C0001A713B681B7901225340DBB2002BEDD1F0
:1052D000044B1B68DA69FB685A6000231800BD465E
:1052E00004B080BD3C04002080B586B000AFF860FB
:1052F000B9607A603B60C046234B1B681B691B0A80
:10530000012213405A1E9341DAB23B681A713B687E
:105310001B7901225340DBB2002BEDD11A4B1B68E5
:105320009B6A7B617B699B0B012213405A1E934150
:10533000DAB27B68DA707B68DB78002B02D001235D
:105340005B421CE07B69DB0B012213405A1E934138
:10535000DAB27B689A707B689B78002B02D00223BC
:105360005B420CE0FB687A691A6180235B001A00DB
:105370007B6913401B0ADAB2BB685A70002318001D
:10538000BD4606B080BDC0463C04002080B586B056
:1053900000AFF860B9607A603B60C0463A4B1B686A
:1053A0001B691B0A012213405A1E9341DAB23B6863
:1053B0001A713B681B7901225340DBB2002BEDD1FF
:1053C000314B1B681B6A7B617B699B0B012213407D
:1053D0005A1E9341DAB27B685A717B685B79002B65
:1053E00002D001235B424BE07B69DB0B01221340BF
:1053F0005A1E9341DAB27B681A717B681B79002BC5
:1054000002D002235B423BE07B699B0F01221340E9
:105410005A1E9341DAB27B68DA717B68DB79002B24
:1054200002D003235B422BE07B69DB0F5A1E9341C2
:10543000DAB27B689A717B689B79002B02D00423D7
:105440005B421DE0FF231A007B691A407B691B0C3D
:10545000FF210B401B021A43FB689A6080235B000C
:105460001A007B6913401B0ADAB2BB689A7080236A
:105470005B047A6913401B0EDAB2BB68DA70002352
:105480001800BD4606B080BD3C04002080B584B045
:1054900000AFF860B9607A603B6000237B60002356
:1054A000BB60C0460D4B1B681B691B0A01221340E1
:1054B0005A1E9341DAB23B681A713B681B7901228C
:1054C0005340DBB2002BEDD1044B1B685A6AFB68DA
:1054D000DA6000231800BD4604B080BD3C04002003
:1054E00080B586B000AFF860B9607A603B60C046B6
:1054F0003A4B1B681B691B0A012213405A1E934139
:10550000DAB23B681A713B681B7901225340DBB267
:10551000002BEDD1314B1B68DB6A7B617B699B0BF8
:10552000012213405A1E9341DAB27B68DA727B681B
:10553000DB7A002B02D001235B424BE07B69DB0B63
:10554000012213405A1E9341DAB27B689A727B683B
:105550009B7A002B02D002235B423BE07B699B0FCE
:10556000012213405A1E9341DAB27B685A737B685A
:105570005B7B002B02D003235B422BE07B69DB0FBC
:105580005A1E9341DAB27B681A737B681B7B002B2F
:1055900002D004235B421DE0FF231A007B691A40FE
:1055A0007B691B0CFF210B401B021A43FB685A61ED
:1055B00080235B001A007B6913401B0ADAB2BB68C8
:1055C0001A7180235B047A6913401B0EDAB2BB6840
:1055D0005A7100231800BD4606B080BD3C0400206F
:1055E00080B586B000AFF860B9607A603B60002398
:1055F0007B60BB68002B30D0FB689B699BB2FF22AD
:1056000092B213409AB2BB68DB881B029BB2134371
:105610009AB2BB689B8B13439AB2BB68DB8B134374
:105620009AB2BB681B8C13439AB2BB685B8C134362
:1056300099B2BB689A8C1423FB180A431A80C0469F
:10564000184B1B681B6940221340F9D0154B1B688F
:105650001422BA1812881A631BE0FB689B699BB27C
:10566000FF2292B2134099B2BB68DB881B029AB248
:105670001623FB180A431A80C0460A4B1B681B6995
:1056800040221340F9D0074B1B681622BA18128823
:105690001A63044B1B6820229A6400231800BD463D
:1056A00006B080BD3C04002080B584B000AFF86037
:1056B000B9607A603B6000237B600023BB60C0461A
:1056C000094B1B681B6940221340F9D0064B1B682D
:1056D000FA68D2695A63044B1B6820229A6400233B
:1056E0001800BD4604B080BD3C04002080B586B0E3
:1056F00000AFF860B9607A603B6000237B60BB68F4
:10570000002B3DD0FB681B6AFF221A40BB68DB6898
:105710001B021343BA68928B1343BA68D28B1343AC
:10572000BA68128C1343BA68528C1343BA68928CCD
:105730001A43FB681B6A1B0AFF210B401B041A4318
:10574000BB681B691B061A43BB689B6A1A43BB688C
:10575000DB6A1A43BB681B6B1A43BB685B6B1A435B
:10576000BB689B6B13437B61C046144B1B681B6972
:1057700040221340F9D0114B1B687A699A6313E0F9
:10578000FB681B6AFF221A40FB681B6A1B04134359
:105790007B61C046094B1B681B6940221340F9D04E
:1057A000064B1B687A699A63044B1B6820229A6433
:1057B00000231800BD4606B080BDC0463C04002052
:1057C00080B584B000AFF860B9607A603B600023B8
:1057D000BB6000237B60C046094B1B681B694022ED
:1057E0001340F9D0064B1B68FA68526ADA63044B1F
:1057F0001B6820229A6400231800BD4604B080BDB7
:105800003C04002080B586B000AFF860B9607A60D3
:10581000BB687B61FB6819687A697B68D318CAB278
:105820001A70C046BD4606B080BD80B586B000AFD8
:10583000F860B9607A60BB687B61FB6859687A6917
:105840007B68D318CAB21A70C046BD4606B080BD88
:1058500080B586B000AFF860B9607A60BB687B61E4
:10586000FB6899687B685B007A69D3188AB21A80F2
:10587000C046BD4606B080BD80B586B000AFF860BA
:10588000B9607A60BB687B61FB68D9687B685B0044
:105890007A69D3188AB21A80C046BD4606B080BD68
:1058A00080B586B000AFF860B9607A60BB687B6194
:1058B000FB6819697A697B68D318CAB21A70C04646
:1058C000BD4606B080BD80B586B000AFF860B96057
:1058D0007A60BB687B61FB6859697B685B007A69A9
:1058E000D3188AB21A80C046BD4606B080BD80B5C6
:1058F00086B000AFF860B9607A60BB687B617A6996
:105900007B68D3181B781A00FB689A61C046BD46B5
:1059100006B080BD80B586B000AFF860B9607A602F
:10592000BB687B617A697B68D3181B781A00FB68B7
:10593000DA61C046BD4606B080BD80B586B000AF16
:10594000F860B9607A60BB687B617B685B007A69EC
:10595000D3181B881A00FB681A62C046BD4606B001
:1059600080BD80B586B000AFF860B9607A60BB6872
:105970007B617B685B007A69D3181B881A00FB681F
:105980005A62C046BD4606B080BD000080B582B0F8
:1059900000AF084B7B60084B1B889BB201339AB267
:1059A000054B1A807B6801229A61C046BD4602B051
:1059B00080BDC04600000140100A002080B582B0C2
:1059C00000AF7860044B1B681A687B681A6000237C
:1059D0001800BD4602B080BD3C04002080B582B0F6
:1059E00000AF7860064B1B6819687B681A68044B27
:1059F0001B680A431A6000231800BD4602B080BD30
:105A00003C04002080B582B000AF7860074B1B6873
:105A10001A687B681B68D943044B1B680A401A60EC
:105A200000231800BD4602B080BDC0463C040020E3
:105A300080B582B000AF7860044B1B685A687B6801
:105A40005A6000231800BD4602B080BD3C0400200F
:105A500080B582B000AF7860064B1B6859687B68E0
:105A60005A68044B1B680A435A6000231800BD465D
:105A700002B080BD3C04002080B582B000AF7860E9
:105A8000074B1B685A687B685B68D943044B1B68EB
:105A90000A405A6000231800BD4602B080BDC046CF
:105AA0003C04002080B582B000AF7860044B1B68D6
:105AB0009A687B689A6000231800BD4602B080BDDA
:105AC0003C04002080B582B000AF7860064B1B68B4
:105AD00099687B689A68044B1B680A439A600023A4
