:1000000000100020410100006D0100006D010000A2
:100010006D0100006D0100006D0100006D01000028
:100020006D0100006D0100006D0100006D01000018
:100030006D0100006D0100006D0100006D01000008
:100040006D0100006D0100006D0100006D010000F8
:100050006D0100006D0100006D0100006D010000E8
:100060006D0100006D0100006D0100006D010000D8
:100070006D0100006D0100006D0100006D010000C8
:100080006D0100006D0100006D01000010B5064C0F
:100090002378002B07D1054B002B02D0044800E049
:1000A00000BF0123237010BDD8070020000000000E
:1000B000E8370000044B10B5002B03D00349044877
:1000C00000E000BF10BDC04600000000DC070020BB
:1000D000E8370000144B002B00D1124B9D46402204
:1000E00092029A1A924600218B460F461148124AF4
:1000F000121A03F05BF80D4B002B00D098470C4B05
:10010000002B00D098470020002104000D000B4870
:1001100002F0F6FF03F026F82000290001F02CFC85
:1001200002F0F6FF000008000010002000000000B0
:1001300000000000D8070020680900203D310000C1
:10014000064880470649074A074B9B1A03DD043BD4
:10015000C858D050FBDCFFF7BDFF00008111000044
:10016000F437000000000020D8070020FEE7C0465A
:1001700080B584B000AFF860B9607A60B968FA6899
:100180007B681000984703001800BD4604B080BD8E
:1001900080B584B000AFF860B9607A60B968FA6879
:1001A0007B681000984703001800BD4604B080BD6E
:1001B00080B582B000AF78600A4B19687B688422F2
:1001C0009A587B68842018581300DB009B189B000A
:1001D00059587B680201D15000231800BD4602B077
:1001E00080BDC0466C06002090B583B000AF78603B
:1001F0000F4B19687B6884229A581300DB009B1808
:100200009B005C587B6884229A587B681201D05806
:10021000074B19687B6884229A5820431300DB003F
:100220009B189B00585000231800BD4603B090BD9A
:100230006C06002080B582B000AF78600C4B196866
:100240007B6884229A587B68842018581300DB004E
:100250009B189B00CB1804331A6879680301CB18EC
:1002600004331A6000231800BD4602B080BDC046AA
:100270006C06002090B583B000AF7860124B19680F
:100280007B6884229A581300DB009B189B00CB18D4
:1002900004331C687B6884229B587A681B01D3183E
:1002A00004331968084B18687B6884229A582143E4
:1002B0001300DB009B189B00C31804331960002354
:1002C0001800BD4603B090BD6C06002090B583B009
:1002D00000AF7860134B19687B6884229A5813002A
:1002E000DB009B189B00CB18043319687B688422C1
:1002F0009B587A681B01D31804331B68DC43094BF5
:1003000018687B6884229A5821401300DB009B18F0
:100310009B00C3180433196000231800BD4603B0C6
:1003200090BDC0466C06002080B582B000AF7860FA
:100330000C4B19687B6884229A587B688420185873
:100340001300DB009B189B00CB1808331A687968F0
:100350000301CB1808331A6000231800BD4602B011
:1003600080BDC0466C06002090B583B000AF7860B9
:10037000124B19687B6884229A581300DB009B1883
:100380009B00CB1808331C687B6884229B587A68D2
:100390001B01D31808331968084B18687B6884223E
:1003A0009A5821431300DB009B189B00C3180833A5
:1003B000196000231800BD4603B090BD6C060020F4
:1003C00090B583B000AF7860134B19687B688422C6
:1003D0009A581300DB009B189B00CB180833196850
:1003E0007B6884229B587A681B01D31808331B68EA
:1003F000DC43094B18687B6884229A58214013001B
:10040000DB009B189B00C3180833196000231800F9
:10041000BD4603B090BDC0466C06002080B582B0DA
:1004200000AF78600C4B19687B6884229A587B680F
:10043000842018581300DB009B189B00CB18203336
:100440001A6879680301CB180C331A60002318006E
:10045000BD4602B080BDC0466C06002090B583B09A
:1004600000AF7860124B19687B6884229A58130099
:10047000DB009B189B00CB1820331C687B68842210
:100480009B587A681B01D3180C331968084B1868FD
:100490007B6884229A5821431300DB009B189B0041
:1004A000C3182033196000231800BD4603B090BD67
:1004B0006C06002090B583B000AF7860134B1968CC
:1004C0007B6884229A581300DB009B189B00CB1892
:1004D000203319687B6884229B587A681B01D318E3
:1004E0000C331B68DC43094B18687B6884229A58DC
:1004F00021401300DB009B189B00C31820331960B8
:1005000000231800BD4603B090BDC0466C06002015
:1005100080B582B000AF7860054B1A6880235B001D
:10052000D2587B681A6500231800BD4602B080BD12
:100530006C06002080B582B000AF7860084B1A6866
:1005400080235B00D0587B68196D054B1A68014306
:1005500080235B00D15000231800BD4602B080BD4F
:100560006C06002080B582B000AF7860094B1A6835
:1005700080235B00D1587B681B6DD843054B1A68FC
:10058000014080235B00D15000231800BD4602B01B
:1005900080BDC0466C06002080B582B000AF786098
:1005A000054B1A6880235B00D2587B685A6500238C
:1005B0001800BD4602B080BD6C06002080B582B038
:1005C00000AF7860084B1A6882235B00D0587B68C4
:1005D000596D054B1A68014382235B00D1500023FB
:1005E0001800BD4602B080BD6C06002080B582B008
:1005F00000AF7860094B1A6882235B00D1587B6892
:100600005B6DD843054B1A68014082235B00D150D3
:1006100000231800BD4602B080BDC0466C06002015
:1006200080B582B000AF7860054B1A6884235B0008
:10063000D2587B689A6500231800BD4602B080BD81
:100640006C06002080B582B000AF78600A4B1A6853
:1006500084235B00D0587B68996D074B1A6801436F
:1006600084235B00D1507B68180000F04FF8002312
:100670001800BD4602B080BD6C06002080B582B077
:1006800000AF7860094B1A6884235B00D1587B68FF
:100690009B6DD843054B1A68014084235B00D15001
:1006A00000231800BD4602B080BDC0466C06002085
:1006B00080B582B000AF7860054B1A6884235B0078
:1006C000D2587B68DA6500231800BD4602B080BDB1
:1006D0006C06002080B582B000AF78600A4B1A68C3
:1006E00086235B00D0587B68D96D074B1A6801439D
:1006F00086235B00D1507B681800FFF7BFFF002303
:100700001800BD4602B080BD6C06002080B582B0E6
:1007100000AF7860094B1A6886235B00D1587B686C
:10072000DB6DD843054B1A68014086235B00D1502E
:1007300000231800BD4602B080BDC0466C060020F4
:1007400080B582B000AF7860054B1A6888235B00E3
:10075000D2587B681A6600231800BD4602B080BDDF
:100760006C06002080B582B000AF7860084B1A6834
:1007700088235B00D0587B68196E054B1A680143CB
:1007800088235B00D15000231800BD4602B080BD15
:100790006C06002080B582B000AF7860094B1A6803
:1007A00088235B00D1587B681B6ED843054B1A68C1
:1007B000014088235B00D15000231800BD4602B0E1
:1007C00080BDC0466C06002080B582B000AF786066
:1007D000054B1A688A235B00D2587B685A6600234F
:1007E0001800BD4602B080BD6C06002080B582B006
:1007F00000AF7860084B1A688C235B00D0587B6888
:10080000596E054B1A6801438C235B00D1500023BD
:100810001800BD4602B080BD6C06002080B582B0D5
:1008200000AF7860054B1A687B68596E8E235B00B9
:10083000D15000231800BD4602B080BD6C060020D8
:1008400080B582B000AF7860054B1A6890235B00DA
:10085000D2587B689A6600231800BD4602B080BD5E
:100860006C06002080B582B000AF7860084B1A6833
:1008700090235B00D0587B68996E054B1A68014342
:1008800090235B00D15000231800BD4602B080BD0C
:100890006C06002080B582B000AF7860094B1A6802
:1008A00090235B00D1587B689B6ED843054B1A6838
:1008B000014090235B00D15000231800BD4602B0D8
:1008C00080BDC0466C06002080B582B000AF786065
:1008D000054B1A6892235B00D2587B68DA660023C6
:1008E0001800BD4602B080BD6C06002080B582B005
:1008F00000AF7860084B1A6892235B00D0587B6881
:10090000D96E054B1A68014392235B00D150002336
:100910001800BD4602B080BD6C06002080B582B0D4
:1009200000AF7860094B1A6892235B00D1587B684E
:10093000DB6ED843054B1A68014092235B00D1500F
:1009400000231800BD4602B080BDC0466C060020E2
:1009500080B582B000AF7860054B1A6894235B00C5
:10096000D2587B681A6700231800BD4602B080BDCC
:100970006C06002080B582B000AF7860054B1A6825
:100980007B68196F94235B00D15000231800BD468B
:1009900002B080BD6C06002080B582B000AF7860E8
:1009A0007B68196F054B1A68C94394235B00D150CB
:1009B00000231800BD4602B080BDC0466C06002072
:1009C00080B582B000AF7860054B1A6896235B0053
:1009D000D2587B685A6700231800BD4602B080BD1C
:1009E0006C06002080B582B000AF7860084B1A68B2
:1009F00096235B00D0587B68596F054B1A680143FA
:100A000096235B00D15000231800BD4602B080BD84
:100A10006C06002080B582B000AF7860084B1A6881
:100A200096235B00D1587B68586F054B1A680140CC
:100A300096235B00D15000231800BD4602B080BD54
:100A40006C06002080B582B000AF7860054B1A6854
:100A50009A235B00D2587B689A6700231800BD4632
:100A600002B080BD6C06002080B582B000AF786017
:100A7000084B1A689A235B00D0587B68996F054B26
:100A80001A6801439A235B00D15000231800BD4629
:100A900002B080BD6C06002080B582B000AF7860E7
:100AA000084B1A689A235B00D1587B68986F054BF6
:100AB0001A6801409A235B00D15000231800BD46FC
:100AC00002B080BD6C06002080B582B000AF7860B7
:100AD000054B1A689C235B00D2587B68DA670023B9
:100AE0001800BD4602B080BD6C06002080B582B003
:100AF00000AF7860084B1A689C235B00D0587B6875
:100B0000D96F054B1A6801439C235B00D150002329
:100B10001800BD4602B080BD6C06002080B582B0D2
:100B200000AF7860084B1A689C235B00D1587B6843
:100B3000D86F054B1A6801409C235B00D1500023FD
:100B40001800BD4602B080BD6C06002080B582B0A2
:100B500000AF78600D4B19687B681A6A1300DB00E0
:100B60009B189B00CB181C3319687B681A6A88B2E3
:100B7000796813005B009B185B00CB180433021CE0
:100B80001A8000231800BD4602B080BD6C0600200C
:100B900080B582B000AF78607B681A6A796813000C
:100BA0005B009B185B00585A074B19687B681A6AF0
:100BB0001300DB009B189B00CB1818331860002330
:100BC0001800BD4602B080BD6C06002080B582B022
:100BD00000AF78600D4B19687B681A6A1300DB0060
:100BE0009B189B00CB180C3319687B681A6A88B273
:100BF000796813005B009B185B00CB180233021C62
:100C00001A8000231800BD4602B080BD6C0600208B
:100C100090B583B000AF7860134B19687B681A6A8F
:100C20001300DB009B189B00CB180C3319687B6802
:100C30001A6A786813005B009B185B00C3180233C4
:100C40001B881C00084B18687B681A6A2143130034
:100C5000DB009B189B00C3180C331960002318009D
:100C6000BD4603B090BDC0466C06002090B583B071
:100C700000AF7860134B19687B681A6A1300DB00B9
:100C80009B189B00CB18143319687B681A6A786824
:100C900013005B009B185B00C31802331B88DB4307
:100CA0001C00084B18687B681A6A21401300DB009F
:100CB0009B189B00C3181433196000231800BD460D
:100CC00003B090BD6C06002080B584B000AFF86022
:100CD000B9607A60B968FA687B68100098470300C9
:100CE0001800BD4604B080BD80B584B000AFF86088
:100CF000B9607A60B968FA687B68100098470300A9
:100D00001800BD4604B080BD80B588B000AF7860E3
:100D100039607B68BB61BA6988235B00D3587B610B
:100D2000002001F071FF002001F036FF7B69002BED
:100D300021D000233B610023FB6116E0104BFA69D0
:100D40009200D2583B689B00D3181B68FB607A69FD
:100D5000FB681000984703003B613B69002B01DDF5
:100D6000012309E0FB690133FB61054BFA6992003D
:100D7000D358002BE2D100231800BD4608B080BD37
:100D8000EC36000080B586B000AF786039607B68D3
:100D90007B617A6988235B00D3583B617B69094A90
:100DA0009A58094B9200D2583B689B00D3181B6895
:100DB000FB603A69FB681000984703001800BD46C5
:100DC00006B080BD0C050000EC36000090B58FB079
:100DD00000AFF860B9607A603B60FB68FB62FA6A5A
:100DE00086235B00D358BB62FA6A8A235B00D35820
:100DF0007B62FA6A8C235B00D3583B62FA6A8E23CB
:100E00005B00D358FB613B6ADB6BBB61234BBA6968
:100E10009200D258BB689B00D3181B687B61204BA3
:100E2000BA689200D258BB699B00D3181B683B611B
:100E3000BB68002B15D100237B630DE0FB697A6A48
:100E4000396AB86A7C69A0477A6B7968B86A3B6985
:100E500098477B6B01337B637B6B3A689A42EDD892
:100E600017E0BB68012B14D100233B630DE03A6B04
:100E70007968B86A3B699847FB697A6A396AB86ADF
:100E80007C69A0473B6B01333B633B6B3A689A42FA
:100E9000EDD800231800BD460FB090BD7436000099
:100EA0008C36000080B588B000AF786039607B6810
:100EB000BB61BA6992235B00D3587B617B69002BCD
:100EC00021D000233B610023FB6116E0104BFA693F
:100ED0009200D2583B689B00D3181B68FB607A696C
:100EE000FB681000984703003B613B69002B01DD64
:100EF000012309E0FB690133FB61054BFA699200AC
:100F0000D358002BE2D100231800BD4608B080BDA5
:100F10001C33000080B586B000AF786039607B6814
:100F20007B617A6992235B00D3583B617B69094AF4
:100F30009A58094B9200D2583B689B00D3181B6803
:100F4000FB603A69FB681000984703001800BD4633
:100F500006B080BD0C0500001C33000080B588B0D1
:100F600000AF786039607B68FB61FA6990235B00B1
:100F7000D358BB613B68002B07D1124B1B68FB6049
:100F8000BA69FB681000984716E03B68012B09D14D
:100F90000D4B3A689200D3583B61BA693B69100027
:100FA000984709E03B68032B06D1084B1B687B611F
:100FB000BA697B691000984700231800BD4608B045
:100FC00080BDC0465C340000603400006C3400001A
:100FD00080B588B000AF786039607B68BB61BA6962
:100FE00094235B00D3587B6100233B610023FB60AB
:100FF0000023FB617B69DA681E4B1B681A437B691F
:10100000DA607B691B4ADA661B4B1B683B617A69B5
:101010003B69100098470300FB60184B1B683B615D
:101020007A693B69100098470300FB6016E0144B97
:10103000FA699200D2583B689B00D3181B683B6149
:101040007A693B69100098470300FB60FB68002B3E
:1010500001DD012309E0FB690133FB61084BFA69FB
:101060009200D358002BE2D100231800BD4608B0EF
:1010700080BDC046E081E00F70350000743500008F
:10108000F034000080B586B000AF786039607B68CE
:101090007B617A6994235B00D3583B617B69094A81
:1010A0009A58094B9200D2583B689B00D3181B6892
:1010B000FB603A69FB681000984703001800BD46C2
:1010C00006B080BD0C050000F034000080B588B08B
:1010D00000AF786039607B68BB61BA6996235B00BA
:1010E000D3587B6100233B610023FB6116E0114B69
:1010F000FA699200D2583B689B00D3181B68FB60CA
:101100007A69FB681000984703003B613B69002B3C
:1011100001DD012309E0FB690133FB61054BFA693D
:101120009200D358002BE2D100231800BD4608B02E
:1011300080BDC0467034000080B586B000AF7860D6
:1011400039607B687B617A6996235B00D3583B6189
:101150007B69094A9A58094B9200D2583B689B0018
:10116000D3181B68FB603A69FB68100098470300BE
:101170001800BD4606B080BD0C05000070340000AC
:101180007047C04680B582B000AF7860044B1B68E2
:101190001A687B681A6000231800BD4602B080BD43
:1011A0007006002080B582B000AF7860064B1B68E7
:1011B00019687B681A68044B1B680A431A6000238D
:1011C0001800BD4602B080BD7006002080B582B018
:1011D00000AF7860074B1B681A687B681B68D943AF
:1011E000044B1B680A401A6000231800BD4602B079
:1011F00080BDC0467006002080B582B000AF786028
:10120000064B1B6859687B685A68044B1B680A4385
:101210005A6000231800BD4602B080BD7006002051
:1012200080B582B000AF7860044B1B689A687B6819
:101230009A6000231800BD4602B080BD70060020F1
:1012400080B582B000AF7860044B1B68DA687B68B9
:10125000DA6000231800BD4602B080BD7006002091
:1012600080B582B000AF7860064B1B68D9687B6898
:10127000DA68044B1B680A43DA6000231800BD4695
:1012800002B080BD7006002080B582B000AF7860EB
:10129000074B1B68DA687B68DB68D943044B1B6823
:1012A0000A40DA6000231800BD4602B080BDC04687
:1012B0007006002080B582B000AF7860044B1B68D8
:1012C0001A697B681A6100231800BD4602B080BD10
:1012D0007006002080B582B000AF7860064B1B68B6
:1012E00059697B685A69044B1B680A435A61002399
:1012F0001800BD4602B080BD7006002080B582B0E7
:1013000000AF7860074B1B689A697B689B69D9437B
:10131000044B1B680A409A6100231800BD4602B0C6
:1013200080BDC0467006002080B582B000AF7860F6
:10133000044B1B68DA697B68DA6100231800BD463C
:1013400002B080BD7006002080B582B000AF78602A
:10135000064B1B68D9697B68DA69044B1B680A4332
:10136000DA6100231800BD4602B080BD700600207F
:1013700080B582B000AF7860074B1B68DA697B6884
:10138000DB69D943044B1B680A40DA61002318006B
:10139000BD4602B080BDC0467006002080B582B058
:1013A00000AF7860044B1B681A6A7B681A620023DE
:1013B0001800BD4602B080BD7006002080B582B026
:1013C00000AF7860064B1B68196A7B681A6A044B89
:1013D0001B680A431A6200231800BD4602B080BD94
:1013E0007006002080B582B000AF7860074B1B68A4
:1013F0001A6A7B681B6AD943044B1B680A401A624D
:1014000000231800BD4602B080BDC0467006002013
:1014100080B582B000AF7860044B1B685A6A7B6865
:101420005A6200231800BD4602B080BD700600203D
:1014300080B582B000AF7860064B1B68596A7B6844
:101440005A6A044B1B680A435A6200231800BD46BF
:1014500002B080BD7006002080B582B000AF786019
:10146000074B1B685A6A7B685B6AD943044B1B684D
:101470000A405A6200231800BD4602B080BDC04633
:101480007006002080B582B000AF7860044B1B6806
:101490009A6A7B689A6200231800BD4602B080BD3C
:1014A0007006002080B582B000AF7860064B1B68E4
:1014B000996A7B689A6A044B1B680A439A62002304
:1014C0001800BD4602B080BD7006002080B582B015
:1014D00000AF7860074B1B689A6A7B689B6AD943A8
:1014E000044B1B680A409A6200231800BD4602B0F4
:1014F00080BDC0467006002080B582B000AF786025
:10150000044B1B681A6B7B68DA6200231800BD4627
:1015100002B080BD7006002080B582B000AF786058
:10152000064B1B68196B7B68DA6A044B1B680A431D
:101530001A6300231800BD4602B080BD700600206B
:1015400080B582B000AF7860074B1B681A6B7B6870
:10155000DB6AD943044B1B680A401A630023180056
:10156000BD4602B080BDC0467006002080B582B086
:1015700000AF7860044B1B685A6B7B681A630023CA
:101580001800BD4602B080BD7006002080B582B054
:1015900000AF7860064B1B68596B7B681A6B044B75
:1015A0001B680A435A6300231800BD4602B080BD81
:1015B0007006002080B582B000AF7860074B1B68D2
:1015C0005A6B7B681B6BD943044B1B680A405A63F8
:1015D00000231800BD4602B080BDC0467006002042
:1015E00080B582B000AF7860044B1B68DA6B7B6813
:1015F0005A6300231800BD4602B080BD700600206B
:1016000080B582B000AF7860064B1B68D96B7B68F1
:101610009A6B044B1B680A43DA6300231800BD462B
:1016200002B080BD7006002080B582B000AF786047
:10163000074B1B68DA6B7B689B6BD943044B1B68B9
:101640000A40DA6300231800BD4602B080BDC046E0
:101650007006002080B582B000AF7860044B1B6834
:101660001A6B7B68DA6300231800BD4602B080BDA8
:101670007006002080B582B000AF7860064B1B6812
:10168000196B7B68DA6B044B1B680A431A630023EF
:101690001800BD4602B080BD7006002080B582B043
:1016A00000AF7860074B1B681A6B7B68DB6BD94314
:1016B000044B1B680A401A6300231800BD4602B0A1
:1016C00080BDC0467006002080B582B000AF786053
:1016D000044B1B685A6B7B681A6400231800BD46D4
:1016E00002B080BD7006002080B582B000AF786087
:1016F000064B1B68596B7B681A6C044B1B680A43CA
:101700005A6300231800BD4602B080BD7006002059
:1017100080B582B000AF7860074B1B685A6B7B685E
:101720001B6CD943044B1B680A405A630023180002
:10173000BD4602B080BDC0467006002080B582B0B4
:1017400000AF7860044B1B68DA6B7B685A64002337
:101750001800BD4602B080BD7006002080B582B082
:1017600000AF7860064B1B68D96B7B689A6C044BA2
:101770001B680A43DA6300231800BD4602B080BD2F
:101780007006002080B582B000AF7860074B1B6800
:10179000DA6B7B689B6CD943044B1B680A40DA63A5
:1017A00000231800BD4602B080BDC0467006002070
:1017B00080B582B000AF7860044B1B681A6B7B6801
:1017C000DA6400231800BD4602B080BD7006002018
:1017D00080B582B000AF7860064B1B68196B7B68E0
:1017E000DA6C044B1B680A431A6300231800BD46D9
:1017F00002B080BD7006002080B582B000AF786076
:10180000074B1B681A6B7B68DB6CD943044B1B6866
:101810000A401A6300231800BD4602B080BDC046CE
:101820007006002080B582B000AF7860044B1B6862
:101830005A6B7B681A6500231800BD4602B080BD54
:101840007006002080B582B000AF7860064B1B6840
:10185000596B7B681A6D044B1B680A435A6300235B
:101860001800BD4602B080BD7006002080B582B071
:1018700000AF7860074B1B685A6B7B681B6DD943C0
:10188000044B1B680A405A6300231800BD4602B08F
:1018900080BDC0467006002080B582B000AF786081
:1018A000044B1B68DA6B7B685A6500231800BD4641
:1018B00002B080BD7006002080B582B000AF7860B5
:1018C000064B1B68D96B7B689A6D044B1B680A43F7
:1018D000DA6300231800BD4602B080BD7006002008
:1018E00080B582B000AF7860074B1B68DA6B7B680D
:1018F0009B6DD943044B1B680A40DA630023180030
:10190000BD4602B080BDC0467006002080B582B0E2
:1019100000AF7860044B1B689A6B7B685A630023A6
:101920001800BD4602B080BD7006002080B582B0B0
:1019300000AF7860044B1B689A6B7B685A64002385
:101940001800BD4602B080BD7006002080B582B090
:1019500000AF7860044B1B689A6B7B685A65002364
:101960001800BD4602B080BD7006002080B500AFF3
:10197000C046BD4680BD000080B586B000AFFFF711
:10198000F5FF144B9B6C7B61124B9B6D3B61114BC4
:1019900080229B58FB607A690E4B01211800FEF7EC
:1019A000F7FB3A690B4B01211800FEF7E1FBFA68DF
:1019B000084B01211800FFF787F9064BC4229B58FA
:1019C000BB60BA68034B01211800FFF78DF90300D3
:1019D0007B60FEE75401002080B582B000AF7860E4
:1019E000044B1B681A687B681A6000231800BD4608
:1019F00002B080BD6406002080B582B000AF786080
:101A0000064B1B6819687B681A68044B1B680A43FD
:101A10001A6000231800BD4602B080BD6406002095
:101A200080B582B000AF7860074B1B681A687B688E
:101A30001B68D943044B1B680A401A600023180036
:101A4000BD4602B080BDC0466406002080B582B0AD
:101A500000AF7860044B1B685A687B685A600023AB
:101A60001800BD4602B080BD6406002080B582B07B
:101A700000AF7860064B1B6859687B685A68044B56
:101A80001B680A435A6000231800BD4602B080BD9F
:101A90006406002080B582B000AF7860074B1B68F9
:101AA0005A687B685B68D943044B1B680A405A60DC
:101AB00000231800BD4602B080BDC0466406002069
:101AC00080B582B000AF7860044B1B689A687B6871
:101AD0009A6000231800BD4602B080BD6406002055
:101AE00080B582B000AF7860064B1B6899687B6850
:101AF0009A68044B1B680A439A6000231800BD468D
:101B000002B080BD6406002080B582B000AF78606E
:101B1000074B1B689A687B689B68D943044B1B681A
:101B20000A409A6000231800BD4602B080BDC0463E
:101B30006406002080B582B000AF7860044B1B685B
:101B4000DA687B68DA6000231800BD4602B080BD09
:101B50006406002080B582B000AF7860064B1B6839
:101B6000D9687B68DA68044B1B680A43DA60002393
:101B70001800BD4602B080BD6406002080B582B06A
:101B800000AF7860074B1B68DA687B68DB68D94375
:101B9000044B1B680A40DA6000231800BD4602B0FF
:101BA00080BDC0466406002080B582B000AF78607A
:101BB000044B1B681A697B681A6100231800BD4634
:101BC00002B080BD6406002080B582B000AF7860AE
:101BD000064B1B6819697B681A69044B1B680A432A
:101BE0001A6100231800BD4602B080BD64060020C3
:101BF00080B582B000AF7860074B1B6819697B68BD
:101C00001B69DA43044B1B680A431A61002318005E
:101C1000BD4602B080BDC0466406002080B582B0DB
:101C200000AF7860044B1B685A697B685A610023D7
:101C30001800BD4602B080BD6406002080B582B0A9
:101C400000AF7860064B1B6859697B685A69044B82
:101C50001B680A435A6100231800BD4602B080BDCC
:101C60006406002080B582B000AF7860074B1B6827
:101C70005A697B685B69D943044B1B680A405A6107
:101C800000231800BD4602B080BDC0466406002097
:101C900080B582B000AF7860044B1B689A697B689E
:101CA0009A6100231800BD4602B080BD6406002082
:101CB00080B582B000AF7860064B1B6899697B687D
:101CC0009A69044B1B680A439A6100231800BD46B9
:101CD00002B080BD6406002080B582B000AF78609D
:101CE000074B1B689A697B689B69D943044B1B6847
:101CF0000A409A6100231800BD4602B080BDC0466C
:101D00006406002080B582B000AF7860044B1B6889
:101D1000DA697B68DA6100231800BD4602B080BD35
:101D20006406002080B582B000AF7860064B1B6867
:101D3000D9697B68DA69044B1B680A43DA610023BE
:101D40001800BD4602B080BD6406002080B582B098
:101D500000AF7860074B1B68DA697B68DB69D943A1
:101D6000044B1B680A40DA6100231800BD4602B02C
:101D700080BDC0466406002080B582B000AF7860A8
:101D8000044B1B687A68126A1A6200231800BD4669
:101D900002B080BD6406002080B582B000AF7860DC
:101DA000064B1B68596A7B685A6A044B1B680A43D6
:101DB0005A6200231800BD4602B080BD64060020B0
:101DC00080B582B000AF7860044B1B689A6A7B686C
:101DD0009A6200231800BD4602B080BD6406002050
:101DE00080B582B000AF7860064B1B68996A7B684B
:101DF0009A6A044B1B680A439A6200231800BD4686
:101E000002B080BD6406002080B582B000AF78606B
:101E1000074B1B689A6A7B689B6AD943044B1B6813
:101E20000A409A6200231800BD4602B080BDC04639
:101E30006406002080B582B000AF7860044B1B6858
:101E40001A6B7B681A6300231800BD4602B080BD80
:101E50006406002080B582B000AF7860064B1B6836
:101E6000596B7B685A6B044B1B680A435A63002307
:101E70001800BD4602B080BD6406002080B582B067
:101E800000AF7860074B1B689A6B7B689B6BD943EC
:101E9000044B1B680A409A6300231800BD4602B039
:101EA00080BDC0466406002080B582B000AF786077
:101EB000044B1B68DA6B7B68DA6300231800BD46AD
:101EC00002B080BD6406002080B582B000AF7860AB
:101ED000064B1B68D96B7B68DA6B044B1B680A43A3
:101EE000DA6300231800BD4602B080BD64060020FE
:101EF00080B582B000AF7860074B1B68DA6B7B68F7
:101F0000DB6BD943044B1B680A40DA6300231800DB
:101F1000BD4602B080BDC0466406002080B582B0D8
:101F200000AF7860044B1B681A6C7B681A6400234E
:101F30001800BD4602B080BD6406002080B582B0A6
:101F400000AF7860064B1B68196C7B681A6C044BF9
:101F50001B680A431A6400231800BD4602B080BD06
:101F60006406002080B582B000AF7860074B1B6824
:101F70001A6C7B681B6CD943044B1B680A401A64BB
:101F800000231800BD4602B080BDC0466406002094
:101F900080B582B000AF7860044B1B685A6C7B68D8
:101FA0005A6400231800BD4602B080BD64060020BC
:101FB00080B582B000AF7860064B1B68596C7B68B7
:101FC0005A6C044B1B680A435A6400231800BD4630
:101FD00002B080BD6406002080B582B000AF78609A
:101FE000074B1B685A6C7B685B6CD943044B1B68BE
:101FF0000A405A6400231800BD4602B080BDC046A6
:102000006406002080B582B000AF7860044B1B6886
:102010005A6D7B68DA6400231800BD4602B080BDAB
:102020006406002080B582B000AF7860064B1B6864
:10203000596D7B68DA6C044B1B680A435A650023B0
:102040001800BD4602B080BD6406002080B582B095
:1020500000AF7860074B1B685A6D7B68DB6CD94317
:10206000044B1B680A405A6500231800BD4602B0A5
:1020700080BDC0466406002080B582B000AF7860A5
:10208000044B1B689A6D7B681A6500231800BD46D7
:1020900002B080BD6406002080B582B000AF7860D9
:1020A000064B1B68996D7B681A6D044B1B680A43CD
:1020B0009A6500231800BD4602B080BD640600206A
:1020C00080B582B000AF7860074B1B689A6D7B6863
:1020D0001B6DD943044B1B680A409A650023180006
:1020E000BD4602B080BDC0466406002080B582B007
:1020F00000AF7860044B1B681A6E7B685A6500233A
:102100001800BD4602B080BD6406002080B582B0D4
:1021100000AF7860064B1B68196E7B685A6D044BE4
:102120001B680A431A6600231800BD4602B080BD32
:102130006406002080B582B000AF7860074B1B6852
:102140001A6E7B685B6DD943044B1B680A401A66A4
:1021500000231800BD4602B080BDC04664060020C2
:1021600080B582B000AF7860044B1B689A6E7B68C4
:102170009A6500231800BD4602B080BD64060020A9
:1021800080B582B000AF7860064B1B68996E7B68A3
:102190009A6D044B1B680A439A6600231800BD46DB
:1021A00002B080BD6406002080B582B000AF7860C8
:1021B000074B1B689A6E7B689B6DD943044B1B6869
:1021C0000A409A6600231800BD4602B080BDC04692
:1021D0006406002080B582B000AF7860044B1B68B5
:1021E0001A6F7B68DA6500231800BD4602B080BD17
:1021F0006406002080B582B000AF7860064B1B6893
:10220000196F7B68DA6D044B1B680A431A67002359
:102210001800BD4602B080BD6406002080B582B0C3
:1022200000AF7860074B1B681A6F7B68DB6DD94382
:10223000044B1B680A401A6700231800BD4602B011
:1022400080BDC0466406002080B582B000AF7860D3
:10225000044B1B689A6F7B681A6600231800BD4602
:1022600002B080BD6406002080B582B000AF786007
:10227000064B1B68996F7B681A6E044B1B680A43F8
:102280009A6700231800BD4602B080BD6406002096
:1022900080B582B000AF7860074B1B689A6F7B688F
:1022A0001B6ED943044B1B680A409A670023180031
:1022B000BD4602B080BDC0466406002080B582B035
:1022C00000AF7860054B1B6880229A587B685A667D
:1022D00000231800BD4602B080BDC0466406002041
:1022E00080B582B000AF7860074B1B688022995898
:1022F0007B685A6E044B1B680A4380215A500023A6
:102300001800BD4602B080BD6406002080B582B0D2
:1023100000AF7860084B1B6880229A587B685B6E20
:10232000D943054B1B680A4080215A5000231800EE
:10233000BD4602B080BDC0466406002080B582B0B4
:1023400000AF7860054B1B6884229A587B689A66B8
:1023500000231800BD4602B080BDC04664060020C0
:1023600080B582B000AF7860074B1B688422995813
:102370007B689A6E044B1B680A4384215A500023E1
:102380001800BD4602B080BD6406002080B582B052
:1023900000AF7860084B1B6884229A587B689B6E5C
:1023A000D943054B1B680A4084215A50002318006A
:1023B000BD4602B080BDC0466406002080B586B030
:1023C00000AFF860B9607A603B60224B1B681B6904
:1023D0001B0A012213405A1E9341DAB23B681A715C
:1023E0003B681B79002B2FD01A4B1B689B697B61C4
:1023F0007B699B0B012213405A1E9341DAB27B6822
:102400005A707B685B78002B02D001235B421CE092
:102410007B69DB0B012213405A1E9341DAB27B68C1
:102420001A707B681B78002B02D002235B420CE001
:10243000FB687A691A6080235B001A007B6913408D
:102440001B0ADAB2BB681A7000231800BD4606B03A
:1024500080BDC0466806002080B584B000AFF8603B
:10246000B9607A603B6000237B600023BB600C4B4B
:102470001B681B691B0A012213405A1E9341DAB2E2
:102480003B681A713B681B79002B04D0044B1B6816
:10249000DA69FB685A6000231800BD4604B080BDAD
:1024A0006806002080B586B000AFF860B9607A6039
:1024B0003B60224B1B681B691B0A012213405A1EFA
:1024C0009341DAB23B681A713B681B79002B2FD01D
:1024D0001A4B1B689B6A7B617B699B0B0122134033
:1024E0005A1E9341DAB27B68DA707B68DB78002B86
:1024F00002D001235B421CE07B69DB0B012213400D
:102500005A1E9341DAB27B689A707B689B78002BE5
:1025100002D002235B420CE0FB687A691A618023D7
:102520005B001A007B6913401B0ADAB2BB685A7061
:1025300000231800BD4606B080BDC04668060020D6
:1025400080B586B000AFF860B9607A603B60394B07
:102550001B681B691B0A012213405A1E9341DAB201
:102560003B681A713B681B79002B5ED0314B1B68AE
:102570001B6A7B617B699B0B012213405A1E9341AE
:10258000DAB27B685A717B685B79002B02D0012339
:102590005B424BE07B69DB0B012213405A1E9341E7
:1025A000DAB27B681A717B681B79002B02D0022398
:1025B0005B423BE07B699B0F012213405A1E934113
:1025C000DAB27B68DA717B68DB79002B02D00323F7
:1025D0005B422BE07B69DB0F5A1E9341DAB27B68CA
:1025E0009A717B689B79002B02D004235B421DE02B
:1025F000FF231A007B691A407B691B0CFF210B40EB
:102600001B021A43FB689A6080235B001A007B69F7
:1026100013401B0ADAB2BB689A7080235B047A69A4
:1026200013401B0EDAB2BB68DA7000231800BD46F7
:1026300006B080BD6806002080B584B000AFF860A9
:10264000B9607A603B6000237B600023BB600C4B69
:102650001B681B691B0A012213405A1E9341DAB200
:102660003B681A713B681B79002B04D0044B1B6834
:102670005A6AFB68DA6000231800BD4604B080BDCA
:102680006806002080B586B000AFF860B9607A6057
:102690003B60394B1B681B691B0A012213405A1E01
:1026A0009341DAB23B681A713B681B79002B5ED00C
:1026B000314B1B68DB6A7B617B699B0B01221340FA
:1026C0005A1E9341DAB27B68DA727B68DB7A002BA0
:1026D00002D001235B424BE07B69DB0B01221340FC
:1026E0005A1E9341DAB27B689A727B689B7A002B00
:1026F00002D002235B423BE07B699B0F0122134027
:102700005A1E9341DAB27B685A737B685B7B002B5D
:1027100002D003235B422BE07B69DB0F5A1E9341FF
:10272000DAB27B681A737B681B7B002B02D0042310
:102730005B421DE0FF231A007B691A407B691B0C7A
:10274000FF210B401B021A43FB685A6180235B0088
:102750001A007B6913401B0ADAB2BB681A71802326
:102760005B047A6913401B0EDAB2BB685A7100230E
:102770001800BD4606B080BD6806002080B586B052
:1027800000AFF860B9607A603B6000237B60BB6893
:10279000002B2ED0FB689B699BB2FF2292B21340A4
:1027A0009AB2BB68DB881B029BB213439AB2BB6828
:1027B0009B8B13439AB2BB68DB8B13439AB2BB6803
:1027C0001B8C13439AB2BB685B8C134399B2BB68F2
:1027D0009A8C14203B180A431A80194B1B681B69FA
:1027E000202213401FD0164B1B683A1812881A6318
:1027F00019E0FB689B699BB2FF2292B2134099B229
:10280000BB68DB881B029AB216203B180A431A8069
:102810000B4B1B681B692022134004D0084B1B681C
:102820003A1812881A63064B1B689A6C044B1B6893
:1028300020210A439A6400231800BD4606B080BDDB
:102840006806002080B584B000AFF860B9607A6097
:102850003B6000237B600023BB600D4B1B681B6942
:102860002022134007D0FB68DA69FF231900084BC8
:102870001B680A401A63064B1B689A6C044B1B6862
:1028800020210A439A6400231800BD4604B080BD8D
:102890006806002080B586B000AFF860B9607A6045
:1028A0003B6000237B60BB68002B3CD0FB681B6A4D
:1028B000FF221A40BB68DB681B021343BA68928B85
:1028C0001343BA68D28B1343BA68128C1343BA68A5
:1028D000528C1343BA68928C1A43FB681B6A1B0A1A
:1028E000FF210B401B041A43BB681B691B061A43DC
:1028F000BB689B6A1A43BB68DB6A1A43BB681B6BE5
:102900001A43BB685B6B1A43BB689B6B13437B61C9
:10291000154B1B681B692022134017D0124B1B68F4
:102920007A699A6312E0FB681B6AFF221A40FB680F
:102930001B6A1B0413437B610B4B1B681B69202222
:10294000134003D0084B1B687A699A63064B1B68D7
:102950009A6C054B1B6820210A439A6400231800D7
:10296000BD4606B080BDC0466806002080B584B074
:1029700000AFF860B9607A603B600023BB60002361
:102980007B600C4B1B681B692022134004D0094B51
:102990001B68FA68526A1A63064B1B689A6C054BEF
:1029A0001B6820210A439A6400231800BD4604B026
:1029B00080BDC0466806002080B584B000AFF860D6
:1029C000B9607A607B689B00BA68D318FA681268AD
:1029D0001A60C046BD4604B080BD80B584B000AF6B
:1029E000F860B9607A607B689B00BA68D318FA68AF
:1029F00052681A60C046BD4604B080BD80B584B040
:102A000000AFF860B9607A607B689B00BA68D31841
:102A1000FA6892681A60C046BD4604B080BD80B5B1
:102A200084B000AFF860B9607A607B689B00BA68D8
:102A3000D318FA68D2681A60C046BD4604B080BD9B
:102A400080B584B000AFF860B9607A607B689B00A5
:102A5000BA68D318FA6812691A60C046BD4604B055
:102A600080BD80B584B000AFF860B9607A607B68E3
:102A70009B00BA68D318FA6852691A60C046BD460E
:102A800004B080BD80B584B000AFF860B9607A60F2
:102A90007B689B00BA68D3181A68FB689A61C046C5
:102AA000BD4604B080BD80B584B000AFF860B960A9
:102AB0007A607B689B00BA68D3181A68FB68DA6191
:102AC000C046BD4604B080BD80B584B000AFF8609C
:102AD000B9607A607B689B00BA68D3181A68FB6893
:102AE0001A62C046BD4604B080BD80B584B000AF58
:102AF000F860B9607A607B689B00BA68D3181A687E
:102B0000FB685A62C046BD4604B080BD80B582B045
:102B100000AF0200FB1D1A70FB1D1B781A001F235B
:102B20001A40044B012191400A001A60C046BD467C
:102B300002B080BD00E100E080B582B000AF0200CD
:102B4000FB1D1A70FB1D1B781A001F23134005493B
:102B500001229A40130080228B50C046BD4602B02D
:102B600080BDC04600E100E080B582B000AF020049
:102B7000FB1D1A70FB1D1B781A001F23134005490B
:102B800001229A40C0235B00CA50C046BD4602B035
:102B900080BDC04600E100E080B584B000AF020017
:102BA000FB1D1A70174BFB60FB1D1B78002B10D010
:102BB000FB6880221201DA600820FFF7D5FF0820A9
:102BC000FFF7A4FFFB68DB6C04221A43FB68DA649E
:102BD00013E0FB1D1B7801225340DBB2002B0CD00D
:102BE0000820FFF7C1FF0820FFF7A6FFFB68DB6C9A
:102BF000042293431A00FB68DA64C046BD4604B061
:102C000080BDC04600C4004080B584B000AF020063
:102C1000FB1D1A70174BFB60FB1D1B78002B10D09F
:102C2000FB688022D200DA600920FFF79DFF0920AF
:102C3000FFF76CFFFB68DB6C02221A43FB68DA6467
:102C400013E0FB1D1B7801225340DBB2002B0CD09C
:102C50000920FFF789FF0920FFF76EFFFB68DB6C97
:102C6000022293431A00FB68DA64C046BD4604B0F2
:102C700080BDC04600C4004080B582B000AF78601F
:102C8000044B1B681A687B681A6000231800BD4655
:102C900002B080BD6806002080B582B000AF7860C9
:102CA000064B1B6819687B681A68044B1B680A434B
:102CB0001A6000231800BD4602B080BD68060020DF
:102CC00080B582B000AF7860074B1B681A687B68DC
:102CD0001B68D943044B1B680A401A600023180084
:102CE000BD4602B080BDC0466806002080B582B0F7
:102CF00000AF7860044B1B685A687B685A600023F9
:102D00001800BD4602B080BD6806002080B582B0C4
:102D100000AF7860064B1B6859687B685A68044BA3
:102D20001B680A435A6000231800BD4602B080BDEC
:102D30006806002080B582B000AF7860074B1B6842
:102D40005A687B685B68D943044B1B680A405A6029
:102D500000231800BD4602B080BDC04668060020B2
:102D600080B582B000AF7860044B1B689A687B68BE
:102D70009A6000231800BD4602B080BD680600209E
:102D800080B582B000AF7860064B1B6899687B689D
:102D90009A68044B1B680A439A6000231800BD46DA
:102DA00002B080BD6806002080B582B000AF7860B8
:102DB000074B1B689A687B689B68D943044B1B6868
:102DC0000A409A6000231800BD4602B080BDC0468C
:102DD0006806002080B582B000AF7860044B1B68A5
:102DE0001A697B68DA6000231800BD4602B080BD16
:102DF0006806002080B582B000AF7860064B1B6883
:102E0000D9687B681A69044B1B680A43DA6000239F
:102E10001800BD4602B080BD6806002080B582B0B3
:102E200000AF7860074B1B68DA687B681B69D94381
:102E3000044B1B680A40DA6000231800BD4602B04C
:102E400080BDC0466806002080B582B000AF7860C3
:102E5000044B1B685A697B685A6100231800BD4601
:102E600002B080BD6806002080B582B000AF7860F7
:102E7000064B1B6859697B685A69044B1B680A43F7
:102E80005A6100231800BD4602B080BD68060020CC
:102E900080B582B000AF7860074B1B685A697B68C9
:102EA0005B69D943044B1B680A405A610023180030
:102EB000BD4602B080BDC0466806002080B582B025
:102EC00000AF7860044B1B681A6C7B689A61002322
:102ED0001800BD4602B080BD6806002080B582B0F3
:102EE00000AF7860064B1B68596C7B689A69044B8D
:102EF0001B680A435A6400231800BD4602B080BD17
:102F00006806002080B582B000AF7860074B1B6870
:102F10005A6C7B689B69D943044B1B680A405A640E
:102F200000231800BD4602B080BDC04668060020E0
:102F300080B582B000AF7860044B1B681A6D7B6867
:102F4000DA6100231800BD4602B080BD680600208B
:102F500080B582B000AF7860064B1B68196D7B6846
:102F6000DA69044B1B680A431A6500231800BD4642
:102F700002B080BD6806002080B582B000AF7860E6
:102F8000074B1B681A6D7B68DB69D943044B1B68D0
:102F90000A401A6500231800BD4602B080BDC04635
:102FA0006806002080B582B000AF7860044B1B68D3
:102FB0005A6D7B681A6200231800BD4602B080BDBE
:102FC0006806002080B582B000AF7860064B1B68B1
:102FD000596D7B681A6A044B1B680A435A650023C3
:102FE0001800BD4602B080BD6806002080B582B0E2
:102FF00000AF7860074B1B685A6D7B681B6AD9432A
:10300000044B1B680A405A6500231800BD4602B0F5
:1030100080BDC0466806002080B582B000AF7860F1
:10302000044B1B689A6D7B685A6200231800BD46EA
:1030300002B080BD6806002080B582B000AF786025
:10304000064B1B68996D7B685A6A044B1B680A43E0
:103050009A6500231800BD4602B080BD68060020B6
:1030600080B582B000AF7860074B1B689A6D7B68B3
:103070005B6AD943044B1B680A409A650023180019
:10308000BD4602B080BDC0466806002080B582B053
:1030900000AF7860044B1B68DA6D7B689A6200238E
:1030A0001800BD4602B080BD6806002080B582B021
:1030B00000AF7860064B1B68D96D7B689A6A044B39
:1030C0001B680A43DA6500231800BD4602B080BDC4
:1030D0006806002080B582B000AF7860074B1B689F
:1030E000DA6D7B689B6AD943044B1B680A40DA653A
:1030F00000231800BD4602B080BDC046680600200F
:10310000002310B501001A00180000F057F810BD98
:10311000084B10B50400002B02D0002100F0A2F8EB
:10312000054B1868836A002B00D09847200000F0F8
:10313000E7F8C04665320000E437000070B5074D7F
:10314000074C641BA410002C02D100F0E1F870BD04
:10315000013CA300EB589847F5E7C046D407002090
:10316000D807002070B500260C4D0D4C641BA41030
:10317000A64209D1002600F0C5F80A4D0A4C641B8E
:10318000A410A64205D170BDB300EB589847013694
:10319000EEE7B300EB5898470136F2E7D00700207E
:1031A000D0070020D0070020D40700200300121809
:1031B000934200D1704719700133F9E7F0B5170059
:1031C000244A85B01468050001910293002C0AD1AD
:1031D000214B1360214A1C00002A04D019001268F8
:1031E000883103920A6063681F2B03DD012040428F
:1031F00005B0F0BD002D24D02600883630680028A8
:103200000ED1174B002BF1D00930FF3000E000BF8A
:103210000028EBD003000022FC335A609A60306033
:10322000012261688A408B00C31880C3FC3041686A
:10323000114341600299D967022D02D183681A4374
:103240008260636800205A1C62600233019A9B000E
:103250001A51CDE7C008002034080020000000000B
:1032600000000000F7B50F000190244B1D68002DF1
:1032700006D02B0088331E686B685C1E002C00DAB9
:10328000F7BD002F09D0002E01D1013CF6E7330035
:10329000A20080339B58BB42F7D128006968A20086
:1032A000083001398358A14219D16C60002BECD051
:1032B00069680091002E08D0FC218C460120B4449E
:1032C0006146A040496801420CD198470B4B6A689F
:1032D00000991B688A42C8D19D42D6D0C5E700211B
:1032E0008150E3E7B15862469268024202D10198E8
:1032F0009847EBE708009847E8E7C046C008002079
:10330000FEE7C046F8B5C046F8BC08BC9E4670470C
:10331000F8B5C046F8BC08BC9E4670479C33000018
:10332000A8330000B4330000C0330000CC330000E9
:10333000D8330000E4330000F0330000FC33000019
:103340000834000014340000203400002C34000045
:103350003834000044340000503400000000000005
:10336000000000000000000000000000000000005D
:10337000000000000000000000000000000000004D
:10338000000000000000000000000000000000003D
:10339000000000000000000000000000B10100007B
:1033A000E90100003502000035020000750200004E
:1033B000CD0200002903000069030000C1030000E2
:1033C0001D0400005D040000B5040000410700007A
:1033D0006507000095070000110500003505000095
:1033E0006505000099050000BD050000ED05000021
:1033F00021060000450600007D060000B106000021
:10340000D50600000D070000C9070000ED07000009
:103410001D08000041080000650800009508000034
:10342000C9080000ED0800001D0900005109000056
:103430007509000099090000C1090000E5090000B4
:10344000150A0000450A0000690A0000990A0000F8
:10345000C90A0000ED0A00001D0B00004D0B000022
:10346000CD0B0000110C00006D0C0000910B000052
:1034700074060020800600208C060020980600209C
:10348000A4060020B0060020B0060020BC060020E4
:10349000C8060020D4060020E0060020EC0600202C
:1034A000F806002004070020100700201C07002059
:1034B0002807002034070020400700204C07002088
:1034C00058070020640700200000000000000000F2
:1034D00000000000000000000000000000000000EC
:1034E00000000000000000000000000000000000DC
:1034F0007835000084350000903500009C350000D0
:10350000A8350000B4350000C0350000CC350000FF
:10351000D8350000E4350000F0350000FC3500002F
:103520000836000014360000203600002C3600005B
:103530003836000044360000503600005C3600008B
:1035400068360000000000000000000000000000DD
:10355000000000000000000000000000000000006B
:10356000000000000000000000000000000000005B
:10357000791D0000991D0000D9190000F9190000FB
:10358000211A00004D1A00006D1A0000951A000063
:10359000C11A0000E11A0000091B0000351B0000E1
:1035A000551B00007D1B0000A91B0000C91B00006B
:1035B000F11B00001D1C00003D1C0000651C0000EC
:1035C000911C0000B11C0000D91C0000051D00006A
:1035D000251D00004D1D0000C11D0000E11D000063
:1035E000091E0000351E0000551E00007D1E000053
:1035F000A91E0000C91E0000F11E00001D1F0000D2
:103600003D1F0000651F0000911F0000B11F00005A
:10361000D91F000005200000252000004D200000DB
:103620007920000099200000C1200000ED2000005A
:103630000D210000352100006121000081210000E2
:10364000A9210000D5210000F52100001D22000065
:10365000492200006922000091220000BD220000E2
:10366000E12200000D2300003D2300006123000043
:103670008D2300009C360000A4360000AC3600000C
:10368000B43600009436000098360000BC360000C6
:10369000D4360000A524000085260000BD230000CC
:1036A0007D27000059240000452800004125000026
:1036B00095280000392600006D290000B929000076
:1036C000DB290000FD2900001F2A0000412A00001C
:1036D000632A0000852A0000A72A0000C92A0000EA
:1036E000EB2A000000000000000000006C37000022
:1036F0007837000084370000903700009C370000C6
:10370000A8370000B4370000C0370000CC370000F5
:10371000D83700000000000000000000000000009A
:103720000000000000000000000000000000000099
:103730000000000000000000000000000000000089
:103740000000000000000000000000000000000079
:103750000000000000000000000000000000000069
:10376000000000000000000000000000792C0000B4
:10377000992C0000C12C0000ED2C00000D2D000044
:10378000352D0000612D0000812D0000A92D0000C5
:10379000D52D0000F52D00001D2E0000492E000043
:1037A000692E0000912E0000BD2E0000DD2E0000CD
:1037B000052F0000312F0000512F0000792F00004D
:1037C000A52F0000C52F0000ED2F000019300000CC
:1037D00039300000613000008D300000AD30000055
:0C37E000D5300000700700200000000041
:0837EC00E8C8FF7F01000000A6
:1037F400800400000000000001010000000400003B
:1038040000000000000000000000000000000000B4
:10381400050000000100000000000000000000009E
:103824000000000000000000000000000000000094
:1038340000000000890000000000000000000000FB
:103844000000000000000000000000000000000074
:103854000000000000000000000000000000000064
:10386400000000040510000000000000000000003B
:1038740005000000402600000200000000000000D7
:10388400030300000000000000000000000000002E
:103894000000000000000000000000000000000024
:1038A400000000000000000C000000000000000008
:1038B4000000000000000000020000000000000002
:1038C40000000041000000000000000000000000B3
:1038D40000000000000000000000000000000000E4
:1038E400000000000055000000000000000000007F
:1038F40000000000000000000000000000000000C4
:1039040000000000000000000000000000000000B3
:1039140000000000000000000000000000000000A3
:103924000000000000000000000000000000000093
:103934000000000000000000000000000000000083
:103944000200000000000000000000000000000071
:103954000000000000000000000000000000000063
:103964000000000000000000000000000000000053
:103974000000000000000000000000000000000043
:10398400000000000000000000000000D10F000053
:10399400000000000000000000000000090D00000D
:1039A40000000000CD100000000000000000000036
:1039B4000000000000000000000000000000000003
:1039C40000000000A50E0000000000000000000040
:1039D40000000000000000000000000000000000E3
:1039E400CD0D0000000000000000000000000000F9
:1039F40000000000000000000000000000000000C3
:103A040000000000000000005D0F00000000000046
:103A1400000000008510000000000000000000000D
:103A240000000000850D00000000000039110000B6
:103A34000000000000000000000000000000000082
:103A4400000000000000000000000000150F00004E
:103A5400C40800207000002058090020F40700204A
:103A6400EC080020A8000020CC000020000000206A
:103A7400FC0800200000000000000000000000001E
:103A84000000000000000000000000000000000032
:103A94000000000000000000000000000000000022
:103AA4000000000000000000000000000000000012
:103AB4000000000000000000000000000000000002
:103E54000000000000800C4000C4004000600040EE
:103E64000000014085110000A5110000CD110000E3
:103E740000000000F9110000000000002112000001
:103E84000000000000000000411200006112000068
:103E940089120000B5120000D5120000FD120000C6
:103EA4002913000049130000711300009D13000042
:103EB400BD130000E51300001114000031140000CC
:103EC4005914000085140000A5140000CD1400004E
:103ED400F914000019150000411500006D150000CB
:103EE4008D150000B51500000D190000000000003C
:103EF40000000000E1150000011600002916000072
:103F040055160000751600009D160000C916000025
:103F1400E9160000111700002D1900000000000030
:103F2400000000003D1700005D1700008517000029
:103F3400B1170000D1170000F91700002518000080
:103F4400451800006D1800004D1900000000000025
:103F54000000000099180000B9180000E1180000E2
:103F6400000000000000000000000000000000004D
:103F7400000000000000000000000000000000003D
:103F8400000000000000000000000000000000002D
:103F9400000000000000000000000000000000001D
:103FA400000000000000000000000000000000000D
:103FB40000000000000000000000000000000000FD
:083FC400B50000008D000000B3
:0400000300000141B7
:00000001FF
